:100000000C945E000C942D1C0C94061C0C94860021
:100010000C9486000C9486000C9486000C94860048
:100020000C9486000C9486000C9486000C94860038
:100030000C9486000C9486000C9486000C94860028
:100040000C94BC1B0C9486000C947A1C0C94541CCD
:100050000C9486000C9486000C9486000C94860008
:100060000C949D1A0C948600000000080002010008
:100070000003040700000000000000000000000072
:10008000250028002B0000000000240027002A0083
:10009000010204081020408001020408102001021F
:1000A00004081020040404040404040402020202EC
:1000B0000202030303030303AC1CE62211241FBE48
:1000C000CFEFD8E0DEBFCDBF13E0A0E0B1E0E2E2C9
:1000D000FBE402C005900D92A233B107D9F725E0E9
:1000E000A2E3B3E001C01D92AC38B207E1F710E023
:1000F000CDE5D0E004C02197FE010E946A23CC35F3
:10010000D107C9F70E94C11D0C9484250C940000EE
:10011000CF93DF93EC01FA013296E60FF71FDC0173
:100120009D012C1B3D0BCF01861B970B4D9144234A
:1001300011F04193F5CFAC01421B530B640F751FB7
:10014000FB013297308361507109FB012083DF91FD
:10015000CF9108958091190590911A05009711F497
:1001600080E02FC0DC01ED91FC910688F789E02D3D
:10017000099520913C0530913D0581111FC0232B2D
:1001800079F78DEF9FEF90933D0580933C0580912B
:10019000190590911A05DC01ED91FC910680F7811B
:1001A000E02D09958091190590911A05DC01ED91DA
:1001B000FC910488F589E02D0995D2CF81E0232BAD
:1001C00079F60895CF93DF93E5E1F5E0EC018A81BC
:1001D0009B81AC81BD81858F968FA78FB0A38BE566
:1001E00097E094A383A312A211A2CF01DF91CF9134
:1001F00008958CBD9DBD0895FC01818D928D08955B
:10020000089520919803260F3327331F213231059B
:10021000ECF420910604FC0190E080E0243069F0C9
:1002200082E00895A09198032191AC014A585C4F57
:10023000A40FB52FB11D2C930196861798F38091CA
:100240009803680F6093980380E0089581E0089513
:1002500008950895E091740380917303E81730F4D2
:10026000F0E0ED5AFC4F808190E008958FEF9FEF12
:10027000089590917403809173032FEF3FEF9817C7
:1002800048F4E92FF0E0ED5AFC4F208130E09F5F09
:1002900090937403C901089580917303909174033E
:1002A000891B990B0895CF92DF92EF92FF920F93E3
:1002B0001F93CF93DF937C01CB018A0120910C0423
:1002C000222389F0EB016B01C40ED51ECC15DD0590
:1002D00069F06991D701ED91FC910190F081E02DD9
:1002E000C7010995F3CF642F0E940101C801DF9176
:1002F000CF911F910F91FF90EF90DF90CF900895D5
:10030000CF93DF931F92CDB7DEB7698320910C04A2
:100310002223F9F020912F04203258F021E030E020
:10032000FC013383228390E080E00F90DF91CF9136
:10033000089580910D04E82FF0E0E25FFB4F998172
:1003400090838F5F80930D0480932F0481E090E071
:10035000ECCF61E0CE0101960E940101F7CF90E061
:10036000FC01E859FF4F2491FC01E057FF4F349105
:10037000FC01EC55FF4FE491EE23C9F0222339F044
:10038000233001F1A8F4213019F1223029F1F0E0F5
:10039000EE0FFF1FE458FF4FA591B4918FB7F8946B
:1003A000EC91611126C030953E233C938FBF089598
:1003B0002730A9F02830C9F0243049F78091800017
:1003C0008F7D03C0809180008F7780938000DFCF86
:1003D00084B58F7784BDDBCF84B58F7DFBCF8091D3
:1003E000B0008F778093B000D2CF8091B0008F7D26
:1003F000F9CF3E2BDACF1092060481E080930504FA
:100400001092E00361E082E10E94AF0161E083E1CC
:100410000E94AF01E9EBF0E080818E7F80838081D4
:100420008D7F808388E48093B80085E48093BC004E
:100430000895CF93DF9391E0909375038823B9F0EB
:10044000C091B800D091BA008091BC008A7B8093A3
:10045000BC0060E082E10E94AF0160E083E10E94A5
:10046000AF010E94FB01D093BA00C093B800DF91A6
:10047000CF910895CF93DF9390E0FC01E057FF4FB9
:1004800024918C559F4FFC0184918823D1F090E0FA
:10049000880F991FFC01EA57FF4FA591B491FC0109
:1004A000E458FF4FC591D491623071F49FB7F8942E
:1004B0003C91822F809583238C93E8812E2B288377
:1004C0009FBFDF91CF9108958FB7F894EC912E2BB9
:1004D0002C938FBFF6CF3FB7F89480914F03909144
:1004E0005003A0915103B091520326B5A89B05C0BB
:1004F0002F3F19F00196A11DB11D3FBFBA2FA92FA3
:10050000982F8827BC01CD01620F711D811D911D9F
:1005100042E0660F771F881F991F4A95D1F708950B
:100520008F929F92AF92BF92CF92DF92EF92FF9203
:100530000F931F93CF93DF93D0912F04D13208F004
:10054000D7C0182FC0912E040E946B026B017C0152
:100550008091060481116BC082E0809306041093A1
:1005600005048FEF8093040410920304D0930204D7
:10057000AEE0B4E0E2EEF3E080E0D81391C0109278
:10058000E1038091E103CC0FC82BC093E10380917C
:10059000E003813009F088C01092E0030E946B02F2
:1005A0006B017C018091E1038093BB008091080482
:1005B00090910904A0910A04B0910B04892B8A2B15
:1005C0008B2BA1F00E946B0200910804109109048A
:1005D00020910A0430910B046C197D098E099F0942
:1005E000061717072807390708F442C08091BC0096
:1005F00083FDD8CF85EC8093BC000E946B026B0119
:100600007C0180910604823009F450C0809104047A
:100610008F3F09F46FC080910404803209F46CC0EC
:1006200080910404803309F469C084E026C080917D
:10063000080490910904A0910A04B0910B04892B3D
:100640008A2B8B2B09F484CF0E946B0280900804C4
:1006500090900904A0900A04B0900B046C197D09D5
:100660008E099F0986169706A806B90608F070CF6E
:10067000809107040E94190285E010920D041092E7
:100680002F0410920C04DF91CF911F910F91FF90D6
:10069000EF90DF90CF90BF90AF909F908F90089594
:1006A0009D9191938F5F69CF85EEA5CF80910804CE
:1006B00090910904A0910A04B0910B04892B8A2B14
:1006C0008B2B09F49ECF0E946B02009108041091BD
:1006D000090420910A0430910B046C197D098E09DC
:1006E0009F09061717072807390708F08ACFC0CFD8
:1006F00081E0C3CF80E0C1CF82E0BFCF83E0BDCF38
:10070000EF92FF920F931F93CF93DF93362FC091F9
:100710006605D09167059091610521E020930C0456
:1007200090932E0410920D0410922F0420917805BE
:1007300041E050E060E070E07A018B0104C0EE0C13
:10074000FF1C001F111F8A95D2F7C7013130A1F598
:10075000822B809378056091780580916C056823E1
:100760008091720590916E058923682B60937105C5
:10077000E881F9810190F081E02DCE010995809109
:10078000780590916C0589239091730520916E05F1
:100790009223892B8093710581E00E949002982F0B
:1007A0008093810581E0911180E0DF91CF911F91CD
:1007B0000F91FF90EF90089580958223CACF8F927A
:1007C0009F92AF92BF92CF92DF92EF92FF924B0136
:1007D0005C010E946B026B017C010E946B026C1930
:1007E0007D098E099F09683E734081059105A8F334
:1007F00021E0821A9108A108B10888EEC80E83E0B2
:10080000D81EE11CF11C81149104A104B10429F744
:10081000FF90EF90DF90CF90BF90AF909F908F9020
:1008200008952FB7F89460914B0370914C03809119
:100830004D0390914E032FBF0895EF92FF920F93B7
:100840001F93CF93DF9300D000D0CDB7DEB7FA016E
:1008500020E08E010F5F1F4F9E2F9F77EE0FEF2F2F
:10086000EE1FFF0BF195309709F09068D801A20FA9
:10087000B11D9C932F5F309779F730E0FB01E21BAD
:10088000F30B8483FB01E21BF30B3596D801CD01FA
:10089000801B910B821793071CF48D918193F7CFE6
:1008A0002F5F3F4F8091190590911A058901040F20
:1008B000151F621B730B6B5F7F4FDC01ED91FC9189
:1008C0000280F381E02DA80109957C010E941104AA
:1008D000609325057093260580932705909328053E
:1008E00081E00E151F0509F080E00F900F900F902A
:1008F0000F90DF91CF911F910F91FF90EF9008958E
:100900008F929F92AF92BF92CF92DF92EF92FF921F
:10091000CF93DF93EC010E9411044B015C018091A5
:10092000190590911A05DC01ED91FC910084F18587
:10093000E02D0995892BB9F40E9411046B017C010B
:10094000C818D908EA08FB08209121053091220532
:10095000A8EEB3E00E945B23C616D706E806F906A8
:10096000F0F280E00DC08091190590911A05DC012C
:10097000ED91FC910284F385E02D0995888381E057
:10098000DF91CF91FF90EF90DF90CF90BF90AF902D
:100990009F908F9008952F923F924F925F926F9207
:1009A0007F928F929F92AF92BF92CF92DF92EF92FF
:1009B000FF920F931F93CF93DF93CDB7DEB72A97A4
:1009C0000FB6F894DEBF0FBECDBF1C0180911B0592
:1009D00090911C050E94800481111CC060E070E0B1
:1009E000CB012A960FB6F894DEBF0FBECDBFDF91C4
:1009F000CF911F910F91FF90EF90DF90CF90BF901C
:100A0000AF909F908F907F906F905F904F903F90AE
:100A10002F900895E0911B05F0911C05D08019825C
:100A2000EE24E394F12C812C912C5401412C512C77
:100A300032014394CE0101960E948004882371F212
:100A400087010F5F1F4F8981E0911B05F0911C0505
:100A5000EE0DFF1D8083E981AE2FAF77B0E0A301DB
:100A600092010E94F722860E971EA81EB91E37E03B
:100A7000440C551C661C771C3A95D1F7E7FD3FC026
:100A8000BD2DB07FBE838FEF800FF1018083B03327
:100A900009F04CC080911B0590911C05800F911F9F
:100AA0000E948004882309F499CF20911B0530917E
:100AB0001C05C7010296820F931F0E9480048823A1
:100AC00009F48CCF0E5F1F4FE0911B05F0911C05C0
:100AD000D1018C91DF01A80FB11D11968C91119756
:100AE00090E0982F882712962C91820F911D2081DB
:100AF00021FD0296F2E0E0E030E020E01DC0780148
:100B00000530110509F096CF8FEF9FEF90933D05CB
:100B100080933C058091190590911A05DC01ED91B7
:100B2000FC910488F589E02D099558CFF0E0E0E0CC
:100B300030E020E090E080E070E060E0CF2EDE2E3C
:100B4000E32EF22E28013B014C185D086E087F0849
:100B50004A825B826C827D822C01712C612C4F82D7
:100B6000588669867A864A805B806C807D804C0CD2
:100B70005D1C6E1C7F1CC814D904EA04FB0408F039
:100B800046C0CE0101960E948004882309F426CF36
:100B900080913A0590913B05009711F12E81203309
:100BA000F9F4D1012C914EEF5FEF6FEF7FEF421B15
:100BB000510961097109440E551E661E771E2F8169
:100BC000388549855A85241535054605570540F46D
:100BD000DC01ED91FC910190F081E02D6981099596
:100BE00080911D0590911E050817190750F4898101
:100BF000E0911B05F0911C05E00FF11F80830F5F52
:100C00001F4FBFEFCB1ADB0AEB0AFB0AACCF809178
:100C10003A0590913B05892B69F480911D059091CF
:100C20001E05B0E0A0E084159505A605B70510F4F3
:100C300010E000E0B80190E080E0D3CE0895AF92DC
:100C4000BF92CF92DF92EF92FF920F931F93CF93B9
:100C5000DF936C017B018B01040F151FEB015E011B
:100C6000AE18BF08C017D10759F06991D601ED91B0
:100C7000FC910190F081E02DC6010995892B79F74F
:100C8000C501DF91CF911F910F91FF90EF90DF9001
:100C9000CF90BF90AF900895FC01538D448D252FC8
:100CA00030E0842F90E0821B930B541710F0CF9606
:100CB000089501970895FC01918D828D981761F038
:100CC000A28DAE0FBF2FB11D5D968C91928D9F5F4F
:100CD0009F73928F90E008958FEF9FEF0895FC012E
:100CE000918D828D981731F0828DE80FF11D858DE1
:100CF00090E008958FEF9FEF0895FC01918D228D74
:100D0000892F90E0805C9F4F821B91098F739927F8
:100D1000089580E394E00E947D0621E0892B09F488
:100D200020E0822F089580E090E0892B29F00E9436
:100D3000890681110C9400000895FC01A48DA80F70
:100D4000B92FB11DA35ABF4F2C91848D90E001960D
:100D50008F739927848FA689B7892C93A089B1892D
:100D60008C91837080648C93938D848D981306C0CE
:100D70000288F389E02D80818F7D80830895EF9232
:100D8000FF920F931F93CF93DF93EC0181E0888F45
:100D90009B8D8C8D98131AC0E889F989808185FF15
:100DA00015C09FB7F894EE89FF896083E889F989B7
:100DB00080818370806480839FBF81E090E0DF91B9
:100DC000CF911F910F91FF90EF900895F62E0B8D0C
:100DD00010E00F5F1F4F0F731127E02E8C8D8E11C7
:100DE0000CC00FB607FCFACFE889F989808185FF2E
:100DF000F5CFCE010E949D06F1CFEB8DEC0FFD2FBC
:100E0000F11DE35AFF4FF0829FB7F8940B8FEA89E8
:100E1000FB8980818062CFCFCF93DF93EC01888DF7
:100E20008823B9F0AA89BB89E889F9898C9185FD65
:100E300003C0808186FD0DC00FB607FCF7CF8C91F3
:100E400085FFF2CF808185FFEDCFCE010E949D0608
:100E5000E9CFDF91CF910895FC0120812EBD9B0148
:100E60002150310941F051810DB407FEFDCF4EB53F
:100E70005EBD4193F5CF61507109860F971F0DB488
:100E800007FEFDCF2EB5FC0120830895E091DA0323
:100E9000F091DB0380819091D903892B80830895A1
:100EA000E091DA03F091DB0390818091D903809582
:100EB0008923808308958EBD00000DB407FEFDCF09
:100EC0008EB50895AF92BF92CF92DF92EF92FF92CC
:100ED0000F931F93CF93DF93CDB7DEB728970FB64D
:100EE000F894DEBF0FBECDBF8C017B016A018091FB
:100EF000DD038333E1F45801A40EB51EA016B1063C
:100F000009F46FC00E94500780EF0E945B07812F99
:100F10000E945B07802F0E945B070F5F1F4FF70146
:100F200081917F010E945B070E944607E7CF5B012A
:100F3000A40EB51E8433C1F40E94500719830A839E
:100F40008D2D80688B83CC8264E070E0CE010196A9
:100F50000E942C07AE14BF0409F441C0F70181912F
:100F60007F010E945B07F6CF0E9450070F3F1105DB
:100F700009F028F419820A8384E08B830CC017FDE2
:100F800017C019820A8333E0169507953A95E1F761
:100F9000007E0C600B8386E0C816D104A0F5F70133
:100FA000DE011496EA15FB0599F081918D93FACF35
:100FB000C80126E0969587952A95E1F7807E1983EA
:100FC0000A830115104C10F48461D7CF8C61D5CF02
:100FD000B6016D5F7F4FCE0101960E942C070E94E3
:100FE0004607C60128960FB6F894DEBF0FBECDBFE8
:100FF000DF91CF911F910F91FF90EF90DF90CF90F5
:10100000BF90AF90089563E070E0CE0101960E941A
:101010002C07F70181917F010E945B07AE14BF048A
:10102000C1F7DDCFCF93DF931F92CDB7DEB78983B2
:1010300041E050E0BE016F5F7F4F90E080E00E9492
:1010400062070F90DF91CF91089590E02091DD032A
:10105000233339F40C96982F990F990F990F80E04C
:1010600008954896F8CFDA01E091DE03F0E0FE2F14
:10107000EE27E60FF71F90E0982F8827A901BD0102
:101080008E0F9F1F0C946207CF93DF9300D0CDB7D4
:10109000DEB779836A8322E030E0AE014F5F5F4FB5
:1010A00060E170E00E9433080F900F90DF91CF91C4
:1010B0000895CF93DF9300D0CDB7DEB779836A83ED
:1010C00022E030E0AE014F5F5F4F64E070E00E94CD
:1010D00033080F900F90DF91CF910895CF93DF9356
:1010E0001F92CDB7DEB72091DE0330E0322F2227EA
:1010F000260F371F90E0982F8827498341E050E062
:10110000BE016F5F7F4F820F931F0E9462070F9097
:10111000DF91CF910895CF93DF931F92CDB7DEB7C4
:101120006983DC01ED91FC910280F381E02D41E0C7
:1011300050E0BE016F5F7F4F09950F90DF91CF9117
:101140000895FC019485FB018485981303C081E018
:10115000943008F080E00895CF93DF931F92CDB7CD
:10116000DEB76983DC01ED91FC910280F381E02D13
:1011700041E050E0BE016F5F7F4F09950F90DF9116
:10118000CF9108950895FF920F931F93CF93DF930C
:10119000EB01FC01178A168A2A81211109C02B81D3
:1011A000211106C02C81211103C02D81222301F1C0
:1011B00041155105E9F08A01FC01F08C80E591E0D0
:1011C0000E94F900AE014E5F5F4F24E030E06CE01A
:1011D00070E08F2D0E943308B8018F2D0E944408C3
:1011E00081E090E0DF91CF911F910F91FF900895E2
:1011F00080E0F7CFFC01848595850895FC01848902
:10120000958908952FEA31E0FC0131832083FB01A9
:101210004089518962897389FC01428353836483C5
:1012200075830895DC01ED91FC91048CF58DE02D22
:101230000994EF92FF920F931F93CF93DF93EC01EA
:101240008B017A010E941104688B798B8A8B9B8BAE
:101250008C819D81DC01ED91FC910280F381E02D78
:10126000A701B801DF91CF911F910F91FF90EF90EF
:1012700009941F93CF93DF93EC01162F0E94110462
:10128000688B798B8A8B9B8B8C819D81DC01ED91A6
:10129000FC910190F081E02D612FDF91CF911F91A2
:1012A0000994089590E080E00895FC0176876587B1
:1012B0000895DC01ED91FC9102A0F3A1E02D0995C8
:1012C00091E089270895862F089581E08627089563
:1012D00021E0FC018485883008F020E0822F089509
:1012E00008950F931F9341E050E060E070E08A01A1
:1012F0009B0104C0000F111F221F331F8A95D2F7D4
:10130000C801E9E5F5E02389282B238B2489282BC4
:10131000248B809595899823958B97899823978B13
:1013200096898923868B1F910F910895EF92FF92E2
:101330000F931F93CF93DF938C0160911D057091E4
:101340001E0581EB91E00E94EC22EC010E94AA00B4
:101350008823F1F1E0901D05F0901E05B701C8014A
:101360000E94EC229E01295F3F4F820F931FE816D7
:10137000F90670F160911B0570911C0545E050E085
:10138000C8010E948800E1EBF1E08C01015B114093
:10139000A8014E0F5F1F60911B0570911C059F01F6
:1013A000215B31402C173D0730F42191640F751FEC
:1013B000DB012C93EDCF2597AE01480F591F80E339
:1013C000DF91CF911F910F91FF90EF900C941D042E
:1013D00080E0DF91CF911F910F91FF90EF900895E2
:1013E0000F931F93CF93DF93EC0100911D05109194
:1013F0001E05B8010E94EC22099608171907E8F1AA
:101400000E94AA008823C9F18091230590912405A8
:10141000019681F19093240580932305E0911B05AB
:10142000F0911C05809124058583E0911B05F091C6
:101430001C0580912305868360911B0570911C0516
:1014400047E050E0CE010E948800E0911B05F0913A
:101450001C05E80FF91F1082AC014450510960913E
:101460001B0570911C0582E8DF91CF911F910F91B0
:101470000C941D0481E090E0CDCF80E0DF91CF910E
:101480001F910F91089585ED8093BC008091080411
:1014900090910904A0910A04B0910B040796A11D34
:1014A000B11D23E0B695A795979587952A95D1F715
:1014B0002091BC0024FD03C01092060408954091C1
:1014C00008045091090460910A0470910B04452BA3
:1014D000462B472B69F30097A105B10541F02AE29D
:1014E0002A95F1F700C00197A109B109E1CF8091D8
:1014F00007040C941902FC0124813581232B39F453
:1015000021E0FB018081882349F020E007C0808131
:1015100091810E94742521E0892BB9F7822F0895CB
:101520000F931F93CF93DF93EC01888199810097EC
:1015300059F02A813B812617370730F081E0DF918F
:10154000CF911F910F9108958B016F5F7F4F0E9484
:101550009524009759F0998388831B830A832C81F3
:101560003D81232B59F7FC011082E8CF80E0E7CFC3
:10157000FC0180819181009711F00C940C24089556
:101580000C940C24FB0101900020E9F73197AF0186
:10159000461B570BDC01ED91FC910280F381E02D9D
:1015A00009948F929F92AF92BF92EF92FF920F9306
:1015B0001F93CF93DF93CDB7DEB7A1970FB6F89403
:1015C000DEBF0FBECDBF7C01FA01CB0119A22230D4
:1015D00008F42AE08E010F5D1F4F822E912CB12C52
:1015E000A12CBF01A50194010E943923F901CA0170
:1015F0006A300CF5605DD8016E938D01232B242B8E
:10160000252B79F790E080E0109721F0BD01C7010C
:101610000E94C20AA1960FB6F894DEBF0FBECDBFDE
:10162000DF91CF911F910F91FF90EF90BF90AF90FE
:101630009F908F900895695CDECF8F929F92AF92BA
:10164000BF92CF92DF92EF92FF920F931F93CF93AF
:10165000DF937C01EB016C0182E0C80ED11C4701D5
:10166000E5E08E0E911C10E000E0F60141916F0163
:1016700050E070E060E02AE0CE010E94D10A5C01F7
:10168000E881F9810190F081E02D6EE2CE010995AB
:101690008A0D9B1D080F191FC814D90431F7F701D3
:1016A000458150E070E060E02AE0CE010E94D10A5E
:1016B000800F911FDF91CF911F910F91FF90EF90BD
:1016C000DF90CF90BF90AF909F908F900895CF9371
:1016D000DF93BC0180E394E00E94C20AEC0168EB56
:1016E00071E080E394E00E94C20A8C0F9D1FDF919D
:1016F000CF910895EF92FF920F931F93CF93DF93B3
:10170000EC01198218821B821A821D821C826115CB
:101710007105E1F08B01FB0101900020E9F73197A1
:101720007F01E61AF70AB7010E94900A28813981E1
:10173000811113C02115310519F0C9010E940C2433
:10174000198218821D821C821B821A82DF91CF911E
:101750001F910F91FF90EF900895FD82EC82B801E8
:10176000C901DF91CF911F910F91FF90EF900C94E1
:101770007D25AF92BF92CF92DF92EF92FF920F93AF
:101780001F93CF93DF93CDB7DEB72C970FB6F894A6
:10179000DEBF0FBECDBF7C016B015A016BEB71E068
:1017A00080E394E00E94C20AE114F10429F0B70139
:1017B00080E394E00E94C20A61ED71E080E394E06E
:1017C0000E94C20A6AEB71E0CE0107960E947A0B72
:1017D0008601AC0CBD1C4B855C85A016B106F1F0F2
:1017E000F80181918F0189831A826A01FFEFCF1A74
:1017F000DF0AB601CE0107960E94900A882359F3AA
:101800002F8138858B859C85BE016F5F7F4F820F4E
:10181000931F0E947D25DC86CB86DDCF6F81788586
:1018200080E394E00E941F0668EB71E080E394E09F
:101830000E94C20AB701CE0101960E947A0B65EDA3
:1018400071E0CE0101960E947B0A182FCE0101960D
:101850000E94B80A112309F160EE71E0CE010796EB
:101860000E947B0A882309F492C084EE91E00E94D2
:10187000670B60E080E00E94800381E090E090933D
:101880004103809340030E941104609342037093CC
:1018900043038093440390934503B701CE0101961F
:1018A0000E947A0B6AE272E0CE0101960E947B0AE6
:1018B000182FCE0101960E94B80A112301F160E0B1
:1018C00072E0CE0107960E947B0A8823C1F085E36F
:1018D00092E00E94670B60E081E00E94800381E05B
:1018E00090E090933B0380933A030E94110460932D
:1018F0003C0370933D0380933E0390933F03B701F5
:10190000CE0101960E947A0B60E572E0CE0101964D
:101910000E947B0A182FCE0101960E94B80A11235B
:1019200009F16BE572E0CE0107960E947B0A8823DD
:1019300009F443C085E692E00E94670B60E082E014
:101940000E94800381E090E09093350380933403FC
:101950000E94110460933603709337038093380319
:1019600090933903CE0107960E94B80A2C960FB6C1
:10197000F894DEBF0FBECDBFDF91CF911F910F91C5
:10198000FF90EF90DF90CF90BF90AF90089560E010
:1019900072E0CE0107960E947B0A882309F47DCF6E
:1019A00083E092E00E94670B61E080E00E94800388
:1019B000109241031092400370CF64E872E0CE01B0
:1019C00007960E947B0A882369F285E692E00E94CE
:1019D000670B61E082E00E948003C4CFAF92BF92A8
:1019E000CF92DF92EF92FF920F931F93CF93DF93EB
:1019F00000D000D0CDB7DEB78C016B017A018091A9
:101A0000DD038333E9F45B016801C40ED51EC01603
:101A1000D106A9F10E9450078FE00E945B07812F39
:101A20000E945B07802F0E945B070F5F1F4F80E0C3
:101A30000E945B07F50181935F010E944607E7CF93
:101A4000843369F50E94500719830A838F2D8F779D
:101A50008B83EC8264E070E0CE0101960E942C073B
:101A6000A70170E060E0C6010E946D25E114F10459
:101A700021F0B701C6010E942C070E944607C7014A
:101A80000F900F900F900F90DF91CF911F910F91BA
:101A9000FF90EF90DF90CF90BF90AF9008950E949D
:101AA00050070F3F110509F030F419820A831B8299
:101AB00063E070E0D1CF17FD0BC019820A8333E0D9
:101AC000169507953A95E1F7007E08600B83F0CFF5
:101AD000C80126E0969587952A95E1F7807E1983BF
:101AE0000A830115104C18F480618B83E1CF886163
:101AF000FCCFCF93DF931F92CDB7DEB72091DE03EB
:101B000030E0322F2227260F371F90E0982F8827AA
:101B100041E050E0BE016F5F7F4F820F931F0E9434
:101B2000EE0C89810F90DF91CF910895CF93C82F4C
:101B3000462F61E070E00E946E0861E070E08C2F3B
:101B40000E94790D8111F9CFCF910895CF93C82FBD
:101B500080E591E00E94F90068E070E08C2FCF9161
:101B60000C94960DCF93C82F80E591E00E94F90068
:101B700060E170E08C2FCF910C94960DCF93DF93A2
:101B8000EC01888D843020F40E94B20D84E0888FAF
:101B9000DF91CF910895CF93C82F80E591E00E9407
:101BA000F90063E070E08C2FCF910C94790DCF9306
:101BB000DF93EC018C858430D0F40E94CB0D84310E
:101BC00089F0882379F0883169F021E08C3159F46B
:101BD000E881F9810084F185E02DCE01099521E0AD
:101BE000892B09F420E0822FDF91CF91089580E0C6
:101BF000FBCFCF92DF92EF92FF92CF93DF93EC0176
:101C00008C85843068F40E94A60D0E9411046B013B
:101C10007C018C850E94CB0D811109C084E08C87EA
:101C2000DF91CF91FF90EF90DF90CF90089561E02A
:101C300070E080E090E00E94DF030E941104AB019D
:101C4000BC014C195D096E097F098D859E85B0E048
:101C5000A0E0481759076A077B07D8F28C850E94D5
:101C6000B20DDCCFCF93FC01C08D80E591E00E94E6
:101C7000F90060E270E08C2F0E94960D62E070E047
:101C80008C2F0E94790D84FD16C062E070E08C2FCD
:101C90000E94790D83FF0AC048E162E070E08C2F5A
:101CA0000E946E0880E090E0CF91089580E591E079
:101CB0000E94F900E3CF40E162E070E08C2F0E94C7
:101CC0006E0881E0F0CFCF93DF931F92CDB7DEB7E0
:101CD00041E050E0BE016F5F7F4F90E080E00E94E6
:101CE000EE0C89810F90DF91CF910895CF93DF9310
:101CF000C4E1D0E00E94630E882361F061E070E0EF
:101D000080E090E00E94DF032197A1F780E0DF915F
:101D1000CF91089581E0FBCFCF92DF92EF92FF92B7
:101D20000F931F93CF93DF93CDB7DEB7C454D10980
:101D30000FB6F894DEBF0FBECDBFFC018281938148
:101D4000A481B58123968CAF9DAFAEAFBFAF239773
:101D500021E023962FAF239723964CAD5DAD6EAD5A
:101D60007FAD23974BAB5CAB6DAB7EAB89AF9AAFCE
:101D7000ABAFBCAF8DA79EA7AFA7B8AB28AB4DA5A7
:101D80005EA56FA578A94FA358A769A77AA72EAB20
:101D90004BA95CA96DA97EA949A35AA36BA37CA3F7
:101DA0008B8F9C8FAD8FBE8F4FEA51E05C8B4B8B3E
:101DB0003FEF3D8B3E8B3F8B188E5E874D872AA76A
:101DC000CFA0D8A4E9A4FAA4CF86D88AE98AFA8A4F
:101DD0002CA309A11AA12BA13CA109871A872B8743
:101DE0003C875A8349838B839C83AD83BE838091D8
:101DF000DF038111AFC060E372E080E090E00E94F9
:101E0000DF03DFB6F8940EEA10E03AE9E32E30E0A3
:101E1000F32E8091DC03811125C0F8018491F70134
:101E20009491E82FF0E0EE0FFF1FEA57FF4FA591C6
:101E3000B4918C91982321F461E08AE00E94AF0173
:101E400061E08AE00E943A028CB580618CBD8CB55D
:101E500080648CBD61E08DE00E943A0261E08BE01D
:101E60000E943A028091DC038F5F8093DC03DFBE27
:101E7000F8010491E02FF0E0EE0FFF1FE458FF4F50
:101E8000859194919093DB038093DA03F701E490BA
:101E9000E092D90361E08AE00E943A020E9446077C
:101EA00080E591E00E94F90084E38093DD0380E8FF
:101EB0000E9412080E94760E882309F481C088E0EF
:101EC0000E9412080E94630E883009F079C080E1F8
:101ED0000E9412080E94630E803109F071C080E0F8
:101EE0000E9412080E94630E182F811169C041E000
:101EF00050E0BE016D5B7F4F8FE190E00E94EE0CE1
:101F000024968FAD2497833009F05AC080E48093E3
:101F1000DE0342E06EE170E0812F0E946E0842E035
:101F20006FE170E0812F0E946E081F5F143089F707
:101F300040E06EE170E0812F0E946E0840E06FE1AA
:101F400070E0812F0E946E081F5F183089F781E0D2
:101F50008093DF0380E591E00E94F90046E050E0C5
:101F600066E071E089E090E00E94620744E050E0A2
:101F7000BE016D5F7F4F8FE090E00E94620744E0FA
:101F800050E0BE01615F7F4F81E090E00E946207F8
:101F900044E050E0BE016B5E7F4F85E090E00E9420
:101FA000620781E08C8789859A85AB85BC858093A3
:101FB000F9049093FA04A093FB04B093FC046FC05F
:101FC00087E38093DD0380E80E9412080E94760E6A
:101FD000882339F188E00E9412080E94630E88303D
:101FE00001F580E10E9412080E94630E182F8031D3
:101FF000C1F480E00E9412080E94630E811111C09A
:1020000041E050E0BE016D5B7F4F89E390E00E94AC
:10201000EE0C24968FAD2497843019F41093DE03D0
:1020200096CF83E38093DD0380E80E9412080E942C
:10203000760E882391F180E10E9412080E94630EBF
:10204000803159F582E10E9412080E94630E8231AC
:1020500021F580E00E9412080E94630E81111DC0CC
:1020600084E08093DE0315E525961FAF259741E0B8
:1020700050E0BE016C5B7F4F8BE190E00E946207F5
:1020800024961FAF249741E050E0BE016D5B7F4F67
:102090008AE190E00E9462075ACF1092DD03CC5B88
:1020A000DF4F0FB6F894DEBF0FBECDBFDF91CF91EB
:1020B0001F910F91FF90EF90DF90CF9008951F93A5
:1020C000CF93DF931F92CDB7DEB7182F80E591E055
:1020D0000E94F900812F0E94250827E0129FF0013D
:1020E0001124E354FC4F22813381377041E050E0EA
:1020F000BE016F5F7F4F820F931F0E94EE0C89819C
:102100000F90DF91CF911F910895FC01808D843055
:1021100040F4218D328D232B21F00E945F1090E03E
:1021200008958FEF9FEF0895CF93DF93FC012485EF
:10213000243028F08FEF9FEFDF91CF910895EC01CD
:102140000190F081E02D0084F185E02D0995892B27
:1021500089F38C850E945F1090E0EECFDA01E09168
:10216000DE03F0E0FE2FEE27E60FF71F90E0982F3A
:102170008827A901BD018E0F9F1F0C94EE0C8F9232
:102180009F92AF92BF92CF92DF92EF92FF921F93F6
:10219000CF93DF93CDB7DEB72C970FB6F894DEBFA1
:1021A0000FBECDBF2091DD0314E0222339F16B0176
:1021B0007C0180E591E00E94F9005E0127E0A20E1B
:1021C000B11C450110E063E070E0812F0E94790DA1
:1021D000F40181934F01882349F11F5F143099F76F
:1021E00010E0F50181915F018D31D9F08831C9F09E
:1021F0008A518230B0F01F5F143099F7812F2C96EE
:102200000FB6F894DEBF0FBECDBFDF91CF911F9107
:10221000FF90EF90DF90CF90BF90AF909F908F9006
:10222000089560E170E0812F0E94960DA12EB12CDF
:1022300083EE93E00197F1F742E870E060E0812FD0
:102240000E946E084FEF62E070E0812F0E946E08DE
:10225000B601C114D10491F480910401909105015B
:1022600001968115F0EC9F0708F45CC0909305017E
:10227000809304016091040170910501812F0E94F7
:10228000590886E0E2E1F1E0DE01119601900D923D
:102290008A95E1F7F70183818F778C8384818D8321
:1022A00085818E83A7014E5F5F4F24E030E06CE0B4
:1022B00070E0812F0E943308B601812F0E944408EC
:1022C00026E030E0AE014F5F5F4F66E070E0812FA7
:1022D0000E94330861E070E0812F0E94960D27E094
:1022E0002A9DC0012B9D900D11249C0123543C4F2D
:1022F0007901F9011182108222E030E0AE01455FE0
:102300005F4F68E270E0812F0E94AE108B859C8544
:10231000982789279827F70193838283168215824D
:1023200014826CCF80E090ECA1CFCF92DF92EF923D
:10233000FF920F931F93CF93DF9300D000D000D074
:10234000CDB7DEB78C016B017A01FC01808D843042
:1023500010F40E94B20D8FEA91E09A838983F6010E
:1023600082819381A481B5818B839C83AD83BE835D
:10237000B701CE0101960E94BF10F801808F843012
:10238000A0F4F586E486128E118E81E026960FB6B3
:10239000F894DEBF0FBECDBFDF91CF911F910F919B
:1023A000FF90EF90DF90CF90089580E0EFCFAF9255
:1023B000BF92CF92DF92EF92FF920F931F93CF9332
:1023C000DF9300D000D000D0CDB7DEB7082F6B016F
:1023D00080E591E00E94F9009E012F5F3F4F790157
:1023E000590110E063E070E0812F0E94790DF50142
:1023F00081935F01882341F11F5F143099F710E04A
:10240000F70181917F018D31D1F08831C1F08A517E
:102410008230A8F01F5F143099F7812F26960FB6EF
:10242000F894DEBF0FBECDBFDF91CF911F910F910A
:10243000FF90EF90DF90CF90BF90AF90089560E154
:1024400070E0812F0E94960DE12EF12C83EE93E037
:102450000197F1F7402F70E060E0812F0E946E0835
:102460004FEF62E070E0812F0E946E08B601CD2828
:1024700089F4809104019091050101968115F0EC99
:102480009F0798F1909305018093040160910401E6
:1024900070910501812F0E94590861E070E0812F41
:1024A0000E94960D27E02E9DC0012F9D900D1124B6
:1024B0009C0123543C4F7901F9011182108222E0E2
:1024C00030E0AE014B5F5F4F68E270E0812F0E9409
:1024D000AE108D819E81982789279827F7019383D5
:1024E000828316821582148298CF80E090ECCACF46
:1024F000CF92DF92EF92FF921F93CF93DF93EC0185
:102500007B016A018C85843048F40E94CB0D8823BE
:1025100019F08C850E94A60D84E08C87F7018281DA
:102520009381A481B5810097A105B10551F490E094
:1025300080E0DF91CF911F91FF90EF90DF90CF90DF
:1025400008958F3F9F4FAF4FBF4F89F38091DD03B9
:10255000811103C084E08C87EACF70E060E081E203
:102560000E94D711182F8C87843008F780E591E0FE
:102570000E94F900A7014E5F5F4F24E030E06CE05D
:1025800070E0812F0E943308B601812F0E94440819
:1025900064E070E0812F0E94960D0E9411046B018F
:1025A0007C018C850E94CB0D873109F18C31F9F0CB
:1025B000882309F4BCCF0E941104AB01BC014C1963
:1025C0005D096E097F098D859E85B0E0A0E08417C6
:1025D0009507A607B70738F061E070E080E090E06B
:1025E0000E94DF03DECF8C850E94B20DB3CF81E065
:1025F00090E09FCF0F931F93CF93DF93EC018B015C
:10260000888D843010F40E94B20D8091DD03811119
:1026100007C094E0988FDF91CF911F910F9108959B
:10262000B80182E00E94D711888F843030F41D8772
:102630000C871A8E198E81E0EECF80E0ECCF7F926E
:102640008F929F92AF92BF92CF92DF92EF92FF92C2
:102650000F931F93CF93DF9300D0CDB7DEB7782EC3
:102660008B014A01590122E030E0AE014F5F5F4F1C
:1026700064E270E00E94AE10E980FA80FE24EF244C
:10268000FE24E00EF11E970137704091DD03072D07
:1026900010E0433309F042C0085F1F4F102F00279E
:1026A000110F110F110FC901800F911F4733C9F18D
:1026B000A9014A0D5B1D4130584098F160E078E077
:1026C0006B01C21AD30AA601B4010E946207A501D8
:1026D0004C195D09B4016C0D7D1DC8010E94620793
:1026E000EA0CFB1CF982EA8222E030E0AE014F5F87
:1026F0005F4F64E270E0872D0E9433080F900F90C7
:10270000DF91CF911F910F91FF90EF90DF90CF90CD
:10271000BF90AF909F908F907F900895005F1F4F64
:10272000BDCFA501B401DACFEF92FF921F93CF93F3
:10273000DF9300D0CDB7DEB7182F22E030E0AE0136
:102740004F5F5F4F60E270E00E94AE10E980FA8058
:10275000FE24EF24FE2422E030E0AE014F5F5F4F05
:1027600060E270E0812F0E94AE1089819A819827E3
:1027700089279827E816F90689F487E0189FF00161
:102780001124E354FC4FF582E482C7010F900F90AF
:10279000DF91CF911F91FF90EF9008957C01DBCFE7
:1027A0001F93CF93DF93182F80E591E00E94F900EB
:1027B000812F0E949413EC0163E070E0812F0E944E
:1027C000790D873121F08C3111F0D0E0C0E0CE01DD
:1027D000DF91CF911F910895CF93DF93EC018C850A
:1027E000843060F40E94CB0D873111F08C3131F4CC
:1027F0008C850E94D0138115984088F3DF91CF918A
:102800000895FC018485843010F40C94D01390E07A
:1028100080E008959F92AF92BF92CF92DF92EF92A5
:10282000FF920F931F93CF93DF938C015B01942E44
:10283000E52EFC01C688D788F08C80E591E00E94E7
:10284000F9008F2D0E949413C92DDE2D8C179D0742
:1028500008F4EC019E01A501B6018F2D0E941F1303
:10286000F801868997898C0F9D1F978B868BCE01E7
:10287000DF91CF911F910F91FF90EF90DF90CF905C
:10288000BF90AF909F9008958F929F92AF92BF920A
:10289000CF92DF92EF92FF920F931F93CF936C0131
:1028A0005B018A01FC01C485C430F0F57A01413036
:1028B000584018F0E12C88E0F82E80E591E00E9465
:1028C000F9008C2F0E9494134C0163E070E08C2F70
:1028D0000E94790D873111F08C3149F58E149F04D7
:1028E00060F380E591E00E94F9009701A50170E096
:1028F00060E08C2F0E941F1360E270E08C2F0E941A
:10290000960D62E070E08C2F0E94790D84FD17C057
:1029100063E070E08C2F0E94790D81110BC081E083
:1029200090E0F6019383828310E000E010C0F12C68
:10293000E12CD7CF80E591E00E94F900E2CF40E1A1
:1029400062E070E08C2F0E946E08EF2841F3C8010E
:10295000CF911F910F91FF90EF90DF90CF90BF909C
:10296000AF909F908F900895FF920F931F93CF93F6
:10297000DF9300D0CDB7DEB7F82E22E030E0AE0115
:102980004F5F5F4F66E270E00E94AE1009811A81CE
:1029900010270127102722E030E0AE014F5F5F4F84
:1029A00066E270E08F2D0E94AE1089819A8198278F
:1029B000892798270817190749F4C8010F900F9025
:1029C000DF91CF911F910F91FF9008958C01E3CF7C
:1029D0001F93CF93DF93182F87E0189FE0011124F6
:1029E000C354DC4F88819981009761F480E591E0C0
:1029F0000E94F900812F0E94B4142E81821B91093C
:102A000099838883DF91CF911F910895FC0184857C
:102A1000843010F40C94E81490E080E008954F9214
:102A20005F927F928F929F92AF92BF92CF92DF92EE
:102A3000EF92FF920F931F93CF93DF9300D0CDB708
:102A4000DEB7782E6B014A01A82EB12C27E0829FB9
:102A5000C0011124FC01E354FC4F7F01008111816E
:102A600080E591E00E94F9000815190554F4872DBE
:102A70000E94B414F70126818C01021B11091183F5
:102A800000830115110529F563E070E0872D0E9490
:102A9000790D843159F0882349F001E010E08C3140
:102AA00011F410E000E0119501951109C8010F9093
:102AB0000F90DF91CF911F910F91FF90EF90DF90DA
:102AC000CF90BF90AF909F908F907F905F904F90EE
:102AD0000895801691060CF4840187E08A9DF00128
:102AE0008B9DF00D1124E354FC4FE280F380C11460
:102AF000D10451F12701F7E05F22872D0E942508BC
:102B0000840D951D2091DD03273309F453C09801EE
:102B1000240D351D2130384008F44CC020E038E049
:102B2000490184189508A401B6010E94EE0C260103
:102B3000480C591C6801C818D908872D0E9425081F
:102B4000A601B2010E94EE0CE00EF11E87E08A9D04
:102B5000F0018B9DF00D1124E354FC4FF382E282CF
:102B600020813181201B310B318320838681800FAE
:102B7000912F911D8A3F910510F4232BF1F487E0EA
:102B80008A9DF0018B9DF00D1124E354FC4F1682B9
:102B9000F982EA8222E030E0AE014F5F5F4F68E2E7
:102BA00070E0872D0E94330860E470E0872D0E945A
:102BB000960D7CCFA801B601C5CF868377CFCF9382
:102BC000DF93FC01218D328D2115310529F48FEF22
:102BD0009FEFDF91CF910895EC01808D421753074D
:102BE00008F0A9010E940F151816190684F7298DFF
:102BF0003A8D281B390B3A8F298FEBCF0F931F93F8
:102C0000CF93DF931F92CDB7DEB7FC01218D328DBC
:102C1000232B41F48FEF9FEF0F90DF91CF911F9106
:102C20000F9108958C0141E050E0BE016F5F7F4F2E
:102C3000FC01808D0E940F15181619065CF7F8012B
:102C4000818D928D0197928F818F898190E0E4CF61
:102C5000CF93DF931F92CDB7DEB741E050E0BE01C6
:102C60006F5F7F4FFC0184850E940F1518161906AF
:102C700034F4898190E00F90DF91CF9108958FEF28
:102C80009FEFF9CFFC018485843010F40C940F156C
:102C900090E080E008950F931F93CF93DF9300D0CF
:102CA000CDB7DEB7FC0124852430E0F48C0180E54B
:102CB00091E00E94F90022E030E0AE014F5F5F4FEB
:102CC00060E170E0F80184850E94AE1089819A81EC
:102CD0009827892798270F900F90DF91CF911F9108
:102CE0000F91089590E080E0F6CF0F931F93CF935C
:102CF000DF9300D0CDB7DEB7FC0124852430E0F4AB
:102D00008C0180E591E00E94F90022E030E0AE0104
:102D10004F5F5F4F64E070E0F80184850E94AE1061
:102D200089819A819827892798270F900F90DF91A2
:102D3000CF911F910F91089590E080E0F6CF0F930F
:102D40001F93CF93DF93CDB7DEB728970FB6F894D4
:102D5000DEBF0FBECDBF8C01D80159964D915C915D
:102D60005A974115510551F0ED91FC91048CF58D68
:102D7000E02D70E060E0C8010995EECFF801808D8C
:102D80000E94E814892BB1F148E050E0BE016F5F6A
:102D90007F4FD80158968C910E940F15181619066E
:102DA000F4F4D801509684E0FE01319601900D9222
:102DB0008A95E1F78D8190E0982F88272E81820FE8
:102DC000911DF801958B848B8F81282F30E0322F55
:102DD00022278885820F932F911D928F818F2896AD
:102DE0000FB6F894DEBF0FBECDBFDF91CF911F911C
:102DF0000F91089590E080E0F2CF4F925F926F9232
:102E00007F928F929F92AF92BF92CF92DF92EF927A
:102E1000FF920F931F93CF93DF93CDB7DEB76397E6
:102E20000FB6F894DEBF0FBECDBF7C016B013A0137
:102E3000FB0120E090E080E06AE03191332309F467
:102E400061C040ED430F4A3008F04DC0689FA001BB
:102E5000699F500D1124CA01C097830F911D37FD42
:102E60009A958F3F910549F340F3F70142815381D1
:102E7000648175818091D5049091D604A091D70486
:102E8000B091D804481759076A077B0709F40DC2A7
:102E90008701085F1F4F0E9411046F7077277C5FC6
:102EA000C8010E94FA12813009F004C28FEA91E051
:102EB0009A838983F70182819381A481B5818B8371
:102EC0009C83AD83BE8345E350E0BE016F5F7F4FBF
:102ED000C8010E94C308892BA9F5D12CC12CC801B7
:102EE0000E94BE0D17C03E3209F0BFCF233009F457
:102EF000BCCFD301A20FB11D12968C932F5F90E02F
:102F000080E09BCF233009F0B0CFF3018583CC2440
:102F1000C394D12CC60163960FB6F894DEBF0FBEE2
:102F2000CDBFDF91CF911F910F91FF90EF90DF9078
:102F3000CF90BF90AF909F908F907F906F905F9059
:102F40004F9008950E941104F7017783668342E051
:102F500050E0B7016A5F7F4FC8010E940A1481E008
:102F600090E09A83898342E050E0BE016F5F7F4F1B
:102F7000C8010E940A1480E091E09A83898342E0AC
:102F800050E0BE016F5F7F4FC8010E940A141A8291
:102F9000198242E050E0BE016F5F7F4FC8010E947E
:102FA0000A1442E050E0BE016F5F7F4FC8010E94EB
:102FB0000A1442E050E0BE016F5F7F4FC8010E94DB
:102FC0000A145601F6018081882301F16501F6019A
:102FD00081912F01882311F08E32B1F446018A18B5
:102FE0009B081814190474F48D8641E050E0BE016A
:102FF000635F7F4FC8010E940A14A401B501C80194
:103000000E940A145201DECF6201E1CF1D8641E029
:1030100050E0BE01635F7F4FC8010E940A14C12CBB
:10302000DD24D394DA82C98242E050E0BE016F5FB2
:103030007F4FC8010E940A14DA82C98242E050E040
:10304000BE016F5F7F4FC8010E940A14C8010E9431
:10305000320E892B09F441CFF3E0AF2EB12C2301BE
:1030600022E0420E511CD4C0F70142815381648199
:103070007581808D918DA28DB38D481759076A0790
:103080007B0709F008C1848D958DC59709F003C1B0
:1030900081A192A15DEFC52EDD24DA940C970CF48A
:1030A000ADC04CE050E0BE016F5F7F4FC8010E9491
:1030B000DF158B819C819827892798279A8B898B8C
:1030C000F7014681578129813A814217530709F058
:1030D000E7C097FFE5C08F7092703BEFC32EDD24F1
:1030E000DA94892B09F08AC06F807884762467246B
:1030F00076242AEFC22EDD24DA946114710409F4D7
:103100007DC0D12CC12C8D819E819827892798273D
:10311000C816D906F8F441E050E0BE01635F7F4F66
:10312000C8010E94DF154D85442331F050E070E066
:1031300060E0C8010E94DF158D858111ECCF44E06D
:1031400050E070E060E0C8010E94DF15FFEFCF1A89
:10315000DF0AD9CF912C812C41E050E0BE016D5E99
:103160007F4FC8010E94DF154B89842F807C09F0B6
:103170006CC0442331F050E070E060E0C8010E9470
:10318000DF158B898111E8CF42E050E0BE01615F1D
:103190007F4FC8010E94DF1542E050E0BE01635F2F
:1031A0007F4FC8010E94DF1544E050E070E060E00E
:1031B000C8010E94DF1542E050E0BE016F5E7F4F04
:1031C000C8010E94DF158F85988949895A89811520
:1031D000914009F043C0CD84DE84DC24CD24DC247E
:1031E00081E0C816D104D1F54115544009F04AC018
:1031F00044E050E0B201C8010E94DF1521E0A21AAC
:10320000B10809F46CCEFFEFCF16DF0609F067CEE8
:103210000E9411043B014C01C8010E949F16181620
:1032200019060CF421CF0E94110466197709880948
:103230009909693873418105910548F562E370E0A9
:1032400080E090E00E94DF03E7CF41E050E070E0D3
:1032500060E0C8010E94DF151B8A93CF54274527E1
:10326000542770E060E0C8010E94DF15FFEF8F1A5D
:103270009F0A6814790409F06FCF96EFC92EDD24F8
:10328000DA94BCCFE7EFCE2EDD24DA94B7CFCC248E
:10329000CA94DC2CB3CF6EEFC62EDD24DA94AECF09
:1032A0004CEFC42EDD24DA94A9CF8EEFC82EDD2496
:1032B000DA9430CED12CC12C2DCECF92DF92EF926A
:1032C000FF920F931F93CF93DF93CDB7DEB7AF97E6
:1032D0000FB6F894DEBF0FBECDBF7C016A010FEAC6
:1032E00011E01A8309831C861B8688EE93E0A0E018
:1032F000B0E08D879E87AF87B88B83E291E09A8795
:103300008987188F0F8B198E1A8E1B8E1C8E84E066
:1033100089A31BA70AA71CA61DA61EA61FA68091EF
:10332000F9049091FA04A091FB04B091FC048EA3DF
:103330009FA3A8A7B9A78B839C83AD83BE83188660
:103340001F82AE01465D5F4FCE0101960E94FD16C1
:1033500081309105B1F4D701ED91FC910488F58994
:10336000E02D1DA30CA38CA59DA5AEA5BFA58EA386
:103370009FA3A8A7B9A7A601BE016C5D7F4FC70197
:103380000995AF960FB6F894DEBF0FBECDBFDF91A3
:10339000CF911F910F91FF90EF90DF90CF90089504
:1033A000CF92DF92EF92FF920F931F93CF93DF9311
:1033B000CDB7DEB7AF970FB6F894DEBF0FBECDBF67
:1033C0008C016B017A018FEA91E09A8389831B82D9
:1033D0001C821D821E821C861B8648EE53E060E024
:1033E00070E04D875E876F87788B23E231E03A8704
:1033F0002987988F8F8B198E1A8E1B8E1C8E24E036
:1034000029A39BA78AA71CA61DA61EA61FA6D80196
:103410001C968C91843060F40E94CB0D882321F09F
:10342000F80184850E94A60D84E0D8011C968C9337
:103430008091F9049091FA04A091FB04B091FC04EE
:103440008EA39FA3A8A7B9A78B839C83AD83BE83BC
:1034500018861F82AE01465D5F4FB601CE01019610
:103460000E94FD160097C1F0D801ED91FC910684F1
:10347000F785E02D8FEA91E09DA38CA38CA59DA5F7
:10348000AEA5BFA58EA39FA3A8A7B9A7A701BE01FC
:103490006C5D7F4FC8010995AF960FB6F894DEBFFB
:1034A0000FBECDBFDF91CF911F910F91FF90EF9095
:1034B000DF90CF900895EF92FF920F931F93CF93D9
:1034C000DF9300D000D0CDB7DEB78C017B01FB01CC
:1034D00084858430A8F08FEA91E0F801918380839D
:1034E0001282138214821582C8010F900F900F90E0
:1034F0000F90DF91CF911F910F91FF90EF90089562
:1035000080E591E00E94F90024E030E0AE014F5FD9
:103510005F4F6CE070E0F70184850E94AE108FEA87
:1035200091E0F8019183808389819A81AB81BC818C
:1035300082839383A483B583D7CF1F920F920FB654
:103540000F9211242F933F934F935F936F937F9329
:103550008F939F93AF93BF93EF93FF938091B900A5
:10356000887F803609F44AC0F0F5883209F4A7C094
:1035700018F5803109F49BC0B8F4882309F4F9C028
:10358000883009F494C0FF91EF91BF91AF919F9162
:103590008F917F916F915F914F913F912F910F90FC
:1035A0000FBE0F901F901895883109F488C08032A3
:1035B00051F78093040414C0803409F49DC040F492
:1035C0008033B9F38833F9F68093040485ECB0C0F6
:1035D000803509F485C0883509F496C0883499F699
:1035E0000E94430AD0CF883909F48CC038F5883757
:1035F00029F050F4883611F0803729F683E0809363
:1036000006041092BC0357C0883809F47BC0803987
:1036100019F0803809F0B7CF8091BC03803208F0F0
:1036200071C0E091BC0381E08E0F8093BC03809158
:10363000BB00F0E0E456FC4F80833DC0803B39F096
:10364000E0F4803A09F479C0883A09F09CCF84E02C
:10365000809306041092990310929803E0919603C8
:10366000F091970309958091980381110FC081E033
:10367000809398031092760309C0803C09F4A6CF8A
:10368000883C09F4A3CF883B09F07DCFE0919903F2
:1036900081E08E0F80939903F0E0EA58FC4F80811F
:1036A0008093BB00909199038091980329C08091E9
:1036B000E1038093BB0085EC8093BC0064CF9091C4
:1036C000030480910204981758F5E091030481E007
:1036D0008E0F80930304F0E0EE51FC4F8081E9CF20
:1036E000E091030481E08E0F809303048091BB007E
:1036F000F0E0EE51FC4F808390910304809102042E
:103700009817C8F285E8D8CFE091030481E08E0FC6
:10371000809303048091BB00F0E0EE51FC4F808366
:103720008091050481115CCF81E08093E00384EAFD
:103730008093BC001092060426CF85EC8093BC00D9
:10374000109206048091BC03803230F4E091BC03F7
:10375000F0E0E456FC4F10826091BC0370E0E09111
:103760009A03F0919B038CE993E009951092BC03B6
:103770000ACF1092040434CF1F920F920FB60F920B
:1037800011242F933F938F939F93AF93BF93809177
:103790004B0390914C03A0914D03B0914E03309197
:1037A0004A0323E0230F2D3758F50196A11DB11DC3
:1037B00020934A0380934B0390934C03A0934D03B3
:1037C000B0934E0380914F0390915003A091510309
:1037D000B09152030196A11DB11D80934F039093A8
:1037E0005003A0935103B0935203BF91AF919F91A7
:1037F0008F913F912F910F900FBE0F901F901895B2
:1038000026E8230F0296A11DB11DD2CF1F920F9261
:103810000FB60F9211242F933F934F935F936F93A3
:103820007F938F939F93AF93BF93EF93FF93E09119
:103830000201F09103010995FF91EF91BF91AF91C2
:103840009F918F917F916F915F914F913F912F91B8
:103850000F900FBE0F901F9018951F920F920FB6EA
:103860000F9211242F933F934F935F936F937F9306
:103870008F939F93AF93BF93EF93FF93E0910001DA
:10388000F09101010995FF91EF91BF91AF919F9147
:103890008F917F916F915F914F913F912F910F90F9
:1038A0000FBE0F901F9018951F920F920FB60F9298
:1038B00011242F933F934F935F936F937F938F9335
:1038C0009F93AF93BF93EF93FF9380E394E00E94A5
:1038D0009D06FF91EF91BF91AF919F918F917F9145
:1038E0006F915F914F913F912F910F900FBE0F906D
:1038F0001F9018951F920F920FB60F9211242F93BD
:103900008F939F93EF93FF93E0914004F0914104D4
:103910008081E0914604F091470482FD1BC09081B4
:10392000809149048F5F8F7320914A04821741F080
:10393000E0914904F0E0E05DFB4F958F80934904EE
:10394000FF91EF919F918F912F910F900FBE0F904C
:103950001F9018958081F4CFCF93DF93A9E0B5E055
:1039600013961C921E92129748EE53E060E070E0AE
:1039700014964D935D936D937C9317978DE491E02E
:1039800011969C938E93E0E3F4E0138212824483B9
:103990005583668377838FE591E09183808385ECFF
:1039A00090E09587848784EC90E09787868780EC09
:1039B00090E0918B808B81EC90E0938B828B82ECFA
:1039C00090E0958B848B86EC90E0978B868B118EA4
:1039D000128E138E148EEDECF4E08FEA91E0918359
:1039E00080831282138214821582E3EDF4E09183C6
:1039F00080831282138214821582E9EDF4E09183B0
:103A000080831282138214821582EFEDF4E0918399
:103A100080831282138214821582E5EEF4E0918392
:103A200080831282138214821582EBEEF4E091837C
:103A300080831282138214821582E1EFF4E0918375
:103A400080831282138214821582EDEFF4E0918359
:103A500080831282138214821582E7EFF4E091834F
:103A600080831282138214821582E3E0F5E0918351
:103A700080831282138214821582E2E8F5E091833A
:103A800080831282138214821582E9E5F5E022E137
:103A900030E03287218723E130E03487238717869F
:103AA00022E0208B128A118A138A148A158A168AB8
:103AB000178A108E118E128E138E148E158E168EFE
:103AC000178E10A211A213A212A22AE030E035A391
:103AD00024A32BE426A321EE27A310A6B687A5874F
:103AE00020E22087E3E5F5E0918380833AE03283AA
:103AF0002EE623831482A5E0A583EDE4F5E091830F
:103B0000808332832383148223E02583EEE3F5E070
:103B10001382128244835583668377832DE731E0D5
:103B20003183208328E0248728EE33E036872587F9
:103B3000C5E1D5E01B821A8221E731E03983288371
:103B40009C8F8B8F1D8E1E8E1F8E18A28FEF9FEF66
:103B500098A78FA3FD83EC831EA21DA280E091E0B5
:103B60000E9470239F838E8380E091E099878887ED
:103B70008FE090E09B878A879D878C87DF91CF912C
:103B80000895CF93DF93CDB7DEB729970FB6F8949A
:103B9000DEBF0FBECDBF789484B5826084BD84B58E
:103BA000816084BD85B5826085BD85B5816085BD38
:103BB00080916E00816080936E00109281008091F0
:103BC0008100826080938100809181008160809378
:103BD0008100809180008160809380008091B1009D
:103BE00084608093B1008091B00081608093B000C8
:103BF00080917A00846080937A0080917A0082605C
:103C000080937A0080917A00816080937A0080911D
:103C10007A00806880937A001092C100E09140049D
:103C2000F091410482E08083E0913C04F0913D04F6
:103C30001082E0913E04F0913F0480E18083109275
:103C40004804E0914404F091450486E08083E091CB
:103C50004204F0914304808180618083E0914204BA
:103C6000F0914304808188608083E0914204F09168
:103C70004304808180688083E0914204F091430492
:103C800080818F7D80830FEA11E01A830983809100
:103C9000550590915605A0915705B09158058B8315
:103CA0009C83AD83BE83CE0101960E948C0E6CED89
:103CB00075E080E090E00E94DF031A830983809121
:103CC0004F0590915005A0915105B09152058B83FD
:103CD0009C83AD83BE83CE0101960E94E20089EBF6
:103CE0009BE090932F0580932E0580E00E94710940
:103CF00081E00E94710982E00E94710983E00E94C4
:103D0000710984E00E94710985E00E94710986E0D2
:103D10000E94710987E00E94710984E08093810507
:103D2000109274031092730310920D0410922F04DA
:103D30000E94FB0188E291E09093970380939603A1
:103D400089E291E090939B0380939A0380916C05A4
:103D500020916E05811102C0222339F18091660500
:103D6000909167053091610541E040930C043093D8
:103D70002E0460916D05622B60937205DC01ED915C
:103D8000FC910190F081E02D099590916D05809155
:103D90006F05892B80937305809371059093780547
:103DA00081E00E94900280938105809168058823BC
:103DB000D9F062E0809169050E943A0280916A051B
:103DC00090916B0520916905223009F4FEC02330E3
:103DD00059F4909303018093020180916900837FDD
:103DE000886080936900E99A0E94110460937405C9
:103DF00070937505809376059093770561E080E078
:103E00000E94800361E081E00E94800361E082E023
:103E10000E94800361E083E00E94800361E084E00F
:103E20000E94800361E085E00E94800361E086E0FB
:103E30000E94800361E087E00E948003CC24C39449
:103E4000D12C0E94110460367A4E8105910518F03C
:103E5000F0E0E0E009950E94110400914603109102
:103E600047032091480330914903601B710B820B7B
:103E7000930B693C71058105910508F4FBC10E9413
:103E80001104609346037093470380934803909313
:103E900049030E94AA0081119BC1E2EC7E2EFCEF37
:103EA000EF2EFF24FA940E94AA00811191C16DE8BF
:103EB00072E080E394E00E94C20A0E94AA0081118D
:103EC00070C18091190590911A05DC01ED91FC916A
:103ED0000688F789E02D0995882309F482C0D092DD
:103EE0002405C092230587E0E8E1F1E0DE011196A8
:103EF00001900D928A95E1F7DE01119685E090E040
:103F00002D91E0911B05F0911C05E80FF91F20830E
:103F100001968C309105A1F700911B0510911C05AD
:103F2000D8011C967C921C97809120051D968C933D
:103F30001D9780911F051E968C93A0901D05B09033
:103F40001E05B50184EB92E00E94EC224196A81672
:103F5000B90608F07FC08091190590911A05DC011F
:103F6000ED91FC910488F589E02D099562EE72E0EF
:103F700080E394E00E94C20A80903C0590903D0549
:103F8000092C000CAA08BB082AE0B501A401B7FE61
:103F90000DC06DE280E394E00E94BF0644275527E0
:103FA000BA01481959096A097B092AE080E394E0BB
:103FB0000E94D10A8EEE92E00E94670B68E873E1DE
:103FC00080E090E00E94DF036ECF90930101809328
:103FD0000001809169008C7F826080936900E89A7B
:103FE00003CF609136057091370580911905909146
:103FF0001A05DC01ED91FC9140913805509139058D
:104000006115710571F00088F189E02D099501971E
:1040100009F465CFEEEFFFEFF0933D05E0933C052B
:10402000A5CF0684F785E02D7FEA472E71E0572E55
:104030005A8249820091320510913305209134054E
:10404000309135050B831C832D833E83BE016F5F4A
:104050007F4FDCCF4FE050E0B80184EB92E00E944C
:1040600088008C01A0901D05B0901E05B50182EC62
:1040700092E00E94EC22800F911F0296A816B906CA
:1040800008F469CF60911B0570911C05A80182ECB2
:1040900092E00E9488008C01A0901D05B0901E0542
:1040A000B50189EC92E00E94EC22800F911F0296EC
:1040B000A816B90608F44FCF60911B0570911C0536
:1040C000A80189EC92E00E948800AC01455051099A
:1040D00060911B0570911C0580E10E941D040E94E7
:1040E000110460932505709326058093270590930E
:1040F00028056093290570932A0580932B059093DA
:104100002C058091190590911A05DC01ED91FC9127
:104110000084F185E02D0995892B11F50E94110489
:104120000091290510912A0520912B0530912C052D
:104130004B015C01801A910AA20AB30A2091210561
:1041400030912205A8EEB3E00E945B238616970605
:10415000A806B906B0F2F0923D05E0923C05FBCE10
:10416000CE0108960E94CB0464307105810591054B
:1041700009F0F1CEE0911B05F0911C0583818111BE
:1041800021C00E9411046093290570932A05809331
:104190002B0590932C0510922D0510923D05109241
:1041A0003C0588ED92E00E94670B85ED91E00E944E
:1041B000F0098AE292E00E94F00980E592E00E9414
:1041C000F00971CE90E090933D0580933C05C3CEFD
:1041D0000E94AA00882309F44DC00E9411044B01DB
:1041E0005C0120911F0530912005A8EEB3E00E94EC
:1041F0005B230091290510912A0520912B05309110
:104200002C0524013501401A510A620A730A9301F0
:1042100082016017710782079307B0F000912505AE
:10422000109126052091270530912805240135019C
:10423000401A510A620A730A9301820160177107DA
:104240008207930708F0D7C080912D05882309F4D1
:10425000A3C08CEF9FEF90933D0580933C05809128
:10426000190590911A05DC01ED91FC910488F589FE
:10427000E02D09950E94110400914203109143031F
:104280002091440330914503601B710B820B930B0B
:10429000693E73408105910590F0809140039091B3
:1042A0004103019761F461E080E00E9480038EE0A9
:1042B00093E00E94670B10924103109240030E940A
:1042C000110400913C0310913D0320913E03309175
:1042D0003F03601B710B820B930B693E734081059A
:1042E000910590F080913A0390913B03019761F41E
:1042F00061E081E00E9480038AE193E00E94670B05
:1043000010923B0310923A030E941104009136036D
:10431000109137032091380330913903601B710BE2
:10432000820B930B693E73408105910590F080915B
:10433000340390913503019761F461E082E00E94BB
:10434000800386E293E00E94670B1092350310927F
:1043500034038091320390913303892B81F4D092FE
:104360003303C092320385ED91E00E9496098AE200
:1043700092E00E94960980E592E00E94960980E012
:1043800090E0892B09F45DCD0E948906882309F409
:1043900058CD0E94000055CDE0911B05F0911C0501
:1043A00080EC8083E0911B05F0911C0511828091C7
:1043B000190590911A0560911B0570911C05DC018F
:1043C000ED91FC910280F381E02D42E050E00995EF
:1043D0008092250590922605A0922705B092280587
:1043E0008092290590922A05A0922B05B0922C0567
:1043F00081E080932D058091190590911A05DC01CB
:10440000ED91FC910084F185E02D0995892B09F44B
:1044100031CFCE0101960E94CB042B01672B09F40A
:10442000D2C08092290590922A05A0922B05B092C5
:104430002C05E0911B05F0911C058081807F803365
:1044400009F0A0C080912E0590912F05892B09F4C9
:1044500011CF498150E0CA0102968E0F9F1FDF01E4
:10446000A40FB51F11960C9110E0102F0027DC014E
:104470006C91060F111D4D5F5F4FBF01640F751FDB
:10448000A8010E945B25E98180911B0590911C0584
:10449000800F911FE80FF92FF11D1282E0911B058B
:1044A000F0911C05298130E0C90102968E0F9F1FF3
:1044B00040814670498720902E0530902F0542306C
:1044C00009F04EC0B801620F731FDF01A60FB71FBE
:1044D0001396EC901397F12CFE2CEE2414964C912D
:1044E000E40EF11C4BEF5FEF421B530B401B510BD3
:1044F000440D551D6B5F7F4F6E0F7F1FF1010995B6
:10450000E0911B05F0911C0580E48083E0911B0580
:10451000F0911C0549844182E0911B05F0911C0536
:10452000F282E0911B05F0911C05E3828091190550
:1045300090911A0560911B0570911C05DC01ED91AD
:10454000FC910280F381E02D44E050E009958092D7
:10455000250590922605A0922705B09228058ACEBF
:104560004DEF5FEF421B530B401B510B440D551D8C
:104570002D5F3F4F200F311FBF01620F731FF101ED
:10458000099578CE803CC9F480ED8083E0911B05CD
:10459000F0911C0511828091190590911A05609186
:1045A0001B0570911C05DC01ED91FC910280F381EB
:1045B000E02D42E050E009955DCE803D09F05ACEF5
:1045C00010922D0557CE0E94AA0054CE80911B0553
:1045D00090911C050C940C24FC01615070400190DA
:1045E0000110D8F7809590958E0F9F1F08950E9417
:1045F0005B23A59F900DB49F900DA49F800D911DEE
:10460000112408952F923F924F925F926F927F9262
:104610008F929F92AF92BF92CF92DF92EF92FF92D2
:104620000F931F93CF93DF93CDB7DEB7CA1BDB0B7E
:104630000FB6F894DEBF0FBECDBF09942A88398823
:1046400048885F846E847D848C849B84AA84B9842A
:10465000C884DF80EE80FD800C811B81AA81B98136
:10466000CE0FD11D0FB6F894DEBF0FBECDBFED014A
:104670000895A1E21A2EAA1BBB1BFD010DC0AA1FA3
:10468000BB1FEE1FFF1FA217B307E407F50720F0BB
:10469000A21BB30BE40BF50B661F771F881F991F36
:1046A0001A9469F760957095809590959B01AC017F
:1046B000BD01CF010895A29FB001B39FC001A39F88
:1046C000700D811D1124911DB29F700D811D11244B
:1046D000911D0895EE0FFF1F0590F491E02D0994B0
:1046E0000F931F93CF93DF938230910510F482E0F4
:1046F00090E0E0918A05F0918B0530E020E0B0E099
:10470000A0E0309799F42115310509F44AC0281B1F
:10471000390B24303105D8F58A819B8161157105EB
:1047200089F1FB0193838283FE0111C04081518195
:104730000281138148175907E0F04817590799F487
:10474000109761F012960C93129713961C93329661
:10475000CF01DF91CF911F910F91089500938A05AA
:1047600010938B05F4CF2115310551F042175307F3
:1047700038F0A901DB019A01BD01DF01F801C1CFC9
:10478000EF01F9CF90938B0580938A05CDCFFE0181
:10479000E20FF31F819391932250310939832883CB
:1047A000D7CF2091880530918905232B41F42091A2
:1047B0000E0130910F0130938905209388052091D7
:1047C0000C0130910D012115310541F42DB73EB793
:1047D0004091100150911101241B350BE091880587
:1047E000F0918905E217F307A0F42E1B3F0B281761
:1047F000390778F0AC014E5F5F4F2417350748F05A
:104800004E0F5F1F509389054093880581939193C4
:104810009FCFF0E0E0E09CCFCF93DF930097E9F0EB
:10482000FC01329713821282A0918A05B0918B0508
:10483000ED0130E020E01097A1F420813181820F5A
:10484000931F20918805309189052817390709F0B1
:1048500061C0F0938905E0938805DF91CF910895B9
:10486000EA01CE17DF07E8F54A815B819E01411519
:104870005105B1F7E901FB83EA8349915991C40FCE
:10488000D51FEC17FD0761F4808191810296840F9A
:10489000951FE90199838883828193819B838A8311
:1048A000F0E0E0E012968D919C9113970097B9F596
:1048B0002D913C911197CD010296820F931F20916B
:1048C0008805309189052817390739F6309751F551
:1048D00010928B0510928A05B0938905A0938805E4
:1048E000BCCFD383C28340815181840F951FC817E9
:1048F000D90761F44E5F5F4F88819981480F591F36
:10490000518340838A819B81938382832115310562
:1049100009F0B0CFF0938B05E0938A059ECFFD019F
:10492000DC01C0CF13821282D7CFB0E0A0E0EBE968
:10493000F4E20C9404238C01009751F4CB010E9403
:1049400070238C01C801CDB7DEB7E0E10C942023C1
:10495000FC01E60FF71F9C0122503109E217F30713
:1049600008F49DC0D901CD91DC911197C617D707E6
:1049700098F0C530D10530F3CE010497861797071C
:1049800008F3C61BD70B2297C193D1936D937C93E9
:10499000CF010E940C24D6CF5B01AC1ABD0A4C019A
:1049A0008C0E9D1EA0918A05B0918B05512C412C37
:1049B000F12CE12C109731F58091880590918905B3
:1049C0008815990509F05CC04616570608F058C0CE
:1049D00080910C0190910D01009741F48DB79EB725
:1049E0004091100150911101841B950BE817F907B4
:1049F00008F055C0F0938905E0938805F9017183AB
:104A00006083A0CF8D919C91119712966C90129714
:104A100013967C901397A815B90559F56C0142E0DF
:104A2000C40ED11CCA14DB0420F1AC014A195B0985
:104A3000DA011296159780F0628273825183408367
:104A4000D9016D937C93E114F10471F0D7011396B1
:104A5000FC93EE93129776CF22968C0F9D1FF9014F
:104A600091838083F301EFCFF0938B05E0938A0568
:104A700069CF4816590608F42C017D01D3019ACF5D
:104A8000CB010E9470237C01009749F0AE01B80170
:104A90000E945225C8010E940C24870153CF10E0C8
:104AA00000E050CFFB01DC0102C001900D924150AB
:104AB0005040D8F708956817790768F4FB01DC01C6
:104AC000E40FF51FA40FB51F02C002900E924150D3
:104AD0005040D8F708950C945225DC0101C06D9325
:104AE00041505040E0F70895FB01DC018D910190A9
:104AF00080190110D9F3990B0895FB01DC01019095
:104B00000D920020E1F7089510E0CDE5D0E004C05B
:104B1000FE010E946A232196CE35D107C9F7F89489
:024B2000FFCFC5
:104B22001E061E0600C0DEADBEEF000100008C05B1
:104B3200800001005E00000000044D515454040046
:104B42000000008B080A1452090001FC00FE1585C2
:104B520010FA129511BE0DC3085D19320E9F16DFB1
:104B62001512090209FE08FA08000000008001532C
:104B720001520900014C0139012A0100000000BF65
:104B8200061F064C060C077D065B066F060000003A
:104B920000390919095209510900000000AC084402
:104BA200140114EC130615281694107812D0194229
:104BB20016F90DD70D68097009C00A65096309A1C4
:104BC20008590975165B1A4B165509000000001D9D
:104BD2000B6F6E6C696E65000D0A004E6163687240
:104BE2006963687420656D7066616E67656E205BCF
:104BF200005D3A20005765726B746F722F4B300064
:104C02006175660052656C616973204B30202D3EE0
:104C120020546F722041554620496D70756C7300A7
:104C22007A750052656C616973204B30202D3E20ED
:104C3200546F72204155462052656C616973206140
:104C420062736368616C74656E005765726B746F32
:104C5200722F4B310052656C616973204B31202DEC
:104C62003E20546F72205A5520496D70756C730046
:104C72005765726B746F722F4B3200746F67676C7B
:104C82006541554600546F6F676C6520496D7075BC
:104C92006C73205374726F6D73746F737372656C7F
:104CA20061697300746F67676C655A550056657267
:104CB20062696E64756E67207A756D204D51545429
:104CC2002D53657276657220617566626175656ED7
:104CD2002E2E2E005765726B746F72436C69656E6F
:104CE200740068697465736800524F39555A377792
:104CF200414E43587A6D790076657262756E6465CD
:104D02006E004665686C65722C2072633D002065FA
:104D1200726E6575742076657273756368656E2050
:104D2200696E20352053656B756E64656E00503078
:104D32002F4B30202D204155530050312F4B312025
:104D42002D204155530050322F4B32202D204155FA
:024D520053000C
:00000001FF
