:100000000C945E000C94A41C0C947D1C0C94860033
:100010000C9486000C9486000C9486000C94860048
:100020000C9486000C9486000C9486000C94860038
:100030000C9486000C9486000C9486000C94860028
:100040000C94331C0C9486000C94F11C0C94CB1C67
:100050000C9486000C9486000C9486000C94860008
:100060000C94141B0C948600000000080002010090
:100070000003040700000000000000000000000072
:10008000250028002B0000000000240027002A0083
:10009000010204081020408001020408102001021F
:1000A00004081020040404040404040402020202EC
:1000B0000202030303030303231DDE2211241FBED8
:1000C000CFEFD8E0DEBFCDBF14E0A0E0B1E0E2E1C9
:1000D000FBE402C005900D92AC38B107D9F726E0D9
:1000E000ACE8B4E001C01D92A23DB207E1F710E018
:1000F000CDE5D0E004C02197FE010E946223CC35FB
:10010000D107C9F70E94381E0C947C250C9400007E
:10011000CF93DF93EBE5F6E0EC018A819B81AC8124
:10012000BD81858F968FA78FB0A38BE597E094A3B1
:1001300083A312A211A2CF01DF91CF9108958CBDAC
:100140009DBD0895CF93DF93EC01FA013296E60F3F
:10015000F71FDC019D012C1B3D0BCF01861B970B6C
:100160004D91442311F04193F5CFAC01421B530B49
:10017000640F751FFB013297308361507109FB01D9
:100180002083DF91CF91089580915F069091600662
:10019000009711F480E02FC0DC01ED91FC910688FE
:1001A000F789E02D0995209182063091830681110F
:1001B0001FC0232B79F78DEF9FEF909383068093D9
:1001C000820680915F0690916006DC01ED91FC91C2
:1001D0000680F781E02D099580915F069091600679
:1001E000DC01ED91FC910488F589E02D0995D2CFD1
:1001F00081E0232B79F60895FC01818D928D08957D
:1002000008952091DE04260F3327331F2132310554
:10021000ECF420914C05FC0190E080E0243069F082
:1002200082E00895A091DE042191AC0144545B4F1B
:10023000A40FB52FB11D2C930196861798F38091CA
:10024000DE04680F6093DE0480E0089581E0089585
:1002500008950895E091BA048091B904E81730F444
:10026000F0E0E756FB4F808190E008958FEF9FEF1D
:1002700008959091BA048091B9042FEF3FEF981739
:1002800048F4E92FF0E0E756FB4F208130E09F5F14
:100290009093BA04C90108958091B9049091BA0469
:1002A000891B990B0895CF92DF92EF92FF920F93E3
:1002B0001F93CF93DF937C01CB018A0120915205DC
:1002C000222389F0EB016B01C40ED51ECC15DD0590
:1002D00069F06991D701ED91FC910190F081E02DD9
:1002E000C7010995F3CF642F0E940101C801DF9176
:1002F000CF911F910F91FF90EF90DF90CF900895D5
:10030000CF93DF931F92CDB7DEB76983209152055B
:100310002223F9F020917505203258F021E030E0D9
:10032000FC013383228390E080E00F90DF91CF9136
:10033000089580915305E82FF0E0EC5AFA4F998127
:1003400090838F5F809353058093750581E090E0E3
:10035000ECCF61E0CE0101960E940101F7CF90E061
:10036000FC01E859FF4F2491FC01E057FF4F349105
:10037000FC01EC55FF4FE491EE23C9F0222339F044
:10038000233001F1A8F4213019F1223029F1F0E0F5
:10039000EE0FFF1FE458FF4FA591B4918FB7F8946B
:1003A000EC91611126C030953E233C938FBF089598
:1003B0002730A9F02830C9F0243049F78091800017
:1003C0008F7D03C0809180008F7780938000DFCF86
:1003D00084B58F7784BDDBCF84B58F7DFBCF8091D3
:1003E000B0008F778093B000D2CF8091B0008F7D26
:1003F000F9CF3E2BDACF10924C0581E080934B056C
:100400001092260561E082E10E94AF0161E083E184
:100410000E94AF01E9EBF0E080818E7F80838081D4
:100420008D7F808388E48093B80085E48093BC004E
:100430000895CF93DF9391E09093BB048823B9F0A4
:10044000C091B800D091BA008091BC008A7B8093A3
:10045000BC0060E082E10E94AF0160E083E10E94A5
:10046000AF010E94FB01D093BA00C093B800DF91A6
:10047000CF910895CF93DF9390E0FC01E057FF4FB9
:1004800024918C559F4FFC0184918823D1F090E0FA
:10049000880F991FFC01EA57FF4FA591B491FC0109
:1004A000E458FF4FC591D491623071F49FB7F8942E
:1004B0003C91822F809583238C93E8812E2B288377
:1004C0009FBFDF91CF9108958FB7F894EC912E2BB9
:1004D0002C938FBFF6CF3FB7F894809195049091FD
:1004E0009604A0919704B091980426B5A89B05C0E6
:1004F0002F3F19F00196A11DB11D3FBFBA2FA92FA3
:10050000982F8827BC01CD01620F711D811D911D9F
:1005100042E0660F771F881F991F4A95D1F708950B
:100520008F929F92AF92BF92CF92DF92EF92FF9203
:100530000F931F93CF93DF93D0917505D13208F0BD
:10054000D7C0182FC09174050E946B026B017C010B
:1005500080914C0581116BC082E080934C05109313
:100560004B058FEF80934A0510924905D0934805BB
:10057000A4E5B5E0E8E2F5E080E0D81391C0109280
:10058000270580912705CC0FC82BC09327058091A4
:100590002605813009F088C0109226050E946B0262
:1005A0006B017C01809127058093BB0080914E05F3
:1005B00090914F05A0915005B0915105892B8A2B40
:1005C0008B2BA1F00E946B0200914E0510914F05FC
:1005D00020915005309151056C197D098E099F09B4
:1005E000061717072807390708F442C08091BC0096
:1005F00083FDD8CF85EC8093BC000E946B026B0119
:100600007C0180914C05823009F450C080914A05EC
:100610008F3F09F46FC080914A05803209F46CC0A5
:1006200080914A05803309F469C084E026C0809136
:100630004E0590914F05A0915005B0915105892B21
:100640008A2B8B2B09F484CF0E946B0280904E057D
:1006500090904F05A0905005B09051056C197D0900
:100660008E099F0986169706A806B90608F070CF6E
:1006700080914D050E94190285E010925305109259
:10068000750510925205DF91CF911F910F91FF9048
:10069000EF90DF90CF90BF90AF909F908F90089594
:1006A0009D9191938F5F69CF85EEA5CF80914E0587
:1006B00090914F05A0915005B0915105892B8A2B3F
:1006C0008B2B09F49ECF0E946B0200914E05109176
:1006D0004F0520915005309151056C197D098E0907
:1006E0009F09061717072807390708F08ACFC0CFD8
:1006F00081E0C3CF80E0C1CF82E0BFCF83E0BDCF38
:10070000EF92FF920F931F93CF93DF93362FC091F9
:10071000AC06D091AD069091A70621E0209352053A
:100720009093740510925305109275052091BE06A2
:1007300041E050E060E070E07A018B0104C0EE0C13
:10074000FF1C001F111F8A95D2F7C7013130A1F598
:10075000822B8093BE066091BE068091B20668230C
:100760008091B8069091B4068923682B6093B706F0
:10077000E881F9810190F081E02DCE010995809109
:10078000BE069091B20689239091B9062091B406D5
:100790009223892B8093B70681E00E949002982FC4
:1007A0008093C70681E0911180E0DF91CF911F9186
:1007B0000F91FF90EF90089580958223CACF8F927A
:1007C0009F92AF92BF92CF92DF92EF92FF924B0136
:1007D0005C010E946B026B017C010E946B026C1930
:1007E0007D098E099F09683E734081059105A8F334
:1007F00021E0821A9108A108B10888EEC80E83E0B2
:10080000D81EE11CF11C81149104A104B10429F744
:10081000FF90EF90DF90CF90BF90AF909F908F9020
:1008200008952FB7F894609191047091920480918B
:100830009304909194042FBF0895EF92FF920F9329
:100840001F93CF93DF9300D000D0CDB7DEB7FA016E
:1008500020E08E010F5F1F4F9E2F9F77EE0FEF2F2F
:10086000EE1FFF0BF195309709F09068D801A20FA9
:10087000B11D9C932F5F309779F730E0FB01E21BAD
:10088000F30B8483FB01E21BF30B3596D801CD01FA
:10089000801B910B821793071CF48D918193F7CFE6
:1008A0002F5F3F4F80915F06909160068901040F92
:1008B000151F621B730B6B5F7F4FDC01ED91FC9189
:1008C0000280F381E02DA80109957C010E941104AA
:1008D00060936B0670936C0680936D0690936E0622
:1008E00081E00E151F0509F080E00F900F900F902A
:1008F0000F90DF91CF911F910F91FF90EF9008958E
:100900008F929F92AF92BF92CF92DF92EF92FF921F
:10091000CF93DF93EC010E9411044B015C018091A5
:100920005F0690916006DC01ED91FC910084F185F9
:10093000E02D0995892BB9F40E9411046B017C010B
:10094000C818D908EA08FB082091670630916806A4
:10095000A8EEB3E00E945323C616D706E806F906B0
:10096000F0F280E00DC080915F0690916006DC019E
:10097000ED91FC910284F385E02D0995888381E057
:10098000DF91CF91FF90EF90DF90CF90BF90AF902D
:100990009F908F9008952F923F924F925F926F9207
:1009A0007F928F929F92AF92BF92CF92DF92EF92FF
:1009B000FF920F931F93CF93DF93CDB7DEB72A97A4
:1009C0000FB6F894DEBF0FBECDBF1C01809161064B
:1009D000909162060E94800481111CC060E070E06A
:1009E000CB012A960FB6F894DEBF0FBECDBFDF91C4
:1009F000CF911F910F91FF90EF90DF90CF90BF901C
:100A0000AF909F908F907F906F905F904F903F90AE
:100A10002F900895E0916106F0916206D0801982CE
:100A2000EE24E394F12C812C912C5401412C512C77
:100A300032014394CE0101960E948004882371F212
:100A400087010F5F1F4F8981E0916106F091620677
:100A5000EE0DFF1D8083E981AE2FAF77B0E0A301DB
:100A600092010E94EF22860E971EA81EB91E37E043
:100A7000440C551C661C771C3A95D1F7E7FD3FC026
:100A8000BD2DB07FBE838FEF800FF1018083B03327
:100A900009F04CC08091610690916206800F911F11
:100AA0000E948004882309F499CF20916106309137
:100AB0006206C7010296820F931F0E94800488235A
:100AC00009F48CCF0E5F1F4FE0916106F091620632
:100AD000D1018C91DF01A80FB11D11968C91119756
:100AE00090E0982F882712962C91820F911D2081DB
:100AF00021FD0296F2E0E0E030E020E01DC0780148
:100B00000530110509F096CF8FEF9FEF9093830684
:100B10008093820680915F0690916006DC01ED91E2
:100B2000FC910488F589E02D099558CFF0E0E0E0CC
:100B300030E020E090E080E070E060E0CF2EDE2E3C
:100B4000E32EF22E28013B014C185D086E087F0849
:100B50004A825B826C827D822C01712C612C4F82D7
:100B6000588669867A864A805B806C807D804C0CD2
:100B70005D1C6E1C7F1CC814D904EA04FB0408F039
:100B800046C0CE0101960E948004882309F426CF36
:100B90008091800690918106009711F12E8120337B
:100BA000F9F4D1012C914EEF5FEF6FEF7FEF421B15
:100BB000510961097109440E551E661E771E2F8169
:100BC000388549855A85241535054605570540F46D
:100BD000DC01ED91FC910190F081E02D6981099596
:100BE00080916306909164060817190750F4898173
:100BF000E0916106F0916206E00FF11F80830F5FC4
:100C00001F4FBFEFCB1ADB0AEB0AFB0AACCF809178
:100C1000800690918106892B69F4809163069091FA
:100C20006406B0E0A0E084159505A605B70510F4AC
:100C300010E000E0B80190E080E0D3CE0895AF92DC
:100C4000BF92CF92DF92EF92FF920F931F93CF93B9
:100C5000DF936C017B018B01040F151FEB015E011B
:100C6000AE18BF08C017D10759F06991D601ED91B0
:100C7000FC910190F081E02DC6010995892B79F74F
:100C8000C501DF91CF911F910F91FF90EF90DF9001
:100C9000CF90BF90AF900895FC01538D448D252FC8
:100CA00030E0842F90E0821B930B541710F0CF9606
:100CB000089501970895FC01918D828D981761F038
:100CC000A28DAE0FBF2FB11D5D968C91928D9F5F4F
:100CD0009F73928F90E008958FEF9FEF0895FC012E
:100CE000918D828D981731F0828DE80FF11D858DE1
:100CF00090E008958FEF9FEF0895FC01918D228D74
:100D0000892F90E0805C9F4F821B91098F739927F8
:100D1000089586E795E00E947D0621E0892B09F47D
:100D200020E0822F089580E090E0892B29F00E9436
:100D3000890681110C9400000895FC01A48DA80F70
:100D4000B92FB11DA35ABF4F2C91848D90E001960D
:100D50008F739927848FA689B7892C93A089B1892D
:100D60008C91837080648C93938D848D981306C0CE
:100D70000288F389E02D80818F7D80830895EF9232
:100D8000FF920F931F93CF93DF93EC0181E0888F45
:100D90009B8D8C8D98131AC0E889F989808185FF15
:100DA00015C09FB7F894EE89FF896083E889F989B7
:100DB00080818370806480839FBF81E090E0DF91B9
:100DC000CF911F910F91FF90EF900895F62E0B8D0C
:100DD00010E00F5F1F4F0F731127E02E8C8D8E11C7
:100DE0000CC00FB607FCFACFE889F989808185FF2E
:100DF000F5CFCE010E949D06F1CFEB8DEC0FFD2FBC
:100E0000F11DE35AFF4FF0829FB7F8940B8FEA89E8
:100E1000FB8980818062CFCFCF93DF93EC01888DF7
:100E20008823B9F0AA89BB89E889F9898C9185FD65
:100E300003C0808186FD0DC00FB607FCF7CF8C91F3
:100E400085FFF2CF808185FFEDCFCE010E949D0608
:100E5000E9CFDF91CF910895FC0120812EBD9B0148
:100E60002150310941F051810DB407FEFDCF4EB53F
:100E70005EBD4193F5CF61507109860F971F0DB488
:100E800007FEFDCF2EB5FC0120830895E0912005DB
:100E9000F0912105808190911F05892B8083089511
:100EA000E0912005F0912105908180911F058095AA
:100EB0008923808308958EBD00000DB407FEFDCF09
:100EC0008EB50895AF92BF92CF92DF92EF92FF92CC
:100ED0000F931F93CF93DF93CDB7DEB728970FB64D
:100EE000F894DEBF0FBECDBF8C017B016A018091FB
:100EF00023058333E1F45801A40EB51EA016B106F4
:100F000009F46FC00E94500780EF0E945B07812F99
:100F10000E945B07802F0E945B070F5F1F4FF70146
:100F200081917F010E945B070E944607E7CF5B012A
:100F3000A40EB51E8433C1F40E94500719830A839E
:100F40008D2D80688B83CC8264E070E0CE010196A9
:100F50000E942C07AE14BF0409F441C0F70181912F
:100F60007F010E945B07F6CF0E9450070F3F1105DB
:100F700009F028F419820A8384E08B830CC017FDE2
:100F800017C019820A8333E0169507953A95E1F761
:100F9000007E0C600B8386E0C816D104A0F5F70133
:100FA000DE011496EA15FB0599F081918D93FACF35
:100FB000C80126E0969587952A95E1F7807E1983EA
:100FC0000A830115104C10F48461D7CF8C61D5CF02
:100FD000B6016D5F7F4FCE0101960E942C070E94E3
:100FE0004607C60128960FB6F894DEBF0FBECDBFE8
:100FF000DF91CF911F910F91FF90EF90DF90CF90F5
:10100000BF90AF90089563E070E0CE0101960E941A
:101010002C07F70181917F010E945B07AE14BF048A
:10102000C1F7DDCFCF93DF931F92CDB7DEB78983B2
:1010300041E050E0BE016F5F7F4F90E080E00E9492
:1010400062070F90DF91CF91089590E020912305E2
:10105000233339F40C96982F990F990F990F80E04C
:1010600008954896F8CFDA01E0912405F0E0FE2FCC
:10107000EE27E60FF71F90E0982F8827A901BD0102
:101080008E0F9F1F0C946207CF93DF9300D0CDB7D4
:10109000DEB779836A8322E030E0AE014F5F5F4FB5
:1010A00060E170E00E9433080F900F90DF91CF91C4
:1010B0000895CF93DF9300D0CDB7DEB779836A83ED
:1010C00022E030E0AE014F5F5F4F64E070E00E94CD
:1010D00033080F900F90DF91CF910895CF93DF9356
:1010E0001F92CDB7DEB72091240530E0322F2227A2
:1010F000260F371F90E0982F8827498341E050E062
:10110000BE016F5F7F4F820F931F0E9462070F9097
:10111000DF91CF910895CF93DF931F92CDB7DEB7C4
:101120006983DC01ED91FC910280F381E02D41E0C7
:1011300050E0BE016F5F7F4F09950F90DF91CF9117
:101140000895FC019485FB018485981303C081E018
:10115000943008F080E00895CF93DF931F92CDB7CD
:10116000DEB76983DC01ED91FC910280F381E02D13
:1011700041E050E0BE016F5F7F4F09950F90DF9116
:10118000CF9108950895FF920F931F93CF93DF930C
:10119000EB01FC01178A168A2A81211109C02B81D3
:1011A000211106C02C81211103C02D81222301F1C0
:1011B00041155105E9F08A01FC01F08C80E591E0D0
:1011C0000E949F00AE014E5F5F4F24E030E06CE074
:1011D00070E08F2D0E943308B8018F2D0E944408C3
:1011E00081E090E0DF91CF911F910F91FF900895E2
:1011F00080E0F7CFFC01848595850895FC01848902
:10120000958908952FEA31E0FC0131832083FB01A9
:101210004089518962897389FC01428353836483C5
:1012200075830895DC01ED91FC91048CF58DE02D22
:101230000994EF92FF920F931F93CF93DF93EC01EA
:101240008B017A010E941104688B798B8A8B9B8BAE
:101250008C819D81DC01ED91FC910280F381E02D78
:10126000A701B801DF91CF911F910F91FF90EF90EF
:1012700009941F93CF93DF93EC01162F0E94110462
:10128000688B798B8A8B9B8B8C819D81DC01ED91A6
:10129000FC910190F081E02D612FDF91CF911F91A2
:1012A0000994089590E080E00895FC0176876587B1
:1012B0000895DC01ED91FC9102A0F3A1E02D0995C8
:1012C00091E089270895862F089581E08627089563
:1012D00021E0FC018485883008F020E0822F089509
:1012E00008950F931F9341E050E060E070E08A01A1
:1012F0009B0104C0000F111F221F331F8A95D2F7D4
:10130000C801EFE9F6E02389282B238B2489282BB9
:10131000248B809595899823958B97899823978B13
:1013200096898923868B1F910F9108950F931F93A0
:10133000CF93DF93EC010091630610916406B8012E
:101340000E94E422099608171907E8F10E94C400D8
:101350008823C9F18091690690916A06019681F10E
:1013600090936A0680936906E0916106F0916206A7
:1013700080916A068583E0916106F0916206809112
:1013800069068683609161067091620647E050E0CD
:10139000CE010E94A200E0916106F0916206E80F82
:1013A000F91F1082AC01445051096091610670919F
:1013B000620682E8DF91CF911F910F910C941D047A
:1013C00081E090E0CDCF80E0DF91CF911F910F9130
:1013D000089585ED8093BC0080914E0590914F0556
:1013E000A0915005B09151050796A11DB11D23E0B4
:1013F000B695A795979587952A95D1F72091BC002A
:1014000024FD03C010924C05089540914E05509163
:101410004F056091500570915105452B462B472B88
:1014200069F30097A105B10541F02AE22A95F1F789
:1014300000C00197A109B109E1CF80914D050C943D
:101440001902FC0124813581232B39F421E0FB01B1
:101450008081882349F020E007C0808191810E942B
:101460006C2521E0892BB9F7822F08950F931F93E4
:10147000CF93DF93EC0188819981009759F02A81FD
:101480003B812617370730F081E0DF91CF911F9124
:101490000F9108958B016F5F7F4F0E948D240097FD
:1014A00059F0998388831B830A832C813D81232BE8
:1014B00059F7FC011082E8CF80E0E7CFFC01808182
:1014C0009181009711F00C94042408950C94042445
:1014D000FB0101900020E9F73197AF01461B570B44
:1014E000DC01ED91FC910280F381E02D09948F9253
:1014F0009F92AF92BF92EF92FF920F931F93CF9361
:10150000DF93CDB7DEB7A1970FB6F894DEBF0FBE5D
:10151000CDBF7C01FA01CB0119A2223008F42AE0E8
:101520008E010F5D1F4F822E912CB12CA12CBF017B
:10153000A50194010E943123F901CA016A300CF51A
:10154000605DD8016E938D01232B242B252B79F719
:1015500090E080E0109721F0BD01C7010E94680A69
:10156000A1960FB6F894DEBF0FBECDBFDF91CF912D
:101570001F910F91FF90EF90BF90AF909F908F9031
:101580000895695CDECF8F929F92AF92BF92CF9207
:10159000DF92EF92FF920F931F93CF93DF937C0123
:1015A000EB016C0182E0C80ED11C4701E5E08E0E14
:1015B000911C10E000E0F60141916F0150E070E0F5
:1015C00060E02AE0CE010E94770A5C01E881F9819F
:1015D0000190F081E02D6EE2CE0109958A0D9B1DF0
:1015E000080F191FC814D90431F7F701458150E0DD
:1015F00070E060E02AE0CE010E94770A800F911F20
:10160000DF91CF911F910F91FF90EF90DF90CF90DE
:10161000BF90AF909F908F900895CF93DF93BC01C0
:1016200086E795E00E94680AEC0161EB71E086E7CD
:1016300095E00E94680A8C0F9D1FDF91CF9108955D
:10164000EF92FF920F931F93CF93DF93EC011982D8
:1016500018821B821A821D821C8261157105E1F0BD
:101660008B01FB0101900020E9F731977F01E61A19
:10167000F70AB7010E94360A28813981811113C007
:101680002115310519F0C9010E940424198218821C
:101690001D821C821B821A82DF91CF911F910F91B4
:1016A000FF90EF900895FD82EC82B801C901DF91AF
:1016B000CF911F910F91FF90EF900C947525AF92F1
:1016C000BF92CF92DF92EF92FF920F931F93CF932F
:1016D000DF93CDB7DEB72C970FB6F894DEBF0FBE01
:1016E000CDBF8C016B015A0164EB71E086E795E098
:1016F0000E94680A0115110529F0B80186E795E0F6
:101700000E94680A6AEC71E086E795E00E94680A28
:1017100063EB71E0CE0107960E94200B7601AC0CC2
:10172000BD1C4B855C85AE14BF04F1F0F7018191BF
:101730007F0189831A826A01FFEFCF1ADF0AB6019F
:10174000CE0107960E94360A882359F32F813885E7
:101750008B859C85BE016F5F7F4F820F931F0E9418
:101760007525DC86CB86DDCF6F81788586E795E0B1
:101770000E941F0661EB71E086E795E00E94680A0F
:10178000B801CE0101960E94200B6EEC71E0CE01F3
:1017900001960E94210AF82ECE0101960E945E0A4F
:1017A000FF2089F06DEE71E0CE0107960E94210ABC
:1017B000882309F412C180EF91E00E940D0B60E0D4
:1017C00080E00E948003B801CE0101960E94200BA8
:1017D00061E272E0CE0101960E94210AF82ECE014C
:1017E00001960E945E0AFF2089F06DEE71E0CE0145
:1017F00007960E94210A882309F4FEC08FE392E035
:101800000E940D0B60E081E00E948003B801CE01D0
:1018100001960E94200B6AE672E0CE0101960E94BA
:10182000210AF82ECE0101960E945E0AFF2089F05F
:101830006DEE71E0CE0107960E94210A882309F41B
:10184000EAC087E892E00E940D0B60E082E00E940F
:101850008003B801CE0101960E94200B6FEA72E06E
:10186000CE0101960E94210AF82ECE0101960E9417
:101870005E0AFF2089F06DEE71E0CE0107960E94AE
:10188000210A882309F4D6C08DEC92E00E940D0B4A
:1018900060E083E00E948003B801CE0101960E94BF
:1018A000200B68EF72E0CE0101960E94210AF82E0B
:1018B000CE0101960E945E0AFF2089F06DEE71E074
:1018C000CE0107960E94210A882309F4C2C084E150
:1018D00093E00E940D0B60E084E00E948003B80159
:1018E000CE0101960E94200B6BE373E0CE010196BE
:1018F0000E94210AF82ECE0101960E945E0AFF2066
:1019000089F06DEE71E0CE0107960E94210A8823CE
:1019100009F4AEC087E593E00E940D0B60E085E01E
:101920000E948003B801CE0101960E94200B6EE751
:1019300073E0CE0101960E94210AF82ECE01019695
:101940000E945E0AFF2089F06DEE71E0CE010796DD
:101950000E94210A882309F49AC08AE993E00E9430
:101960000D0B60E086E00E948003B801CE01019675
:101970000E94200B61EC73E0CE0101960E94210AC7
:10198000182FCE0101960E945E0A112389F06DEE98
:1019900071E0CE0107960E94210A882309F486C0CF
:1019A0008FED93E00E940D0B60E087E00E948003C2
:1019B000CE0107960E945E0A2C960FB6F894DEBF01
:1019C0000FBECDBFDF91CF911F910F91FF90EF9090
:1019D000DF90CF90BF90AF90089566E072E0CE01A7
:1019E00007960E94210A882309F4EDCE8AE092E04E
:1019F0000E940D0B61E0E4CE66E072E0CE01079636
:101A00000E94210A882309F401CF84E592E00E9414
:101A10000D0B61E0F8CE66E072E0CE0107960E9401
:101A2000210A882309F415CF8BE992E00E940D0B5F
:101A300061E00CCF66E072E0CE0107960E94210AB9
:101A4000882309F429CF82EE92E00E940D0B61E019
:101A500020CF66E072E0CE0107960E94210A88231B
:101A600009F43DCF87E293E00E940D0B61E034CF93
:101A700066E072E0CE0107960E94210A882309F4ED
:101A800051CF8AE693E00E940D0B61E048CF66E0FB
:101A900072E0CE0107960E94210A882309F465CFDF
:101AA0008DEA93E00E940D0B61E05CCF66E072E08E
:101AB000CE0107960E94210A882309F479CF84EF8A
:101AC00093E00E940D0B61E070CFAF92BF92CF9276
:101AD000DF92EF92FF920F931F93CF93DF9300D08B
:101AE00000D0CDB7DEB78C016B017A018091230560
:101AF0008333E9F45B016801C40ED51EC016D1061C
:101B0000A9F10E9450078FE00E945B07812F0E947D
:101B10005B07802F0E945B070F5F1F4F80E00E94D2
:101B20005B07F50181935F010E944607E7CF84338D
:101B300069F50E94500719830A838F2D8F778B8355
:101B4000EC8264E070E0CE0101960E942C07A701B0
:101B500070E060E0C6010E946525E114F10421F007
:101B6000B701C6010E942C070E944607C7010F90CB
:101B70000F900F900F90DF91CF911F910F91FF90D9
:101B8000EF90DF90CF90BF90AF9008950E945007E4
:101B90000F3F110509F030F419820A831B8263E0BC
:101BA00070E0D1CF17FD0BC019820A8333E0169580
:101BB00007953A95E1F7007E08600B83F0CFC801E6
:101BC00026E0969587952A95E1F7807E19830A830A
:101BD0000115104C18F480618B83E1CF8861FCCF34
:101BE000CF93DF931F92CDB7DEB72091240530E06D
:101BF000322F2227260F371F90E0982F882741E0A9
:101C000050E0BE016F5F7F4F820F931F0E94650DF2
:101C100089810F90DF91CF910895CF93C82F462FE0
:101C200061E070E00E946E0861E070E08C2F0E941D
:101C3000F00D8111F9CFCF910895CF93C82F80E592
:101C400091E00E949F0068E070E08C2FCF910C948F
:101C50000D0ECF93C82F80E591E00E949F0060E1B8
:101C600070E08C2FCF910C940D0ECF93DF93EC018D
:101C7000888D843020F40E94290E84E0888FDF91C3
:101C8000CF910895CF93C82F80E591E00E949F00E7
:101C900063E070E08C2FCF910C94F00DCF93DF9325
:101CA000EC018C858430D0F40E94420E843189F09E
:101CB000882379F0883169F021E08C3159F4E8818A
:101CC000F9810084F185E02DCE01099521E0892B71
:101CD00009F420E0822FDF91CF91089580E0FBCFBF
:101CE000CF92DF92EF92FF92CF93DF93EC018C853E
:101CF000843068F40E941D0E0E9411046B017C0167
:101D00008C850E94420E811109C084E08C87DF918E
:101D1000CF91FF90EF90DF90CF90089561E070E059
:101D200080E090E00E94DF030E941104AB01BC013F
:101D30004C195D096E097F098D859E85B0E0A0E094
:101D4000481759076A077B07D8F28C850E94290E2D
:101D5000DCCFCF93FC01C08D80E591E00E949F0015
:101D600060E270E08C2F0E940D0E62E070E08C2F1C
:101D70000E94F00D84FD16C062E070E08C2F0E947E
:101D8000F00D83FF0AC048E162E070E08C2F0E94F2
:101D90006E0880E090E0CF91089580E591E00E9488
:101DA0009F00E3CF40E162E070E08C2F0E946E085C
:101DB00081E0F0CFCF93DF931F92CDB7DEB741E044
:101DC00050E0BE016F5F7F4F90E080E00E94650DA4
:101DD00089810F90DF91CF910895CF93DF93C4E174
:101DE000D0E00E94DA0E882361F061E070E080E0CC
:101DF00090E00E94DF032197A1F780E0DF91CF916F
:101E0000089581E0FBCFCF92DF92EF92FF920F9384
:101E10001F93CF93DF93CDB7DEB7C454D1090FB66C
:101E2000F894DEBF0FBECDBFFC0182819381A481F7
:101E3000B58123968CAF9DAFAEAFBFAF239721E0A6
:101E400023962FAF239723964CAD5DAD6EAD7FAD3E
:101E500023974BAB5CAB6DAB7EAB89AF9AAFABAFAF
:101E6000BCAF8DA79EA7AFA7B8AB28AB4DA55EA50D
:101E70006FA578A94FA358A769A77AA72EAB4BA93E
:101E80005CA96DA97EA949A35AA36BA37CA38B8FE0
:101E90009C8FAD8FBE8F4FEA51E05C8B4B8B3FEF39
:101EA0003D8B3E8B3F8B188E5E874D872AA7CFA038
:101EB000D8A4E9A4FAA4CF86D88AE98AFA8A2CA3FE
:101EC00009A11AA12BA13CA109871A872B873C875E
:101ED0005A8349838B839C83AD83BE838091250580
:101EE0008111AFC060E372E080E090E00E94DF0308
:101EF000DFB6F8940EEA10E03AE9E32E30E0F32E74
:101F000080912205811125C0F8018491F7019491F7
:101F1000E82FF0E0EE0FFF1FEA57FF4FA591B491B5
:101F20008C91982321F461E08AE00E94AF0161E086
:101F30008AE00E943A028CB580618CBD8CB58064C9
:101F40008CBD61E08DE00E943A0261E08BE00E946E
:101F50003A02809122058F5F80932205DFBEF8014F
:101F60000491E02FF0E0EE0FFF1FE458FF4F859142
:101F700094919093210580932005F701E490E092DD
:101F80001F0561E08AE00E943A020E94460780E550
:101F900091E00E949F0084E38093230580E80E94E3
:101FA00012080E94ED0E882309F481C088E00E9487
:101FB00012080E94DA0E883009F079C080E10E9490
:101FC00012080E94DA0E803109F071C080E00E9490
:101FD00012080E94DA0E182F811169C041E050E00A
:101FE000BE016D5B7F4F8FE190E00E94650D2496EE
:101FF0008FAD2497833009F05AC080E48093240584
:1020000042E06EE170E0812F0E946E0842E06FE1D5
:1020100070E0812F0E946E081F5F143089F740E046
:102020006EE170E0812F0E946E0840E06FE170E089
:10203000812F0E946E081F5F183089F781E080931E
:10204000250580E591E00E949F0046E050E066E0B3
:1020500071E089E090E00E94620744E050E0BE0138
:102060006D5F7F4F8FE090E00E94620744E050E098
:10207000BE01615F7F4F81E090E00E94620744E013
:1020800050E0BE016B5E7F4F85E090E00E946207EA
:1020900081E08C8789859A85AB85BC8580933F06D6
:1020A00090934006A0934106B09342066FC087E329
:1020B0008093230580E80E9412080E94ED0E882379
:1020C00039F188E00E9412080E94DA0E883001F58A
:1020D00080E10E9412080E94DA0E182F8031C1F4AC
:1020E00080E00E9412080E94DA0E811111C041E0C6
:1020F00050E0BE016D5B7F4F89E390E00E94650D6B
:1021000024968FAD2497843019F41093240596CF2C
:1021100083E38093230580E80E9412080E94ED0E5D
:10212000882391F180E10E9412080E94DA0E80312A
:1021300059F582E10E9412080E94DA0E823121F5DF
:1021400080E00E9412080E94DA0E81111DC084E016
:102150008093240515E525961FAF259741E050E0B3
:10216000BE016C5B7F4F8BE190E00E94620724967A
:102170001FAF249741E050E0BE016D5B7F4F8AE1C5
:1021800090E00E9462075ACF10922305CC5BDF4F8C
:102190000FB6F894DEBF0FBECDBFDF91CF911F9178
:1021A0000F91FF90EF90DF90CF9008951F93CF9302
:1021B000DF931F92CDB7DEB7182F80E591E00E9424
:1021C0009F00812F0E94250827E0129FF001112413
:1021D000ED5FFA4F22813381377041E050E0BE015C
:1021E0006F5F7F4F820F931F0E94650D89810F9053
:1021F000DF91CF911F910895FC01808D843040F4D0
:10220000218D328D232B21F00E94D61090E008956D
:102210008FEF9FEF0895CF93DF93FC012485243047
:1022200028F08FEF9FEFDF91CF910895EC0101909F
:10223000F081E02D0084F185E02D0995892B89F34B
:102240008C850E94D61090E0EECFDA01E091240553
:10225000F0E0FE2FEE27E60FF71F90E0982F88277B
:10226000A901BD018E0F9F1F0C94650D8F929F9247
:10227000AF92BF92CF92DF92EF92FF921F93CF93D4
:10228000DF93CDB7DEB72C970FB6F894DEBF0FBE45
:10229000CDBF2091230514E0222339F16B017C018D
:1022A00080E591E00E949F005E0127E0A20EB11C34
:1022B000450110E063E070E0812F0E94F00DF40111
:1022C00081934F01882349F11F5F143099F710E083
:1022D000F50181915F018D31D9F08831C9F08A51C2
:1022E0008230B0F01F5F143099F7812F2C960FB613
:1022F000F894DEBF0FBECDBFDF91CF911F91FF904D
:10230000EF90DF90CF90BF90AF909F908F90089507
:1023100060E170E0812F0E940D0EA12EB12C83EEA2
:1023200093E00197F1F742E870E060E0812F0E94AE
:102330006E084FEF62E070E0812F0E946E08B601D8
:10234000C114D10491F4809104019091050101968A
:102350008115F0EC9F0708F45CC090930501809311
:1023600004016091040170910501812F0E945908B8
:1023700086E0E2E1F1E0DE01119601900D928A958E
:10238000E1F7F70183818F778C8384818D83858149
:102390008E83A7014E5F5F4F24E030E06CE070E079
:1023A000812F0E943308B601812F0E94440826E045
:1023B00030E0AE014F5F5F4F66E070E0812F0E941A
:1023C000330861E070E0812F0E940D0E27E02A9D06
:1023D000C0012B9D900D11249C012D5F3A4F790176
:1023E000F9011182108222E030E0AE01455F5F4FBB
:1023F00068E270E0812F0E9425118B859C859827CB
:1024000089279827F7019383828316821582148285
:102410006CCF80E090ECA1CFCF92DF92EF92FF9251
:102420000F931F93CF93DF9300D000D000D0CDB790
:10243000DEB78C016B017A01FC01808D843010F4D1
:102440000E94290E8FEA91E09A838983F6018281A6
:102450009381A481B5818B839C83AD83BE83B701B7
:10246000CE0101960E943611F801808F8430A0F4CD
:10247000F586E486128E118E81E026960FB6F894CA
:10248000DEBF0FBECDBFDF91CF911F910F91FF90A7
:10249000EF90DF90CF90089580E0EFCFAF92BF92A2
:1024A000CF92DF92EF92FF920F931F93CF93DF9320
:1024B00000D000D000D0CDB7DEB7082F6B0180E58B
:1024C00091E00E949F009E012F5F3F4F79015901CB
:1024D00010E063E070E0812F0E94F00DF501819320
:1024E0005F01882341F11F5F143099F710E0F70175
:1024F00081917F018D31D1F08831C1F08A518230D4
:10250000A8F01F5F143099F7812F26960FB6F89424
:10251000DEBF0FBECDBFDF91CF911F910F91FF9016
:10252000EF90DF90CF90BF90AF90089560E170E0A2
:10253000812F0E940D0EE12EF12C83EE93E0019786
:10254000F1F7402F70E060E0812F0E946E084FEF9E
:1025500062E070E0812F0E946E08B601CD2889F4F8
:10256000809104019091050101968115F0EC9F077F
:1025700098F190930501809304016091040170919A
:102580000501812F0E94590861E070E0812F0E94AF
:102590000D0E27E02E9DC0012F9D900D11249C0152
:1025A0002D5F3A4F7901F9011182108222E030E06B
:1025B000AE014B5F5F4F68E270E0812F0E942511F2
:1025C0008D819E81982789279827F701938382839D
:1025D00016821582148298CF80E090ECCACFCF92F9
:1025E000DF92EF92FF921F93CF93DF93EC017B0179
:1025F0006A018C85843048F40E94420E882319F0C9
:102600008C850E941D0E84E08C87F7018281938166
:10261000A481B5810097A105B10551F490E080E057
:10262000DF91CF911F91FF90EF90DF90CF900895B1
:102630008F3F9F4FAF4FBF4F89F38091230581118B
:1026400003C084E08C87EACF70E060E081E20E9402
:102650004E12182F8C87843008F780E591E00E9495
:102660009F00A7014E5F5F4F24E030E06CE070E018
:10267000812F0E943308B601812F0E94440864E034
:1026800070E0812F0E940D0E0E9411046B017C01ED
:102690008C850E94420E873109F18C31F9F0882334
:1026A00009F4BCCF0E941104AB01BC014C195D09B7
:1026B0006E097F098D859E85B0E0A0E0841795079F
:1026C000A607B70738F061E070E080E090E00E9474
:1026D000DF03DECF8C850E94290EB3CF81E090E02E
:1026E0009FCF0F931F93CF93DF93EC018B01888DC6
:1026F000843010F40E94290E80912305811107C0B7
:1027000094E0988FDF91CF911F910F910895B801B8
:1027100082E00E944E12888F843030F41D870C872F
:102720001A8E198E81E0EECF80E0ECCF7F928F92EF
:102730009F92AF92BF92CF92DF92EF92FF920F9350
:102740001F93CF93DF9300D0CDB7DEB7782E8B01E8
:102750004A01590122E030E0AE014F5F5F4F64E271
:1027600070E00E942511E980FA80FE24EF24FE2407
:10277000E00EF11E9701377040912305072D10E000
:10278000433309F042C0085F1F4F102F0027110F7D
:10279000110F110FC901800F911F4733C9F1A90112
:1027A0004A0D5B1D4130584098F160E078E06B01C4
:1027B000C21AD30AA601B4010E946207A5014C19EE
:1027C0005D09B4016C0D7D1DC8010E946207EA0C11
:1027D000FB1CF982EA8222E030E0AE014F5F5F4FDE
:1027E00064E270E0872D0E9433080F900F90DF9114
:1027F000CF911F910F91FF90EF90DF90CF90BF90FE
:10280000AF909F908F907F900895005F1F4FBDCF36
:10281000A501B401DACFEF92FF921F93CF93DF931C
:1028200000D0CDB7DEB7182F22E030E0AE014F5F09
:102830005F4F60E270E00E942511E980FA80FE247B
:10284000EF24FE2422E030E0AE014F5F5F4F60E2F4
:1028500070E0812F0E94251189819A81982789270C
:102860009827E816F90689F487E0189FF0011124EB
:10287000ED5FFA4FF582E482C7010F900F90DF9170
:10288000CF911F91FF90EF9008957C01DBCF1F93B4
:10289000CF93DF93182F80E591E00E949F00812F56
:1028A0000E940B14EC0163E070E0812F0E94F00D98
:1028B000873121F08C3111F0D0E0C0E0CE01DF9102
:1028C000CF911F910895CF93DF93EC018C858430D5
:1028D00060F40E94420E873111F08C3131F48C8506
:1028E0000E9447148115984088F3DF91CF91089595
:1028F000FC018485843010F40C94471490E080E04F
:1029000008959F92AF92BF92CF92DF92EF92FF9283
:102910000F931F93CF93DF938C015B01942EE52ED1
:10292000FC01C688D788F08C80E591E00E949F006A
:102930008F2D0E940B14C92DDE2D8C179D0708F4D6
:10294000EC019E01A501B6018F2D0E949613F8019E
:10295000868997898C0F9D1F978B868BCE01DF917F
:10296000CF911F910F91FF90EF90DF90CF90BF908C
:10297000AF909F9008958F929F92AF92BF92CF9207
:10298000DF92EF92FF920F931F93CF936C015B0145
:102990008A01FC01C485C430F0F57A014130584009
:1029A00018F0E12C88E0F82E80E591E00E949F006D
:1029B0008C2F0E940B144C0163E070E08C2F0E945E
:1029C000F00D873111F08C3149F58E149F0460F3BE
:1029D00080E591E00E949F009701A50170E060E012
:1029E0008C2F0E94961360E270E08C2F0E940D0ED7
:1029F00062E070E08C2F0E94F00D84FD17C063E050
:102A000070E08C2F0E94F00D81110BC081E090E0EE
:102A1000F6019383828310E000E010C0F12CE12CDA
:102A2000D7CF80E591E00E949F00E2CF40E162E0D5
:102A300070E08C2F0E946E08EF2841F3C801CF91FF
:102A40001F910F91FF90EF90DF90CF90BF90AF90CC
:102A50009F908F900895FF920F931F93CF93DF93D2
:102A600000D0CDB7DEB7F82E22E030E0AE014F5FE8
:102A70005F4F66E270E00E94251109811A811027DC
:102A80000127102722E030E0AE014F5F5F4F66E282
:102A900070E08F2D0E94251189819A8198278927BE
:102AA00098270817190749F4C8010F900F90DF9174
:102AB000CF911F910F91FF9008958C01E3CF1F9349
:102AC000CF93DF93182F87E0189FE0011124CD5F8B
:102AD000DA4F88819981009761F480E591E00E9446
:102AE0009F00812F0E942B152E81821B91099983B3
:102AF0008883DF91CF911F910895FC0184858430F4
:102B000010F40C945F1590E080E008954F925F926E
:102B10007F928F929F92AF92BF92CF92DF92EF926D
:102B2000FF920F931F93CF93DF9300D0CDB7DEB703
:102B3000782E6B014A01A82EB12C27E0829FC0019C
:102B40001124FC01ED5FFA4F7F010081118180E5C6
:102B500091E00E949F000815190554F4872D0E94EA
:102B60002B15F70126818C01021B110911830083AB
:102B70000115110529F563E070E0872D0E94F00D25
:102B8000843159F0882349F001E010E08C3111F4D0
:102B900010E000E0119501951109C8010F900F9008
:102BA000DF91CF911F910F91FF90EF90DF90CF9029
:102BB000BF90AF909F908F907F905F904F900895BF
:102BC000801691060CF4840187E08A9DF0018B9DAC
:102BD000F00D1124ED5FFA4FE280F380C114D104AF
:102BE00051F12701F7E05F22872D0E942508840D0F
:102BF000951D20912305273309F453C09801240D16
:102C0000351D2130384008F44CC020E038E049013F
:102C100084189508A401B6010E94650D2601480C90
:102C2000591C6801C818D908872D0E942508A601DB
:102C3000B2010E94650DE00EF11E87E08A9DF00151
:102C40008B9DF00D1124ED5FFA4FF382E28220811B
:102C50003181201B310B318320838681800F912F9E
:102C6000911D8A3F910510F4232BF1F487E08A9D92
:102C7000F0018B9DF00D1124ED5FFA4F1682F98261
:102C8000EA8222E030E0AE014F5F5F4F68E270E021
:102C9000872D0E94330860E470E0872D0E940D0E9E
:102CA0007CCFA801B601C5CF868377CFCF93DF93C2
:102CB000FC01218D328D2115310529F48FEF9FEF15
:102CC000DF91CF910895EC01808D4217530708F0F2
:102CD000A9010E9486151816190684F7298D3A8DC8
:102CE000281B390B3A8F298FEBCF0F931F93CF936C
:102CF000DF931F92CDB7DEB7FC01218D328D232BE0
:102D000041F48FEF9FEF0F90DF91CF911F910F91C3
:102D100008958C0141E050E0BE016F5F7F4FFC01E0
:102D2000808D0E948615181619065CF7F801818DB2
:102D3000928D0197928F818F898190E0E4CFCF931C
:102D4000DF931F92CDB7DEB741E050E0BE016F5F69
:102D50007F4FFC0184850E9486151816190634F4ED
:102D6000898190E00F90DF91CF9108958FEF9FEFD1
:102D7000F9CFFC018485843010F40C94861590E022
:102D800080E008950F931F93CF93DF9300D0CDB7CA
:102D9000DEB7FC0124852430E0F48C0180E591E06D
:102DA0000E949F0022E030E0AE014F5F5F4F60E184
:102DB00070E0F80184850E94251189819A81982705
:102DC000892798270F900F90DF91CF911F910F9136
:102DD000089590E080E0F6CF0F931F93CF93DF9399
:102DE00000D0CDB7DEB7FC0124852430E0F48C019F
:102DF00080E591E00E949F0022E030E0AE014F5F4D
:102E00005F4F64E070E0F80184850E94251189819C
:102E10009A819827892798270F900F90DF91CF915B
:102E20001F910F91089590E080E0F6CF0F931F93CC
:102E3000CF93DF93CDB7DEB728970FB6F894DEBFF8
:102E40000FBECDBF8C01D80159964D915C915A9718
:102E50004115510551F0ED91FC91048CF58DE02D5B
:102E600070E060E0C8010995EECFF801808D0E9406
:102E70005F15892BB1F148E050E0BE016F5F7F4FD5
:102E8000D80158968C910E94861518161906F4F4EC
:102E9000D801509684E0FE01319601900D928A95FA
:102EA000E1F78D8190E0982F88272E81820F911D68
:102EB000F801958B848B8F81282F30E0322F2227C9
:102EC0008885820F932F911D928F818F28960FB640
:102ED000F894DEBF0FBECDBFDF91CF911F910F9150
:102EE000089590E080E0F2CF4F925F926F927F92D0
:102EF0008F929F92AF92BF92CF92DF92EF92FF920A
:102F00000F931F93CF93DF93CDB7DEB763970FB6C1
:102F1000F894DEBF0FBECDBF7C016B013A01FB010F
:102F200020E090E080E06AE03191332309F461C051
:102F300040ED430F4A3008F04DC0689FA001699FE3
:102F4000500D1124CA01C097830F911D37FD9A952A
:102F50008F3F910549F340F3F7014281538164812A
:102F6000758180911B0690911C06A0911D06B09161
:102F70001E06481759076A077B0709F40DC2870127
:102F8000085F1F4F0E9411046F7077277C5FC80194
:102F90000E947113813009F004C28FEA91E09A8394
:102FA0008983F70182819381A481B5818B839C837E
:102FB000AD83BE8345E350E0BE016F5F7F4FC80124
:102FC0000E94C308892BA9F5D12CC12CC8010E94ED
:102FD000350E17C03E3209F0BFCF233009F4BCCF05
:102FE000D301A20FB11D12968C932F5F90E080E069
:102FF0009BCF233009F0B0CFF3018583CC24C39459
:10300000D12CC60163960FB6F894DEBF0FBECDBFBC
:10301000DF91CF911F910F91FF90EF90DF90CF90B4
:10302000BF90AF909F908F907F906F905F904F90E8
:1030300008950E941104F7017783668342E050E00F
:10304000B7016A5F7F4FC8010E94811481E090E060
:103050009A83898342E050E0BE016F5F7F4FC801D1
:103060000E94811480E091E09A83898342E050E0DD
:10307000BE016F5F7F4FC8010E9481141A821982BE
:1030800042E050E0BE016F5F7F4FC8010E94811493
:1030900042E050E0BE016F5F7F4FC8010E94811483
:1030A00042E050E0BE016F5F7F4FC8010E94811473
:1030B0005601F6018081882301F16501F6018191B5
:1030C0002F01882311F08E32B1F446018A189B0833
:1030D0001814190474F48D8641E050E0BE01635F5A
:1030E0007F4FC8010E948114A401B501C8010E944C
:1030F00081145201DECF6201E1CF1D8641E050E034
:10310000BE01635F7F4FC8010E948114C12CDD2482
:10311000D394DA82C98242E050E0BE016F5F7F4FF4
:10312000C8010E948114DA82C98242E050E0BE01E7
:103130006F5F7F4FC8010E948114C8010E94A90ED1
:10314000892B09F441CFF3E0AF2EB12C230122E00B
:10315000420E511CD4C0F7014281538164817581B4
:10316000808D918DA28DB38D481759076A077B0713
:1031700009F008C1848D958DC59709F003C181A11F
:1031800092A15DEFC52EDD24DA940C970CF4ADC04E
:103190004CE050E0BE016F5F7F4FC8010E945616A1
:1031A0008B819C819827892798279A8B898BF70197
:1031B0004681578129813A814217530709F0E7C0B8
:1031C00097FFE5C08F7092703BEFC32EDD24DA9439
:1031D000892B09F08AC06F8078847624672476244E
:1031E0002AEFC22EDD24DA946114710409F47DC043
:1031F000D12CC12C8D819E81982789279827C816AC
:10320000D906F8F441E050E0BE01635F7F4FC8018A
:103210000E9456164D85442331F050E070E060E086
:10322000C8010E9456168D858111ECCF44E050E014
:1032300070E060E0C8010E945616FFEFCF1ADF0A67
:10324000D9CF912C812C41E050E0BE016D5E7F4FC3
:10325000C8010E9456164B89842F807C09F06CC0EF
:10326000442331F050E070E060E0C8010E9456163F
:103270008B898111E8CF42E050E0BE01615F7F4F52
:10328000C8010E94561642E050E0BE01635F7F4FC6
:10329000C8010E94561644E050E070E060E0C801AA
:1032A0000E94561642E050E0BE016F5E7F4FC8019B
:1032B0000E9456168F85988949895A8981159140AF
:1032C00009F043C0CD84DE84DC24CD24DC2481E0FD
:1032D000C816D104D1F54115544009F04AC044E064
:1032E00050E0B201C8010E94561621E0A21AB108AE
:1032F00009F46CCEFFEFCF16DF0609F067CE0E940F
:1033000011043B014C01C8010E941617181619063A
:103310000CF421CF0E9411046619770988099909D4
:10332000693873418105910548F562E370E080E0FA
:1033300090E00E94DF03E7CF41E050E070E060E002
:10334000C8010E9456161B8A93CF5427452754273D
:1033500070E060E0C8010E945616FFEF8F1A9F0AC6
:103360006814790409F06FCF96EFC92EDD24DA9442
:10337000BCCFE7EFCE2EDD24DA94B7CFCC24CA94AD
:10338000DC2CB3CF6EEFC62EDD24DA94AECF4CEF3B
:10339000C42EDD24DA94A9CF8EEFC82EDD24DA9472
:1033A00030CED12CC12C2DCECF92DF92EF92FF9256
:1033B0000F931F93CF93DF93CDB7DEB7AF970FB6C1
:1033C000F894DEBF0FBECDBF7C016A010FEA11E0A9
:1033D0001A8309831C861B8688EE93E0A0E0B0E088
:1033E0008D879E87AF87B88B83E291E09A87898724
:1033F000188F0F8B198E1A8E1B8E1C8E84E089A35A
:103400001BA70AA71CA61DA61EA61FA680913F06E5
:1034100090914006A0914106B09142068EA39FA3D1
:10342000A8A7B9A78B839C83AD83BE8318861F8210
:10343000AE01465D5F4FCE0101960E947417813048
:103440009105B1F4D701ED91FC910488F589E02D47
:103450001DA30CA38CA59DA5AEA5BFA58EA39FA360
:10346000A8A7B9A7A601BE016C5D7F4FC70109954A
:10347000AF960FB6F894DEBF0FBECDBFDF91CF91F0
:103480001F910F91FF90EF90DF90CF900895CF9212
:10349000DF92EF92FF920F931F93CF93DF93CDB7FD
:1034A000DEB7AF970FB6F894DEBF0FBECDBF8C016D
:1034B0006B017A018FEA91E09A8389831B821C82D7
:1034C0001D821E821C861B8648EE53E060E070E081
:1034D0004D875E876F87788B23E231E03A872987B3
:1034E000988F8F8B198E1A8E1B8E1C8E24E029A329
:1034F0009BA78AA71CA61DA61EA61FA6D8011C96C0
:103500008C91843060F40E94420E882321F0F801EF
:1035100084850E941D0E84E0D8011C968C938091B6
:103520003F0690914006A0914106B09142068EA3BD
:103530009FA3A8A7B9A78B839C83AD83BE8318865E
:103540001F82AE01465D5F4FB601CE0101960E941B
:1035500074170097C1F0D801ED91FC910684F785AE
:10356000E02D8FEA91E09DA38CA38CA59DA5AEA52F
:10357000BFA58EA39FA3A8A7B9A7A701BE016C5D95
:103580007F4FC8010995AF960FB6F894DEBF0FBE06
:10359000CDBFDF91CF911F910F91FF90EF90DF9002
:1035A000CF900895EF92FF920F931F93CF93DF93E5
:1035B00000D000D0CDB7DEB78C017B01FB01848544
:1035C0008430A8F08FEA91E0F80191838083128221
:1035D000138214821582C8010F900F900F900F90E4
:1035E000DF91CF911F910F91FF90EF90089580E5AB
:1035F00091E00E949F0024E030E0AE014F5F5F4FFA
:103600006CE070E0F70184850E9425118FEA91E05B
:10361000F8019183808389819A81AB81BC81828307
:103620009383A483B583D7CF1F920F920FB60F92C7
:1036300011242F933F934F935F936F937F938F93B7
:103640009F93AF93BF93EF93FF938091B900887FCF
:10365000803609F44AC0F0F5883209F4A7C018F59D
:10366000803109F49BC0B8F4882309F4F9C088308C
:1036700009F494C0FF91EF91BF91AF919F918F9109
:103680007F916F915F914F913F912F910F900FBE5E
:103690000F901F901895883109F488C0803251F737
:1036A00080934A0514C0803409F49DC040F48033EF
:1036B000B9F38833F9F680934A0585ECB0C08035BC
:1036C00009F485C0883509F496C0883499F60E94BB
:1036D000E909D0CF883909F48CC038F5883729F04A
:1036E00050F4883611F0803729F683E080934C053A
:1036F0001092020557C0883809F47BC0803919F050
:10370000803809F0B7CF80910205803208F071C08F
:10371000E091020581E08E0F809302058091BB004D
:10372000F0E0EE51FB4F80833DC0803B39F0E0F488
:10373000803A09F479C0883A09F09CCF84E08093FC
:103740004C051092DF041092DE04E091DC04F0914D
:10375000DD0409958091DE0481110FC081E0809322
:10376000DE041092BC0409C0803C09F4A6CF883C5A
:1037700009F4A3CF883B09F07DCFE091DF0481E01D
:103780008E0F8093DF04F0E0E454FB4F8081809340
:10379000BB009091DF048091DE0429C08091270551
:1037A0008093BB0085EC8093BC0064CF9091490569
:1037B00080914805981758F5E091490581E08E0FF2
:1037C00080934905F0E0E85DFA4F8081E9CFE09110
:1037D000490581E08E0F809349058091BB00F0E0A0
:1037E000E85DFA4F808390914905809148059817CC
:1037F000C8F285E8D8CFE091490581E08E0F80932B
:1038000049058091BB00F0E0E85DFA4F808380912C
:103810004B0581115CCF81E08093260584EA80937B
:10382000BC0010924C0526CF85EC8093BC00109212
:103830004C0580910205803230F4E0910205F0E001
:10384000EE51FB4F10826091020570E0E091E004C0
:10385000F091E10482EE94E00995109202050ACFFE
:1038600010924A0534CF1F920F920FB60F92112477
:103870002F933F938F939F93AF93BF938091910426
:1038800090919204A0919304B0919404309190048B
:1038900023E0230F2D3758F50196A11DB11D20936C
:1038A00090048093910490939204A0939304B09316
:1038B00094048091950490919604A0919704B091FE
:1038C00098040196A11DB11D8093950490939604D0
:1038D000A0939704B0939804BF91AF919F918F915B
:1038E0003F912F910F900FBE0F901F90189526E8D3
:1038F000230F0296A11DB11DD2CF1F920F920FB6BA
:103900000F9211242F933F934F935F936F937F9365
:103910008F939F93AF93BF93EF93FF93E091020137
:10392000F09103010995FF91EF91BF91AF919F91A4
:103930008F917F916F915F914F913F912F910F9058
:103940000FBE0F901F9018951F920F920FB60F92F7
:1039500011242F933F934F935F936F937F938F9394
:103960009F93AF93BF93EF93FF93E0910001F0918A
:1039700001010995FF91EF91BF91AF919F918F91B7
:103980007F916F915F914F913F912F910F900FBE5B
:103990000F901F9018951F920F920FB60F9211243F
:1039A0002F933F934F935F936F937F938F939F9347
:1039B000AF93BF93EF93FF9386E795E00E949D0638
:1039C000FF91EF91BF91AF919F918F917F916F91F7
:1039D0005F914F913F912F910F900FBE0F901F90CD
:1039E00018951F920F920FB60F9211242F938F9359
:1039F0009F93EF93FF93E0918605F0918705808177
:103A0000E0918C05F0918D0582FD1BC09081809125
:103A10008F058F5F8F7320919005821741F0E091A1
:103A20008F05F0E0EA58FA4F958F80938F05FF914C
:103A3000EF919F918F912F910F900FBE0F901F903C
:103A400018958081F4CFCF93DF93AFE4B6E013965F
:103A50001C921E92129748EE53E060E070E01496BC
:103A60004D935D936D937C9317978DE491E0119640
:103A70009C938E93E6E7F5E013821282448355838C
:103A8000668377838FE591E09183808385EC90E076
:103A90009587848784EC90E09787868780EC90E018
:103AA000918B808B81EC90E0938B828B82EC90E009
:103AB000958B848B86EC90E0978B868B118E128E83
:103AC000138E148EE3E1F6E08FEA91E09183808318
:103AD0001282138214821582E9E1F6E091838083D9
:103AE0001282138214821582EFE1F6E091838083C3
:103AF0001282138214821582E5E2F6E091838083BC
:103B00001282138214821582EBE2F6E091838083A5
:103B10001282138214821582E1E3F6E0918380839E
:103B20001282138214821582E7E3F6E09183808388
:103B30001282138214821582E3E4F6E0918380837B
:103B40001282138214821582EDE3F6E09183808362
:103B50001282138214821582E9E4F6E09183808355
:103B60001282138214821582E8ECF6E0918380833E
:103B70001282138214821582EFE9F6E022E130E02E
:103B80003287218723E130E034872387178622E0BC
:103B9000208B128A118A138A148A158A168A178A28
:103BA000108E118E128E138E148E158E168E178E09
:103BB00010A211A213A212A22AE030E035A324A37E
:103BC0002BE426A321EE27A310A6B687A58720E223
:103BD0002087E9E9F6E0918380833AE032832EE69C
:103BE00023831482A5E0A583E3E9F6E09183808333
:103BF00032832383148223E02583E4E8F6E01382F2
:103C0000128244835583668377832DE731E03183C5
:103C1000208328E0248728EE33E036872587CBE50C
:103C2000D6E01B821A8221E731E0398328839C8FFA
:103C30008B8F1D8E1E8E1F8E18A28FEF9FEF98A761
:103C40008FA3FD83EC831EA21DA280E091E00E9461
:103C500068239F838E8380E091E0998788878FE037
:103C600090E09B878A879D878C87DF91CF9108950D
:103C7000CF93DF93CDB7DEB729970FB6F894DEBFA9
:103C80000FBECDBF789484B5826084BD84B5816059
:103C900084BD85B5826085BD85B5816085BD809117
:103CA0006E00816080936E0010928100809181008F
:103CB0008260809381008091810081608093810087
:103CC000809180008160809380008091B100846049
:103CD0008093B1008091B00081608093B0008091AA
:103CE0007A00846080937A0080917A008260809369
:103CF0007A0080917A00816080937A0080917A00C6
:103D0000806880937A001092C100E0918605F0915E
:103D1000870582E08083E0918205F091830510821F
:103D2000E0918405F091850580E1808310928E05F5
:103D3000E0918A05F0918B0586E08083E09188050B
:103D4000F0918905808180618083E0918805F09100
:103D50008905808188608083E0918805F0918905DC
:103D6000808180688083E0918805F0918905808159
:103D70008F7D80830FEA11E01A83098380919B066F
:103D800090919C06A0919D06B0919E068B839C838A
:103D9000AD83BE83CE0101960E94030F6CED75E0EA
:103DA00080E090E00E94DF031A83098380919506EA
:103DB00090919606A0919706B09198068B839C836C
:103DC000AD83BE83CE0101960E9488008FE59BE003
:103DD000909375068093740680E00E94710981E0DB
:103DE0000E94710982E00E94710983E00E947109BA
:103DF00084E00E94710985E00E94710986E00E94BA
:103E0000710987E00E94710984E08093C7061092CF
:103E1000BA041092B90410925305109275050E94CD
:103E2000FB0188E291E09093DD048093DC0489E259
:103E300091E09093E1048093E0048091B206209198
:103E4000B406811102C0222339F18091AC06909111
:103E5000AD063091A70641E04093520530937405BA
:103E60006091B306622B6093B806DC01ED91FC9182
:103E70000190F081E02D09959091B3068091B506EF
:103E8000892B8093B9068093B7069093BE0681E094
:103E90000E9490028093C7068091AE068823D9F0D5
:103EA00062E08091AF060E943A028091B006909144
:103EB000B1062091AF06223009F4F3C0233059F443
:103EC000909303018093020180916900837F886051
:103ED00080936900E99A0E9411046093BA06709376
:103EE000BB068093BC069093BD0661E080E00E9413
:103EF000800361E081E00E94800361E082E00E9433
:103F0000800361E083E00E94800361E084E00E941E
:103F1000800361E085E00E94800361E086E00E940A
:103F2000800361E087E00E948003FCEFCF2EDD2458
:103F3000DA940E94110400918C0410918D04209158
:103F40008E0430918F04601B710B820B930B693CC4
:103F500071058105910508F40AC20E94110460935D
:103F60008C0470938D0480938E0490938F040E9430
:103F7000C4008111ADC1E2EC7E2E0E94C40081110B
:103F8000A7C16AE074E086E795E00E94680A0E9493
:103F9000C400811172C180915F0690916006DC01BE
:103FA000ED91FC910688F789E02D0995882309F4A5
:103FB00084C0E1E0F0E0F0936A06E093690687E0F0
:103FC000E8E1F1E0DE01119601900D928A95E1F7AA
:103FD000DE01119685E090E02D91E0916106F0916F
:103FE0006206E80FF91F208301968C309105A1F736
:103FF0000091610610916206D8011C967C921C9774
:10400000809166061D968C931D97809165061E967D
:104010008C93E0906306F0906406B70181E394E02E
:104020000E94E4224196E816F90608F07FC08091CC
:104030005F0690916006DC01ED91FC910488F589A2
:10404000E02D099560E674E086E795E00E94680A35
:104050008090820690908306092C000CAA08BB0869
:104060002AE0B501A401B7FE0DC06DE286E795E038
:104070000E94BF0644275527BA01481959096A0901
:104080007B092AE086E795E00E94770A8CE694E0B7
:104090000E940D0B68E873E180E090E00E94DF036E
:1040A0006CCF9093010180930001809169008C7F17
:1040B000826080936900E89A0ECF60917C067091CF
:1040C0007D0680915F0690916006DC01ED91FC9188
:1040D00040917E0650917F066115710571F0008850
:1040E000F189E02D0995019709F463CFEEEFFFEF19
:1040F000F0938306E0938206A5CF0684F785E02D32
:104100007FEA472E71E0572E5A8249820091780645
:104110001091790620917A0630917B060B831C83DF
:104120002D833E83BE016F5F7F4FDCCF4FE050E0B9
:10413000B80181E394E00E94A2008C01E090630644
:10414000F0906406B70180E494E00E94E422800FBE
:10415000911F0296E816F90608F469CF609161068E
:1041600070916206A80180E494E00E94A2008C0194
:10417000E0906306F0906406B70187E494E00E9443
:10418000E422800F911F0296E816F90608F44FCF3B
:104190006091610670916206A80187E494E00E9434
:1041A000A200AC0145505109609161067091620610
:1041B00080E10E941D040E94110460936B067093BD
:1041C0006C0680936D0690936E0660936F067093F5
:1041D0007006809371069093720680915F069091AD
:1041E0006006DC01ED91FC910084F185E02D0995DC
:1041F000892B11F50E94110400916F061091700631
:1042000020917106309172064B015C01801A910A6F
:10421000A20AB30A2091670630916806A8EEB3E0BF
:104220000E94532386169706A806B906B0F2D092CC
:104230008306C0928206FBCECE0108960E94CB0474
:10424000643071058105910509F0F1CEE0916106B8
:10425000F09162068381811135C00E941104609340
:104260006F06709370068093710690937206109299
:104270007306109283061092820686E594E00E94EF
:104280000D0B8EEC91E00E94960981E292E00E9473
:1042900096098AE692E00E9496098FEA92E00E94CF
:1042A000960988EF92E00E9496098BE393E00E94C2
:1042B00096098EE793E00E94960981EC93E00E94B4
:1042C00096095BCE90E09093830680938206AFCEF2
:1042D0000E94C400882309F44AC00E9411044B01C3
:1042E0005C012091650630916606A8EEB3E00E945D
:1042F000532300916F061091700620917106309142
:10430000720624013501401A510A620A730A9301A8
:1043100082016017710782079307B0F000916B0666
:1043200010916C0620916D0630916E0624013501C6
:10433000401A510A620A730A9301820160177107D9
:104340008207930708F04FC0809173068823E1F03D
:10435000D0928306C092820680915F06909160069B
:10436000DC01ED91FC910488F589E02D099580E050
:1043700090E0892B09F4DDCD0E948906882309F499
:10438000D4CD0E940000D1CDE0916106F09162068B
:1043900080EC8083E0916106F09162061182809149
:1043A0005F06909160066091610670916206DC0183
:1043B000ED91FC910280F381E02D42E050E00995FF
:1043C00080926B0690926C06A0926D06B0926E067B
:1043D00080926F0690927006A0927106B09272065B
:1043E00081E08093730680915F0690916006DC0106
:1043F000ED91FC910084F185E02D0995892B09F45C
:10440000B6CFCE0101960E94CB042B01672B09F495
:10441000D2C080926F0690927006A0927106B09200
:104420007206E0916106F09162068081807F8033A0
:1044300009F0A0C08091740690917506892B09F44B
:1044400096CF498150E0CA0102968E0F9F1FDF016F
:10445000A40FB51F11960C9110E0102F0027DC015E
:104460006C91060F111D4D5F5F4FBF01640F751FEB
:10447000A8010E945325E98180916106909162060E
:10448000800F911FE80FF92FF11D1282E091610654
:10449000F0916206298130E0C90102968E0F9F1FBC
:1044A00040814670498720907406309075064230EE
:1044B00009F04EC0B801620F731FDF01A60FB71FCE
:1044C0001396EC901397F12CFE2CEE2414964C913D
:1044D000E40EF11C4BEF5FEF421B530B401B510BE3
:1044E000440D551D6B5F7F4F6E0F7F1FF1010995C6
:1044F000E0916106F091620680E48083E0916106BC
:10450000F091620649844182E0916106F091620671
:10451000F282E0916106F0916206E38280915F068B
:10452000909160066091610670916206DC01ED91E8
:10453000FC910280F381E02D44E050E009958092E7
:104540006B0690926C06A0926D06B0926E060FCF2D
:104550004DEF5FEF421B530B401B510B440D551D9C
:104560002D5F3F4F200F311FBF01620F731FF101FD
:104570000995FDCE803CC9F480ED8083E091610611
:10458000F0916206118280915F06909160066091C1
:10459000610670916206DC01ED91FC910280F3816D
:1045A000E02D42E050E00995E2CE803D09F0DFCEFB
:1045B00010927306DCCE0E94C400D9CE80916106B1
:1045C000909162060C940424FC01615070400190AB
:1045D0000110D8F7809590958E0F9F1F08950E9427
:1045E0005323A59F900DB49F900DA49F800D911D06
:1045F000112408952F923F924F925F926F927F9273
:104600008F929F92AF92BF92CF92DF92EF92FF92E2
:104610000F931F93CF93DF93CDB7DEB7CA1BDB0B8E
:104620000FB6F894DEBF0FBECDBF09942A88398833
:1046300048885F846E847D848C849B84AA84B9843A
:10464000C884DF80EE80FD800C811B81AA81B98146
:10465000CE0FD11D0FB6F894DEBF0FBECDBFED015A
:104660000895A1E21A2EAA1BBB1BFD010DC0AA1FB3
:10467000BB1FEE1FFF1FA217B307E407F50720F0CB
:10468000A21BB30BE40BF50B661F771F881F991F46
:104690001A9469F760957095809590959B01AC018F
:1046A000BD01CF010895A29FB001B39FC001A39F98
:1046B000700D811D1124911DB29F700D811D11245B
:1046C000911D0895EE0FFF1F0590F491E02D0994C0
:1046D0000F931F93CF93DF938230910510F482E004
:1046E00090E0E091D006F091D10630E020E0B0E01B
:1046F000A0E0309799F42115310509F44AC0281B30
:10470000390B24303105D8F58A819B8161157105FB
:1047100089F1FB0193838283FE0111C040815181A5
:104720000281138148175907E0F04817590799F497
:10473000109761F012960C93129713961C93329671
:10474000CF01DF91CF911F910F9108950093D00673
:104750001093D106F4CF2115310551F042175307BC
:1047600038F0A901DB019A01BD01DF01F801C1CFD9
:10477000EF01F9CF9093D1068093D006CDCFFE0103
:10478000E20FF31F819391932250310939832883DB
:10479000D7CF2091CE063091CF06232B41F4209124
:1047A0000E0130910F013093CF062093CE06209159
:1047B0000C0130910D012115310541F42DB73EB7A3
:1047C0004091100150911101241B350BE091CE0650
:1047D000F091CF06E217F307A0F42E1B3F0B28172A
:1047E000390778F0AC014E5F5F4F2417350748F06A
:1047F0004E0F5F1F5093CF064093CE068193919347
:104800009FCFF0E0E0E09CCFCF93DF930097E9F0FB
:10481000FC01329713821282A091D006B091D1068A
:10482000ED0130E020E01097A1F420813181820F6A
:10483000931F2091CE063091CF062817390709F033
:1048400061C0F093CF06E093CE06DF91CF9108953B
:10485000EA01CE17DF07E8F54A815B819E01411529
:104860005105B1F7E901FB83EA8349915991C40FDE
:10487000D51FEC17FD0761F4808191810296840FAA
:10488000951FE90199838883828193819B838A8321
:10489000F0E0E0E012968D919C9113970097B9F5A6
:1048A0002D913C911197CD010296820F931F20917B
:1048B000CE063091CF062817390739F6309751F5D3
:1048C0001092D1061092D006B093CF06A093CE06D8
:1048D000BCCFD383C28340815181840F951FC817F9
:1048E000D90761F44E5F5F4F88819981480F591F46
:1048F000518340838A819B81938382832115310573
:1049000009F0B0CFF093D106E093D0069ECFFD0121
:10491000DC01C0CF13821282D7CFB0E0A0E0E3E980
:10492000F4E20C94FC228C01009751F4CB010E941C
:1049300068238C01C801CDB7DEB7E0E10C941823E1
:10494000FC01E60FF71F9C0122503109E217F30723
:1049500008F49DC0D901CD91DC911197C617D707F6
:1049600098F0C530D10530F3CE010497861797072C
:1049700008F3C61BD70B2297C193D1936D937C93F9
:10498000CF010E940424D6CF5B01AC1ABD0A4C01B2
:104990008C0E9D1EA091D006B091D106512C412CB9
:1049A000F12CE12C109731F58091CE069091CF0635
:1049B0008815990509F05CC04616570608F058C0DE
:1049C00080910C0190910D01009741F48DB79EB735
:1049D0004091100150911101841B950BE817F907C4
:1049E00008F055C0F093CF06E093CE06F90171832D
:1049F0006083A0CF8D919C91119712966C90129725
:104A000013967C901397A815B90559F56C0142E0EF
:104A1000C40ED11CCA14DB0420F1AC014A195B0995
:104A2000DA011296159780F0628273825183408377
:104A3000D9016D937C93E114F10471F0D7011396C1
:104A4000FC93EE93129776CF22968C0F9D1FF9015F
:104A500091838083F301EFCFF093D106E093D006EA
:104A600069CF4816590608F42C017D01D3019ACF6D
:104A7000CB010E9468237C01009749F0AE01B80188
:104A80000E944A25C8010E940424870153CF10E0E8
:104A900000E050CFFB01DC0102C001900D924150BB
:104AA0005040D8F708956817790768F4FB01DC01D6
:104AB000E40FF51FA40FB51F02C002900E924150E3
:104AC0005040D8F708950C944A25DC0101C06D933D
:104AD00041505040E0F70895FB01DC018D910190B9
:104AE00080190110D9F3990B0895FB01DC010190A5
:104AF0000D920020E1F7089510E0CDE5D0E004C06C
:104B0000FE010E9462232196CE35D107C9F7F894A1
:024B1000FFCFD5
:104B12001E061E0600C0DEADBEEF00080000D20673
:104B2200800001005E00000000044D515454040056
:104B32000000008B08811452090001FC007516FC6C
:104B42001071130C12350EC308D419A90E1617567C
:104B52001612090209FE08FA08000000008001533B
:104B620001520900014C0139012A0100000000BF75
:104B7200061F064C060C077D065B066F060000004A
:104B820000390919095209510900000000AC08BB9B
:104B920014781463147D159F160B11EF12471AB97E
:104BA20016700E4E0E68097009660A65096309A13E
:104BB200085909EC16D21AC216550900000000C3A2
:104BC2000A0D0A004E616368726963687420656D3C
:104BD2007066616E67656E205B005D3A20004D6510
:104BE2006C64756E67656E2F5761726E6C65756366
:104BF2006874653030312F677275656E006F6E00B4
:104C020052656C616973204B3020677275656E2046
:104C12002D3E20414E006F66660052656C616973DD
:104C2200204B3020677275656E202D3E2041555312
:104C3200004D656C64756E67656E2F5761726E6CA0
:104C42006575636874653030312F67656C62005238
:104C5200656C616973204B312067656C62202D3E63
:104C620020414E0052656C616973204B31206765AB
:104C72006C62202D3E20415553004D656C64756E6B
:104C820067656E2F5761726E6C6575636874653007
:104C920030312F726F740052656C616973204B3230
:104CA20020726F74202D3E20414E0052656C616966
:104CB20073204B3220726F742D3E20415553004DAC
:104CC200656C64756E67656E2F5761726E6C657583
:104CD200636874653030312F626C61750052656CA7
:104CE200616973204B3320626C6175202D3E204137
:104CF2004E0052656C616973204B3320626C6175A2
:104D0200202D3E20415553004D656C64756E6765DC
:104D12006E2F5761726E6C657563687465303031E1
:104D22002F78310052656C616973204B34207831E1
:104D3200202D3E20414E0052656C616973204B3438
:104D4200207831202D3E20415553004D656C64750D
:104D52006E67656E2F5761726E6C657563687465F8
:104D62003030312F78320052656C616973204B35D7
:104D7200207832202D3E20414E0052656C616973CD
:104D8200204B35207832202D3E20415553004D6571
:104D92006C64756E67656E2F5761726E6C657563B4
:104DA2006874653030312F78330052656C616973F5
:104DB200204B36207833202D3E20414E0052656C28
:104DC200616973204B36207833202D3E20415553A4
:104DD200004D656C64756E67656E2F5761726E6CFF
:104DE2006575636874653030312F6875706500527F
:104DF200656C616973204B372068757065202D3EA4
:104E020020414E0052656C616973204B37206875F2
:104E12007065202D3E204155530056657262696EC1
:104E220064756E67207A756D204D5154542D53650B
:104E32007276657220617566626175656E2E2E2EC0
:104E4200005761726E6C657563687465303031004D
:104E520068697465736800524F39555A3777414E05
:104E620043587A6D790076657262756E64656E007C
:104E72004665686C65722C2072633D002065726E17
:104E82006575742076657273756368656E20696EE8
:0C4E920020352053656B756E64656E0062
:00000001FF
