:100000000C945E000C94FE1C0C94D71C0C9486007F
:100010000C9486000C9486000C9486000C94860048
:100020000C9486000C9486000C9486000C94860038
:100030000C9486000C9486000C9486000C94860028
:100040000C948D1C0C9486000C944B1D0C94251D57
:100050000C9486000C9486000C9486000C94860008
:100060000C946E1B0C948600000000080002010036
:100070000003040700000000000000000000000072
:10008000250028002B0000000000240027002A0083
:10009000010204081020408001020408102001021F
:1000A00004081020040404040404040402020202EC
:1000B00002020303030303037D1D722311241FBEE9
:1000C000CFEFD8E0DEBFCDBF14E0A0E0B1E0EAE3BF
:1000D000FCE402C005900D92A439B107D9F726E0DF
:1000E000A4E9B4E001C01D92AC3DB207E1F710E015
:1000F000CDE5D0E004C02197FE010E94F623CC3567
:10010000D107C9F70E94921E0C9410260C9400008F
:10011000CF93DF93EC01FA013296E60FF71FDC0173
:100120009D012C1B3D0BCF01861B970B4D9144234A
:1001300011F04193F5CFAC01421B530B640F751FB7
:10014000FB013297308361507109FB012083DF91FD
:10015000CF9108958091690690916A06009711F4F5
:1001600080E02FC0DC01ED91FC910688F789E02D3D
:10017000099520918C0630918D0681111FC0232B8B
:1001800079F78DEF9FEF90938D0680938C06809189
:10019000690690916A06DC01ED91FC910680F78179
:1001A000E02D09958091690690916A06DC01ED9138
:1001B000FC910488F589E02D0995D2CF81E0232BAD
:1001C00079F60895CF93DF93E5E6F6E0EC018A81B6
:1001D0009B81AC81BD81858F968FA78FB0A38BE566
:1001E00097E094A383A312A211A2CF01DF91CF9134
:1001F00008958CBD9DBD0895FC01818D928D08955B
:1002000008952091E804260F3327331F213231054A
:10021000ECF420915605FC0190E080E0243069F078
:1002200082E00895A091E8042191AC014A535B4F0C
:10023000A40FB52FB11D2C930196861798F38091CA
:10024000E804680F6093E80480E0089581E0089571
:1002500008950895E091C4048091C304E81730F430
:10026000F0E0ED55FB4F808190E008958FEF9FEF18
:1002700008959091C4048091C3042FEF3FEF981725
:1002800048F4E92FF0E0ED55FB4F208130E09F5F0F
:100290009093C404C90108958091C3049091C4044B
:1002A000891B990B0895CF92DF92EF92FF920F93E3
:1002B0001F93CF93DF937C01CB018A0120915C05D2
:1002C000222389F0EB016B01C40ED51ECC15DD0590
:1002D00069F06991D701ED91FC910190F081E02DD9
:1002E000C7010995F3CF642F0E940101C801DF9176
:1002F000CF911F910F91FF90EF90DF90CF900895D5
:10030000CF93DF931F92CDB7DEB7698320915C0551
:100310002223F9F020917F05203258F021E030E0CF
:10032000FC013383228390E080E00F90DF91CF9136
:10033000089580915D05E82FF0E0E25AFA4F998127
:1003400090838F5F80935D0580937F0581E090E0CF
:10035000ECCF61E0CE0101960E940101F7CF90E061
:10036000FC01E859FF4F2491FC01E057FF4F349105
:10037000FC01EC55FF4FE491EE23C9F0222339F044
:10038000233001F1A8F4213019F1223029F1F0E0F5
:10039000EE0FFF1FE458FF4FA591B4918FB7F8946B
:1003A000EC91611126C030953E233C938FBF089598
:1003B0002730A9F02830C9F0243049F78091800017
:1003C0008F7D03C0809180008F7780938000DFCF86
:1003D00084B58F7784BDDBCF84B58F7DFBCF8091D3
:1003E000B0008F778093B000D2CF8091B0008F7D26
:1003F000F9CF3E2BDACF1092560581E08093550558
:100400001092300561E082E10E94AF0161E083E17A
:100410000E94AF01E9EBF0E080818E7F80838081D4
:100420008D7F808388E48093B80085E48093BC004E
:100430000895CF93DF9391E09093C5048823B9F09A
:10044000C091B800D091BA008091BC008A7B8093A3
:10045000BC0060E082E10E94AF0160E083E10E94A5
:10046000AF010E94FB01D093BA00C093B800DF91A6
:10047000CF910895CF93DF9390E0FC01E057FF4FB9
:1004800024918C559F4FFC0184918823D1F090E0FA
:10049000880F991FFC01EA57FF4FA591B491FC0109
:1004A000E458FF4FC591D491623071F49FB7F8942E
:1004B0003C91822F809583238C93E8812E2B288377
:1004C0009FBFDF91CF9108958FB7F894EC912E2BB9
:1004D0002C938FBFF6CF3FB7F89480919F049091F3
:1004E000A004A091A104B091A20426B5A89B05C0C8
:1004F0002F3F19F00196A11DB11D3FBFBA2FA92FA3
:10050000982F8827BC01CD01620F711D811D911D9F
:1005100042E0660F771F881F991F4A95D1F708950B
:100520008F929F92AF92BF92CF92DF92EF92FF9203
:100530000F931F93CF93DF93D0917F05D13208F0B3
:10054000D7C0182FC0917E050E946B026B017C0101
:100550008091560581116BC082E0809356051093FF
:1005600055058FEF8093540510925305D093520593
:10057000AEE5B5E0E2E3F5E080E0D81391C010927B
:10058000310580913105CC0FC82BC0933105809186
:100590003005813009F088C0109230050E946B024E
:1005A0006B017C01809131058093BB0080915805DF
:1005B00090915905A0915A05B0915B05892B8A2B22
:1005C0008B2BA1F00E946B020091580510915905E8
:1005D00020915A0530915B056C197D098E099F09A0
:1005E000061717072807390708F442C08091BC0096
:1005F00083FDD8CF85EC8093BC000E946B026B0119
:100600007C0180915605823009F450C080915405D8
:100610008F3F09F46FC080915405803209F46CC09B
:1006200080915405803309F469C084E026C080912C
:10063000580590915905A0915A05B0915B05892BF9
:100640008A2B8B2B09F484CF0E946B028090580573
:1006500090905905A0905A05B0905B056C197D09E2
:100660008E099F0986169706A806B90608F070CF6E
:10067000809157050E94190285E010925D05109245
:100680007F0510925C05DF91CF911F910F91FF9034
:10069000EF90DF90CF90BF90AF909F908F90089594
:1006A0009D9191938F5F69CF85EEA5CF809158057D
:1006B00090915905A0915A05B0915B05892B8A2B21
:1006C0008B2B09F49ECF0E946B020091580510916C
:1006D000590520915A0530915B056C197D098E09E9
:1006E0009F09061717072807390708F08ACFC0CFD8
:1006F00081E0C3CF80E0C1CF82E0BFCF83E0BDCF38
:10070000EF92FF920F931F93CF93DF93362FC091F9
:10071000B606D091B7069091B10621E020935C0512
:1007200090937E0510925D0510927F052091C8067A
:1007300041E050E060E070E07A018B0104C0EE0C13
:10074000FF1C001F111F8A95D2F7C7013130A1F598
:10075000822B8093C8066091C8068091BC066823EE
:100760008091C2069091BE068923682B6093C106D2
:10077000E881F9810190F081E02DCE010995809109
:10078000C8069091BC0689239091C3062091BE06AD
:100790009223892B8093C10681E00E949002982FBA
:1007A0008093D10681E0911180E0DF91CF911F917C
:1007B0000F91FF90EF90089580958223CACF8F927A
:1007C0009F92AF92BF92CF92DF92EF92FF924B0136
:1007D0005C010E946B026B017C010E946B026C1930
:1007E0007D098E099F09683E734081059105A8F334
:1007F00021E0821A9108A108B10888EEC80E83E0B2
:10080000D81EE11CF11C81149104A104B10429F744
:10081000FF90EF90DF90CF90BF90AF909F908F9020
:1008200008952FB7F89460919B0470919C04809177
:100830009D0490919E042FBF0895EF92FF920F9315
:100840001F93CF93DF9300D000D0CDB7DEB7FA016E
:1008500020E08E010F5F1F4F9E2F9F77EE0FEF2F2F
:10086000EE1FFF0BF195309709F09068D801A20FA9
:10087000B11D9C932F5F309779F730E0FB01E21BAD
:10088000F30B8483FB01E21BF30B3596D801CD01FA
:10089000801B910B821793071CF48D918193F7CFE6
:1008A0002F5F3F4F8091690690916A068901040F7E
:1008B000151F621B730B6B5F7F4FDC01ED91FC9189
:1008C0000280F381E02DA80109957C010E941104AA
:1008D00060937506709376068093770690937806FA
:1008E00081E00E151F0509F080E00F900F900F902A
:1008F0000F90DF91CF911F910F91FF90EF9008958E
:100900008F929F92AF92BF92CF92DF92EF92FF921F
:10091000CF93DF93EC010E9411044B015C018091A5
:10092000690690916A06DC01ED91FC910084F185E5
:10093000E02D0995892BB9F40E9411046B017C010B
:10094000C818D908EA08FB08209171063091720690
:10095000A8EEB3E00E94E723C616D706E806F9061C
:10096000F0F280E00DC08091690690916A06DC018A
:10097000ED91FC910284F385E02D0995888381E057
:10098000DF91CF91FF90EF90DF90CF90BF90AF902D
:100990009F908F9008952F923F924F925F926F9207
:1009A0007F928F929F92AF92BF92CF92DF92EF92FF
:1009B000FF920F931F93CF93DF93CDB7DEB72A97A4
:1009C0000FB6F894DEBF0FBECDBF1C0180916B0641
:1009D00090916C060E94800481111CC060E070E060
:1009E000CB012A960FB6F894DEBF0FBECDBFDF91C4
:1009F000CF911F910F91FF90EF90DF90CF90BF901C
:100A0000AF909F908F907F906F905F904F903F90AE
:100A10002F900895E0916B06F0916C06D0801982BA
:100A2000EE24E394F12C812C912C5401412C512C77
:100A300032014394CE0101960E948004882371F212
:100A400087010F5F1F4F8981E0916B06F0916C0663
:100A5000EE0DFF1D8083E981AE2FAF77B0E0A301DB
:100A600092010E948323860E971EA81EB91E37E0AE
:100A7000440C551C661C771C3A95D1F7E7FD3FC026
:100A8000BD2DB07FBE838FEF800FF1018083B03327
:100A900009F04CC080916B0690916C06800F911FFD
:100AA0000E948004882309F499CF20916B0630912D
:100AB0006C06C7010296820F931F0E948004882350
:100AC00009F48CCF0E5F1F4FE0916B06F0916C061E
:100AD000D1018C91DF01A80FB11D11968C91119756
:100AE00090E0982F882712962C91820F911D2081DB
:100AF00021FD0296F2E0E0E030E020E01DC0780148
:100B00000530110509F096CF8FEF9FEF90938D067A
:100B100080938C068091690690916A06DC01ED91C4
:100B2000FC910488F589E02D099558CFF0E0E0E0CC
:100B300030E020E090E080E070E060E0CF2EDE2E3C
:100B4000E32EF22E28013B014C185D086E087F0849
:100B50004A825B826C827D822C01712C612C4F82D7
:100B6000588669867A864A805B806C807D804C0CD2
:100B70005D1C6E1C7F1CC814D904EA04FB0408F039
:100B800046C0CE0101960E948004882309F426CF36
:100B900080918A0690918B06009711F12E81203367
:100BA000F9F4D1012C914EEF5FEF6FEF7FEF421B15
:100BB000510961097109440E551E661E771E2F8169
:100BC000388549855A85241535054605570540F46D
:100BD000DC01ED91FC910190F081E02D6981099596
:100BE00080916D0690916E060817190750F489815F
:100BF000E0916B06F0916C06E00FF11F80830F5FB0
:100C00001F4FBFEFCB1ADB0AEB0AFB0AACCF809178
:100C10008A0690918B06892B69F480916D069091DC
:100C20006E06B0E0A0E084159505A605B70510F4A2
:100C300010E000E0B80190E080E0D3CE0895AF92DC
:100C4000BF92CF92DF92EF92FF920F931F93CF93B9
:100C5000DF936C017B018B01040F151FEB015E011B
:100C6000AE18BF08C017D10759F06991D601ED91B0
:100C7000FC910190F081E02DC6010995892B79F74F
:100C8000C501DF91CF911F910F91FF90EF90DF9001
:100C9000CF90BF90AF900895FC01538D448D252FC8
:100CA00030E0842F90E0821B930B541710F0CF9606
:100CB000089501970895FC01918D828D981761F038
:100CC000A28DAE0FBF2FB11D5D968C91928D9F5F4F
:100CD0009F73928F90E008958FEF9FEF0895FC012E
:100CE000918D828D981731F0828DE80FF11D858DE1
:100CF00090E008958FEF9FEF0895FC01918D228D74
:100D0000892F90E0805C9F4F821B91098F739927F8
:100D1000089580E895E00E947D0621E0892B09F482
:100D200020E0822F089580E090E0892B29F00E9436
:100D3000890681110C9400000895FC01A48DA80F70
:100D4000B92FB11DA35ABF4F2C91848D90E001960D
:100D50008F739927848FA689B7892C93A089B1892D
:100D60008C91837080648C93938D848D981306C0CE
:100D70000288F389E02D80818F7D80830895EF9232
:100D8000FF920F931F93CF93DF93EC0181E0888F45
:100D90009B8D8C8D98131AC0E889F989808185FF15
:100DA00015C09FB7F894EE89FF896083E889F989B7
:100DB00080818370806480839FBF81E090E0DF91B9
:100DC000CF911F910F91FF90EF900895F62E0B8D0C
:100DD00010E00F5F1F4F0F731127E02E8C8D8E11C7
:100DE0000CC00FB607FCFACFE889F989808185FF2E
:100DF000F5CFCE010E949D06F1CFEB8DEC0FFD2FBC
:100E0000F11DE35AFF4FF0829FB7F8940B8FEA89E8
:100E1000FB8980818062CFCFCF93DF93EC01888DF7
:100E20008823B9F0AA89BB89E889F9898C9185FD65
:100E300003C0808186FD0DC00FB607FCF7CF8C91F3
:100E400085FFF2CF808185FFEDCFCE010E949D0608
:100E5000E9CFDF91CF910895FC0120812EBD9B0148
:100E60002150310941F051810DB407FEFDCF4EB53F
:100E70005EBD4193F5CF61507109860F971F0DB488
:100E800007FEFDCF2EB5FC0120830895E0912A05D1
:100E9000F0912B05808190912905892B80830895FD
:100EA000E0912A05F0912B0590818091290580958C
:100EB0008923808308958EBD00000DB407FEFDCF09
:100EC0008EB50895AF92BF92CF92DF92EF92FF92CC
:100ED0000F931F93CF93DF93CDB7DEB728970FB64D
:100EE000F894DEBF0FBECDBF8C017B016A018091FB
:100EF0002D058333E1F45801A40EB51EA016B106EA
:100F000009F46FC00E94500780EF0E945B07812F99
:100F10000E945B07802F0E945B070F5F1F4FF70146
:100F200081917F010E945B070E944607E7CF5B012A
:100F3000A40EB51E8433C1F40E94500719830A839E
:100F40008D2D80688B83CC8264E070E0CE010196A9
:100F50000E942C07AE14BF0409F441C0F70181912F
:100F60007F010E945B07F6CF0E9450070F3F1105DB
:100F700009F028F419820A8384E08B830CC017FDE2
:100F800017C019820A8333E0169507953A95E1F761
:100F9000007E0C600B8386E0C816D104A0F5F70133
:100FA000DE011496EA15FB0599F081918D93FACF35
:100FB000C80126E0969587952A95E1F7807E1983EA
:100FC0000A830115104C10F48461D7CF8C61D5CF02
:100FD000B6016D5F7F4FCE0101960E942C070E94E3
:100FE0004607C60128960FB6F894DEBF0FBECDBFE8
:100FF000DF91CF911F910F91FF90EF90DF90CF90F5
:10100000BF90AF90089563E070E0CE0101960E941A
:101010002C07F70181917F010E945B07AE14BF048A
:10102000C1F7DDCFCF93DF931F92CDB7DEB78983B2
:1010300041E050E0BE016F5F7F4F90E080E00E9492
:1010400062070F90DF91CF91089590E020912D05D8
:10105000233339F40C96982F990F990F990F80E04C
:1010600008954896F8CFDA01E0912E05F0E0FE2FC2
:10107000EE27E60FF71F90E0982F8827A901BD0102
:101080008E0F9F1F0C946207CF93DF9300D0CDB7D4
:10109000DEB779836A8322E030E0AE014F5F5F4FB5
:1010A00060E170E00E9433080F900F90DF91CF91C4
:1010B0000895CF93DF9300D0CDB7DEB779836A83ED
:1010C00022E030E0AE014F5F5F4F64E070E00E94CD
:1010D00033080F900F90DF91CF910895CF93DF9356
:1010E0001F92CDB7DEB720912E0530E0322F222798
:1010F000260F371F90E0982F8827498341E050E062
:10110000BE016F5F7F4F820F931F0E9462070F9097
:10111000DF91CF910895CF93DF931F92CDB7DEB7C4
:101120006983DC01ED91FC910280F381E02D41E0C7
:1011300050E0BE016F5F7F4F09950F90DF91CF9117
:101140000895FC019485FB018485981303C081E018
:10115000943008F080E00895CF93DF931F92CDB7CD
:10116000DEB76983DC01ED91FC910280F381E02D13
:1011700041E050E0BE016F5F7F4F09950F90DF9116
:10118000CF9108950895FF920F931F93CF93DF930C
:10119000EB01FC01178A168A2A81211109C02B81D3
:1011A000211106C02C81211103C02D81222301F1C0
:1011B00041155105E9F08A01FC01F08C80E591E0D0
:1011C0000E94F900AE014E5F5F4F24E030E06CE01A
:1011D00070E08F2D0E943308B8018F2D0E944408C3
:1011E00081E090E0DF91CF911F910F91FF900895E2
:1011F00080E0F7CFFC01848595850895FC01848902
:10120000958908952FEA31E0FC0131832083FB01A9
:101210004089518962897389FC01428353836483C5
:1012200075830895DC01ED91FC91048CF58DE02D22
:101230000994EF92FF920F931F93CF93DF93EC01EA
:101240008B017A010E941104688B798B8A8B9B8BAE
:101250008C819D81DC01ED91FC910280F381E02D78
:10126000A701B801DF91CF911F910F91FF90EF90EF
:1012700009941F93CF93DF93EC01162F0E94110462
:10128000688B798B8A8B9B8B8C819D81DC01ED91A6
:10129000FC910190F081E02D612FDF91CF911F91A2
:1012A0000994089590E080E00895FC0176876587B1
:1012B0000895DC01ED91FC9102A0F3A1E02D0995C8
:1012C00091E089270895862F089581E08627089563
:1012D00021E0FC018485883008F020E0822F089509
:1012E00008950F931F9341E050E060E070E08A01A1
:1012F0009B0104C0000F111F221F331F8A95D2F7D4
:10130000C801E9EAF6E02389282B238B2489282BBE
:10131000248B809595899823958B97899823978B13
:1013200096898923868B1F910F910895EF92FF92E2
:101330000F931F93CF93DF938C0160916D06709193
:101340006E0681EB91E00E947823EC010E94AA00D6
:101350008823F1F1E0906D06F0906E06B701C801A8
:101360000E9478239E01295F3F4F820F931FE8164A
:10137000F90670F160916B0670916C0645E050E0E3
:10138000C8010E948800E1EBF1E08C01015B114093
:10139000A8014E0F5F1F60916B0670916C069F0154
:1013A000215B31402C173D0730F42191640F751FEC
:1013B000DB012C93EDCF2597AE01480F591F80E339
:1013C000DF91CF911F910F91FF90EF900C941D042E
:1013D00080E0DF91CF911F910F91FF90EF900895E2
:1013E0000F931F93CF93DF93EC0100916D06109143
:1013F0006E06B8010E947823099608171907E8F1CC
:101400000E94AA008823C9F1809173069091740606
:10141000019681F19093740680937306E0916B06B8
:10142000F0916C06809174068583E0916B06F091D3
:101430006C0680917306868360916B0670916C06D2
:1014400047E050E0CE010E948800E0916B06F091E9
:101450006C06E80FF91F1082AC01445051096091ED
:101460006B0670916C0682E8DF91CF911F910F910E
:101470000C941D0481E090E0CDCF80E0DF91CF910E
:101480001F910F91089585ED8093BC0080915805C0
:1014900090915905A0915A05B0915B050796A11D41
:1014A000B11D23E0B695A795979587952A95D1F715
:1014B0002091BC0024FD03C0109256050895409170
:1014C00058055091590560915A0570915B05452B5F
:1014D000462B472B69F30097A105B10541F02AE29D
:1014E0002A95F1F700C00197A109B109E1CF8091D8
:1014F00057050C941902FC0124813581232B39F402
:1015000021E0FB018081882349F020E007C0808131
:1015100091810E94002621E0892BB9F7822F08953E
:101520000F931F93CF93DF93EC01888199810097EC
:1015300059F02A813B812617370730F081E0DF918F
:10154000CF911F910F9108958B016F5F7F4F0E9484
:101550002125009759F0998388831B830A832C8166
:101560003D81232B59F7FC011082E8CF80E0E7CFC3
:10157000FC0180819181009711F00C9498240895CA
:101580000C949824FB0101900020E9F73197AF01FA
:10159000461B570BDC01ED91FC910280F381E02D9D
:1015A00009948F929F92AF92BF92EF92FF920F9306
:1015B0001F93CF93DF93CDB7DEB7A1970FB6F89403
:1015C000DEBF0FBECDBF7C01FA01CB0119A22230D4
:1015D00008F42AE08E010F5D1F4F822E912CB12C52
:1015E000A12CBF01A50194010E94C523F901CA01E4
:1015F0006A300CF5605DD8016E938D01232B242B8E
:10160000252B79F790E080E0109721F0BD01C7010C
:101610000E94C20AA1960FB6F894DEBF0FBECDBFDE
:10162000DF91CF911F910F91FF90EF90BF90AF90FE
:101630009F908F900895695CDECF8F929F92AF92BA
:10164000BF92CF92DF92EF92FF920F931F93CF93AF
:10165000DF937C01EB016C0182E0C80ED11C4701D5
:10166000E5E08E0E911C10E000E0F60141916F0163
:1016700050E070E060E02AE0CE010E94D10A5C01F7
:10168000E881F9810190F081E02D6EE2CE010995AB
:101690008A0D9B1D080F191FC814D90431F7F701D3
:1016A000458150E070E060E02AE0CE010E94D10A5E
:1016B000800F911FDF91CF911F910F91FF90EF90BD
:1016C000DF90CF90BF90AF909F908F900895CF9371
:1016D000DF93BC0180E895E00E94C20AEC0168EB50
:1016E00071E080E895E00E94C20A8C0F9D1FDF9197
:1016F000CF910895EF92FF920F931F93CF93DF93B3
:10170000EC01198218821B821A821D821C826115CB
:101710007105E1F08B01FB0101900020E9F73197A1
:101720007F01E61AF70AB7010E94900A28813981E1
:10173000811113C02115310519F0C9010E949824A7
:10174000198218821D821C821B821A82DF91CF911E
:101750001F910F91FF90EF900895FD82EC82B801E8
:10176000C901DF91CF911F910F91FF90EF900C94E1
:101770000926AF92BF92CF92DF92EF92FF920F9322
:101780001F93CF93DF93CDB7DEB72C970FB6F894A6
:10179000DEBF0FBECDBF8C016B015A016BEB71E058
:1017A00080E895E00E94C20A0115110529F0B801F0
:1017B00080E895E00E94C20A61ED71E080E895E062
:1017C0000E94C20A6AEB71E0CE0107960E947A0B72
:1017D0007601AC0CBD1C4B855C85AE14BF04F1F0EA
:1017E000F70181917F0189831A826A01FFEFCF1A85
:1017F000DF0AB601CE0107960E94900A882359F3AA
:101800002F8138858B859C85BE016F5F7F4F820F4E
:10181000931F0E940926DC86CB86DDCF6F817885F9
:1018200080E895E00E941F0668EB71E080E895E093
:101830000E94C20AB801CE0101960E947A0B65EDA2
:1018400071E0CE0101960E947B0AF82ECE0101962E
:101850000E94B80AFF2089F064EF71E0CE0107967C
:101860000E947B0A882309F412C187EF91E00E944D
:10187000670B60E080E00E948003B801CE01019612
:101880000E947A0B68E272E0CE0101960E947B0A08
:10189000F82ECE0101960E94B80AFF2089F064EF6D
:1018A00071E0CE0107960E947B0A882309F4FEC0EE
:1018B00086E492E00E94670B60E081E00E94800372
:1018C000B801CE0101960E947A0B61E772E0CE0169
:1018D00001960E947B0AF82ECE0101960E94B80A5A
:1018E000FF2089F064EF71E0CE0107960E947B0A29
:1018F000882309F4EAC08EE892E00E94670B60E05A
:1019000082E00E948003B801CE0101960E947A0B0A
:1019100066EB72E0CE0101960E947B0AF82ECE01A2
:1019200001960E94B80AFF2089F064EF71E0CE01B1
:1019300007960E947B0A882309F4D6C084ED92E0C2
:101940000E94670B60E083E00E948003B801CE0133
:1019500001960E947A0B6FEF72E0CE0101960E9411
:101960007B0AF82ECE0101960E94B80AFF2089F06A
:1019700064EF71E0CE0107960E947B0A882309F488
:10198000C2C08BE193E00E94670B60E084E00E949C
:101990008003B801CE0101960E947A0B62E473E0E5
:1019A000CE0101960E947B0AF82ECE0101960E947C
:1019B000B80AFF2089F064EF71E0CE0107960E941B
:1019C0007B0A882309F4AEC08EE593E00E94670B82
:1019D00060E085E00E948003B801CE0101960E947C
:1019E0007A0B65E873E0CE0101960E947B0AF82E1F
:1019F000CE0101960E94B80AFF2089F064EF71E0E1
:101A0000CE0107960E947B0A882309F49AC081EAD6
:101A100093E00E94670B60E086E00E948003B801BB
:101A2000CE0101960E947A0B68EC73E0CE0101961C
:101A30000E947B0A182FCE0101960E94B80A11233A
:101A400089F064EF71E0CE0107960E947B0A88233B
:101A500009F486C086EE93E00E94670B60E087E0A1
:101A60000E948003CE0107960E94B80A2C960FB6FA
:101A7000F894DEBF0FBECDBFDF91CF911F910F91C4
:101A8000FF90EF90DF90CF90BF90AF9008956DE002
:101A900072E0CE0107960E947B0A882309F4EDCEFE
:101AA00081E192E00E94670B61E0E4CE6DE072E0BC
:101AB000CE0107960E947B0A882309F401CF8BE5AB
:101AC00092E00E94670B61E0F8CE6DE072E0CE011B
:101AD00007960E947B0A882309F415CF82EA92E0D8
:101AE0000E94670B61E00CCF6DE072E0CE010796BB
:101AF0000E947B0A882309F429CF89EE92E00E9494
:101B0000670B61E020CF6DE072E0CE0107960E9486
:101B10007B0A882309F43DCF8EE293E00E94670B95
:101B200061E034CF6DE072E0CE0107960E947B0A3F
:101B3000882309F451CF81E793E00E94670B61E0AD
:101B400048CF6DE072E0CE0107960E947B0A8823A1
:101B500009F465CF84EB93E00E94670B61E05CCFF2
:101B60006DE072E0CE0107960E947B0A882309F49B
:101B700079CF8BEF93E00E94670B61E070CFAF925B
:101B8000BF92CF92DF92EF92FF920F931F93CF936A
:101B9000DF9300D000D0CDB7DEB78C016B017A01A6
:101BA00080912D058333E9F45B016801C40ED51ED5
:101BB000C016D106A9F10E9450078FE00E945B0772
:101BC000812F0E945B07802F0E945B070F5F1F4FD2
:101BD00080E00E945B07F50181935F010E94460748
:101BE000E7CF843369F50E94500719830A838F2D4C
:101BF0008F778B83EC8264E070E0CE0101960E94C7
:101C00002C07A70170E060E0C6010E94F925E114ED
:101C1000F10421F0B701C6010E942C070E9446077B
:101C2000C7010F900F900F900F90DF91CF911F91F0
:101C30000F91FF90EF90DF90CF90BF90AF900895FD
:101C40000E9450070F3F110509F030F419820A83F2
:101C50001B8263E070E0D1CF17FD0BC019820A83AD
:101C600033E0169507953A95E1F7007E08600B83FF
:101C7000F0CFC80126E0969587952A95E1F7807EFA
:101C800019830A830115104C18F480618B83E1CF0E
:101C90008861FCCFCF93DF931F92CDB7DEB7209141
:101CA0002E0530E0322F2227260F371F90E0982F85
:101CB000882741E050E0BE016F5F7F4F820F931F86
:101CC0000E94BF0D89810F90DF91CF910895CF932E
:101CD000C82F462F61E070E00E946E0861E070E05E
:101CE0008C2F0E944A0E8111F9CFCF910895CF9386
:101CF000C82F80E591E00E94F90068E070E08C2F29
:101D0000CF910C94670ECF93C82F80E591E00E948D
:101D1000F90060E170E08C2FCF910C94670ECF93A7
:101D2000DF93EC01888D843020F40E94830E84E0E0
:101D3000888FDF91CF910895CF93C82F80E591E0F0
:101D40000E94F90063E070E08C2FCF910C944A0E52
:101D5000CF93DF93EC018C858430D0F40E949C0EED
:101D6000843189F0882379F0883169F021E08C3161
:101D700059F4E881F9810084F185E02DCE010995BF
:101D800021E0892B09F420E0822FDF91CF91089583
:101D900080E0FBCFCF92DF92EF92FF92CF93DF9361
:101DA000EC018C85843068F40E94770E0E94110447
:101DB0006B017C018C850E949C0E811109C084E01E
:101DC0008C87DF91CF91FF90EF90DF90CF900895B7
:101DD00061E070E080E090E00E94DF030E94110467
:101DE000AB01BC014C195D096E097F098D859E858B
:101DF000B0E0A0E0481759076A077B07D8F28C8546
:101E00000E94830EDCCFCF93FC01C08D80E591E072
:101E10000E94F90060E270E08C2F0E94670E62E081
:101E200070E08C2F0E944A0E84FD16C062E070E0C4
:101E30008C2F0E944A0E83FF0AC048E162E070E0E6
:101E40008C2F0E946E0880E090E0CF91089580E58D
:101E500091E00E94F900E3CF40E162E070E08C2F56
:101E60000E946E0881E0F0CFCF93DF931F92CDB731
:101E7000DEB741E050E0BE016F5F7F4F90E080E051
:101E80000E94BF0D89810F90DF91CF910895CF936C
:101E9000DF93C4E1D0E00E94340F882361F061E059
:101EA00070E080E090E00E94DF032197A1F780E0DE
:101EB000DF91CF91089581E0FBCFCF92DF92EF9237
:101EC000FF920F931F93CF93DF93CDB7DEB7C45428
:101ED000D1090FB6F894DEBF0FBECDBFFC018281E1
:101EE0009381A481B58123968CAF9DAFAEAFBFAF78
:101EF000239721E023962FAF239723964CAD5DAD1A
:101F00006EAD7FAD23974BAB5CAB6DAB7EAB89AF5A
:101F10009AAFABAFBCAF8DA79EA7AFA7B8AB28ABAE
:101F20004DA55EA56FA578A94FA358A769A77AA765
:101F30002EAB4BA95CA96DA97EA949A35AA36BA39B
:101F40007CA38B8F9C8FAD8FBE8F4FEA51E05C8B53
:101F50004B8B3FEF3D8B3E8B3F8B188E5E874D87C3
:101F60002AA7CFA0D8A4E9A4FAA4CF86D88AE98A60
:101F7000FA8A2CA309A11AA12BA13CA109871A87CF
:101F80002B873C875A8349838B839C83AD83BE8395
:101F900080912F058111AFC060E372E080E090E096
:101FA0000E94DF03DFB6F8940EEA10E03AE9E32E70
:101FB00030E0F32E80912C05811125C0F801849129
:101FC000F7019491E82FF0E0EE0FFF1FEA57FF4F63
:101FD000A591B4918C91982321F461E08AE00E944C
:101FE000AF0161E08AE00E943A028CB580618CBD4D
:101FF0008CB580648CBD61E08DE00E943A0261E0A6
:102000008BE00E943A0280912C058F5F80932C0513
:10201000DFBEF8010491E02FF0E0EE0FFF1FE4585F
:10202000FF4F8591949190932B0580932A05F7019A
:10203000E490E092290561E08AE00E943A020E9461
:10204000460780E591E00E94F90084E380932D0526
:1020500080E80E9412080E94470F882309F481C07B
:1020600088E00E9412080E94340F883009F079C07D
:1020700080E10E9412080E94340F803109F071C083
:1020800080E00E9412080E94340F182F811169C04D
:1020900041E050E0BE016D5B7F4F8FE190E00E9418
:1020A000BF0D24968FAD2497833009F05AC080E489
:1020B00080932E0542E06EE170E0812F0E946E0851
:1020C00042E06FE170E0812F0E946E081F5F1430C4
:1020D00089F740E06EE170E0812F0E946E0840E0D9
:1020E0006FE170E0812F0E946E081F5F183089F742
:1020F00081E080932F0580E591E00E94F90046E0A1
:1021000050E066E071E089E090E00E94620744E000
:1021100050E0BE016D5F7F4F8FE090E00E9462074C
:1021200044E050E0BE01615F7F4F81E090E00E949B
:10213000620744E050E0BE016B5E7F4F85E090E0B7
:102140000E94620781E08C8789859A85AB85BC8572
:102150008093490690934A06A0934B06B0934C0691
:102160006FC087E380932D0580E80E9412080E94CB
:10217000470F882339F188E00E9412080E94340F2B
:10218000883001F580E10E9412080E94340F182F58
:102190008031C1F480E00E9412080E94340F811146
:1021A00011C041E050E0BE016D5B7F4F89E390E0DC
:1021B0000E94BF0D24968FAD2497843019F410939C
:1021C0002E0596CF83E380932D0580E80E941208A8
:1021D0000E94470F882391F180E10E9412080E941B
:1021E000340F803159F582E10E9412080E94340FA9
:1021F000823121F580E00E9412080E94340F811183
:102200001DC084E080932E0515E525961FAF259708
:1022100041E050E0BE016C5B7F4F8BE190E00E949B
:10222000620724961FAF249741E050E0BE016D5B2A
:102230007F4F8AE190E00E9462075ACF10922D05ED
:10224000CC5BDF4F0FB6F894DEBF0FBECDBFDF9182
:10225000CF911F910F91FF90EF90DF90CF90089555
:102260001F93CF93DF931F92CDB7DEB7182F80E572
:1022700091E00E94F900812F0E94250827E0129F1B
:10228000F0011124E35FFA4F22813381377041E07E
:1022900050E0BE016F5F7F4F820F931F0E94BF0D02
:1022A00089810F90DF91CF911F910895FC01808D5E
:1022B000843040F4218D328D232B21F00E94301187
:1022C00090E008958FEF9FEF0895CF93DF93FC0187
:1022D0002485243028F08FEF9FEFDF91CF91089570
:1022E000EC010190F081E02D0084F185E02D09954D
:1022F000892B89F38C850E94301190E0EECFDA01B2
:10230000E0912E05F0E0FE2FEE27E60FF71F90E09C
:10231000982F8827A901BD018E0F9F1F0C94BF0D18
:102320008F929F92AF92BF92CF92DF92EF92FF92E5
:102330001F93CF93DF93CDB7DEB72C970FB6F894EA
:10234000DEBF0FBECDBF20912D0514E0222339F151
:102350006B017C0180E591E00E94F9005E0127E0BD
:10236000A20EB11C450110E063E070E0812F0E94D5
:102370004A0EF40181934F01882349F11F5F143005
:1023800099F710E0F50181915F018D31D9F0883125
:10239000C9F08A518230B0F01F5F143099F7812F55
:1023A0002C960FB6F894DEBF0FBECDBFDF91CF9154
:1023B0001F91FF90EF90DF90CF90BF90AF909F90D4
:1023C0008F90089560E170E0812F0E94670EA12E2A
:1023D000B12C83EE93E00197F1F742E870E060E002
:1023E000812F0E946E084FEF62E070E0812F0E9403
:1023F0006E08B601C114D10491F48091040190914A
:10240000050101968115F0EC9F0708F45CC09093DC
:102410000501809304016091040170910501812FF1
:102420000E94590886E0E2E1F1E0DE011196019098
:102430000D928A95E1F7F70183818F778C838481F0
:102440008D8385818E83A7014E5F5F4F24E030E04E
:102450006CE070E0812F0E943308B601812F0E944A
:10246000440826E030E0AE014F5F5F4F66E070E069
:10247000812F0E94330861E070E0812F0E94670E77
:1024800027E02A9DC0012B9D900D11249C01235F04
:102490003A4F7901F9011182108222E030E0AE0159
:1024A000455F5F4F68E270E0812F0E947F118B854E
:1024B0009C85982789279827F70193838283168222
:1024C000158214826CCF80E090ECA1CFCF92DF9286
:1024D000EF92FF920F931F93CF93DF9300D000D022
:1024E00000D0CDB7DEB78C016B017A01FC01808D85
:1024F000843010F40E94830E8FEA91E09A838983DE
:10250000F60182819381A481B5818B839C83AD8305
:10251000BE83B701CE0101960E949011F801808F11
:102520008430A0F4F586E486128E118E81E0269622
:102530000FB6F894DEBF0FBECDBFDF91CF911F91D4
:102540000F91FF90EF90DF90CF90089580E0EFCF54
:10255000AF92BF92CF92DF92EF92FF920F931F93B1
:10256000CF93DF9300D000D000D0CDB7DEB7082FD7
:102570006B0180E591E00E94F9009E012F5F3F4FC3
:102580007901590110E063E070E0812F0E944A0E4A
:10259000F50181935F01882341F11F5F143099F7A2
:1025A00010E0F70181917F018D31D1F08831C1F0C8
:1025B0008A518230A8F01F5F143099F7812F269638
:1025C0000FB6F894DEBF0FBECDBFDF91CF911F9144
:1025D0000F91FF90EF90DF90CF90BF90AF90089554
:1025E00060E170E0812F0E94670EE12EF12C83EEF6
:1025F00093E00197F1F7402F70E060E0812F0E9497
:102600006E084FEF62E070E0812F0E946E08B60105
:10261000CD2889F4809104019091050101968115DE
:10262000F0EC9F0798F1909305018093040160916D
:10263000040170910501812F0E94590861E070E04A
:10264000812F0E94670E27E02E9DC0012F9D900DC7
:1026500011249C01235F3A4F7901F9011182108204
:1026600022E030E0AE014B5F5F4F68E270E0812F07
:102670000E947F118D819E81982789279827F701D5
:102680009383828316821582148298CF80E090EC27
:10269000CACFCF92DF92EF92FF921F93CF93DF9337
:1026A000EC017B016A018C85843048F40E949C0E09
:1026B000882319F08C850E94770E84E08C87F701BF
:1026C00082819381A481B5810097A105B10551F460
:1026D00090E080E0DF91CF911F91FF90EF90DF902D
:1026E000CF9008958F3F9F4FAF4FBF4F89F3809199
:1026F0002D05811103C084E08C87EACF70E060E093
:1027000081E20E94A812182F8C87843008F780E598
:1027100091E00E94F900A7014E5F5F4F24E030E096
:102720006CE070E0812F0E943308B601812F0E9477
:10273000440864E070E0812F0E94670E0E9411043B
:102740006B017C018C850E949C0E873109F18C31D4
:10275000F9F0882309F4BCCF0E941104AB01BC013D
:102760004C195D096E097F098D859E85B0E0A0E05A
:1027700084179507A607B70738F061E070E080E09E
:1027800090E00E94DF03DECF8C850E94830EB3CFE2
:1027900081E090E09FCF0F931F93CF93DF93EC01E5
:1027A0008B01888D843010F40E94830E80912D055A
:1027B000811107C094E0988FDF91CF911F910F9105
:1027C0000895B80182E00E94A812888F843030F406
:1027D0001D870C871A8E198E81E0EECF80E0ECCF3A
:1027E0007F928F929F92AF92BF92CF92DF92EF92A1
:1027F000FF920F931F93CF93DF9300D0CDB7DEB737
:10280000782E8B014A01590122E030E0AE014F5F82
:102810005F4F64E270E00E947F11E980FA80FE243D
:10282000EF24FE24E00EF11E9701377040912D0534
:10283000072D10E0433309F042C0085F1F4F102FEF
:102840000027110F110F110FC901800F911F47337E
:10285000C9F1A9014A0D5B1D4130584098F160E073
:1028600078E06B01C21AD30AA601B4010E94620784
:10287000A5014C195D09B4016C0D7D1DC8010E94B4
:102880006207EA0CFB1CF982EA8222E030E0AE012A
:102890004F5F5F4F64E270E0872D0E9433080F9016
:1028A0000F90DF91CF911F910F91FF90EF90DF90EC
:1028B000CF90BF90AF909F908F907F900895005FD2
:1028C0001F4FBDCFA501B401DACFEF92FF921F9346
:1028D000CF93DF9300D0CDB7DEB7182F22E030E0E2
:1028E000AE014F5F5F4F60E270E00E947F11E980B0
:1028F000FA80FE24EF24FE2422E030E0AE014F5F98
:102900005F4F60E270E0812F0E947F1189819A8180
:10291000982789279827E816F90689F487E0189FF1
:10292000F0011124E35FFA4FF582E482C7010F90B2
:102930000F90DF91CF911F91FF90EF9008957C0150
:10294000DBCF1F93CF93DF93182F80E591E00E9498
:10295000F900812F0E946514EC0163E070E0812F83
:102960000E944A0E873121F08C3111F0D0E0C0E096
:10297000CE01DF91CF911F910895CF93DF93EC01AA
:102980008C85843060F40E949C0E873111F08C316C
:1029900031F48C850E94A1148115984088F3DF9151
:1029A000CF910895FC018485843010F40C94A11417
:1029B00090E080E008959F92AF92BF92CF92DF9215
:1029C000EF92FF920F931F93CF93DF938C015B01E4
:1029D000942EE52EFC01C688D788F08C80E591E026
:1029E0000E94F9008F2D0E946514C92DDE2D8C17D1
:1029F0009D0708F4EC019E01A501B6018F2D0E94F0
:102A0000F013F801868997898C0F9D1F978B868B11
:102A1000CE01DF91CF911F910F91FF90EF90DF904A
:102A2000CF90BF90AF909F9008958F929F92AF925A
:102A3000BF92CF92DF92EF92FF920F931F93CF93AB
:102A40006C015B018A01FC01C485C430F0F57A0198
:102A50004130584018F0E12C88E0F82E80E591E0F4
:102A60000E94F9008C2F0E9465144C0163E070E015
:102A70008C2F0E944A0E873111F08C3149F58E144B
:102A80009F0460F380E591E00E94F9009701A501A1
:102A900070E060E08C2F0E94F01360E270E08C2FF9
:102AA0000E94670E62E070E08C2F0E944A0E84FD47
:102AB00017C063E070E08C2F0E944A0E81110BC09A
:102AC00081E090E0F6019383828310E000E010C083
:102AD000F12CE12CD7CF80E591E00E94F900E2CF04
:102AE00040E162E070E08C2F0E946E08EF2841F315
:102AF000C801CF911F910F91FF90EF90DF90CF9081
:102B0000BF90AF909F908F900895FF920F931F9367
:102B1000CF93DF9300D0CDB7DEB7F82E22E030E0C0
:102B2000AE014F5F5F4F66E270E00E947F11098146
:102B30001A8110270127102722E030E0AE014F5FF5
:102B40005F4F66E270E08F2D0E947F1189819A812C
:102B50009827892798270817190749F4C8010F9063
:102B60000F90DF91CF911F910F91FF9008958C01ED
:102B7000E3CF1F93CF93DF93182F87E0189FE001D7
:102B80001124C35FDA4F88819981009761F480E551
:102B900091E00E94F900812F0E9485152E81821BF1
:102BA000910999838883DF91CF911F910895FC014A
:102BB0008485843010F40C94B91590E080E0089579
:102BC0004F925F927F928F929F92AF92BF92CF92DD
:102BD000DF92EF92FF920F931F93CF93DF9300D07A
:102BE000CDB7DEB7782E6B014A01A82EB12C27E0B5
:102BF000829FC0011124FC01E35FFA4F7F01008135
:102C0000118180E591E00E94F9000815190554F43E
:102C1000872D0E948515F70126818C01021B110961
:102C2000118300830115110529F563E070E0872DFC
:102C30000E944A0E843159F0882349F001E010E0E7
:102C40008C3111F410E000E0119501951109C801D3
:102C50000F900F90DF91CF911F910F91FF90EF9008
:102C6000DF90CF90BF90AF909F908F907F905F90BC
:102C70004F900895801691060CF4840187E08A9D98
:102C8000F0018B9DF00D1124E35FFA4FE280F38099
:102C9000C114D10451F12701F7E05F22872D0E9472
:102CA0002508840D951D20912D05273309F453C067
:102CB0009801240D351D2130384008F44CC020E027
:102CC00038E0490184189508A401B6010E94BF0D9F
:102CD0002601480C591C6801C818D908872D0E9484
:102CE0002508A601B2010E94BF0DE00EF11E87E08B
:102CF0008A9DF0018B9DF00D1124E35FFA4FF38262
:102D0000E28220813181201B310B31832083868137
:102D1000800F912F911D8A3F910510F4232BF1F420
:102D200087E08A9DF0018B9DF00D1124E35FFA4F3F
:102D30001682F982EA8222E030E0AE014F5F5F4FF7
:102D400068E270E0872D0E94330860E470E0872D10
:102D50000E94670E7CCFA801B601C5CF868377CFCE
:102D6000CF93DF93FC01218D328D2115310529F49C
:102D70008FEF9FEFDF91CF910895EC01808D421787
:102D8000530708F0A9010E94E0151816190684F7E8
:102D9000298D3A8D281B390B3A8F298FEBCF0F9352
:102DA0001F93CF93DF931F92CDB7DEB7FC01218D28
:102DB000328D232B41F48FEF9FEF0F90DF91CF9156
:102DC0001F910F9108958C0141E050E0BE016F5FAB
:102DD0007F4FFC01808D0E94E015181619065CF7E4
:102DE000F801818D928D0197928F818F898190E07A
:102DF000E4CFCF93DF931F92CDB7DEB741E050E031
:102E0000BE016F5F7F4FFC0184850E94E01518169C
:102E1000190634F4898190E00F90DF91CF910895E5
:102E20008FEF9FEFF9CFFC018485843010F40C9470
:102E3000E01590E080E008950F931F93CF93DF9308
:102E400000D0CDB7DEB7FC0124852430E0F48C013E
:102E500080E591E00E94F90022E030E0AE014F5F92
:102E60005F4F60E170E0F80184850E947F118981E5
:102E70009A819827892798270F900F90DF91CF91FB
:102E80001F910F91089590E080E0F6CF0F931F936C
:102E9000CF93DF9300D0CDB7DEB7FC01248524307B
:102EA000E0F48C0180E591E00E94F90022E030E03E
:102EB000AE014F5F5F4F64E070E0F80184850E94CF
:102EC0007F1189819A819827892798270F900F90E1
:102ED000DF91CF911F910F91089590E080E0F6CFA0
:102EE0000F931F93CF93DF93CDB7DEB728970FB61D
:102EF000F894DEBF0FBECDBF8C01D80159964D911D
:102F00005C915A974115510551F0ED91FC91048C5B
:102F1000F58DE02D70E060E0C8010995EECFF80175
:102F2000808D0E94B915892BB1F148E050E0BE01B7
:102F30006F5F7F4FD80158968C910E94E01518164C
:102F40001906F4F4D801509684E0FE013196019000
:102F50000D928A95E1F78D8190E0982F88272E8138
:102F6000820F911DF801958B848B8F81282F30E083
:102F7000322F22278885820F932F911D928F818F68
:102F800028960FB6F894DEBF0FBECDBFDF91CF916C
:102F90001F910F91089590E080E0F2CF4F925F92E1
:102FA0006F927F928F929F92AF92BF92CF92DF9259
:102FB000EF92FF920F931F93CF93DF93CDB7DEB7BE
:102FC00063970FB6F894DEBF0FBECDBF7C016B01D7
:102FD0003A01FB0120E090E080E06AE03191332388
:102FE00009F461C040ED430F4A3008F04DC0689FBE
:102FF000A001699F500D1124CA01C097830F911D34
:1030000037FD9A958F3F910549F340F3F7014281CF
:103010005381648175818091250690912606A09147
:103020002706B0912806481759076A077B0709F455
:103030000DC28701085F1F4F0E9411046F70772730
:103040007C5FC8010E94CB13813009F004C28FEA73
:1030500091E09A838983F70182819381A481B5816C
:103060008B839C83AD83BE8345E350E0BE016F5FDD
:103070007F4FC8010E94C308892BA9F5D12CC12C10
:10308000C8010E948F0E17C03E3209F0BFCF233017
:1030900009F4BCCFD301A20FB11D12968C932F5F00
:1030A00090E080E09BCF233009F0B0CFF30185831F
:1030B000CC24C394D12CC60163960FB6F894DEBF1E
:1030C0000FBECDBFDF91CF911F910F91FF90EF9079
:1030D000DF90CF90BF90AF909F908F907F906F9038
:1030E0005F904F9008950E941104F70177836683E3
:1030F00042E050E0B7016A5F7F4FC8010E94DB14D5
:1031000081E090E09A83898342E050E0BE016F5FE6
:103110007F4FC8010E94DB1480E091E09A8389838D
:1031200042E050E0BE016F5F7F4FC8010E94DB1498
:103130001A82198242E050E0BE016F5F7F4FC801E2
:103140000E94DB1442E050E0BE016F5F7F4FC80178
:103150000E94DB1442E050E0BE016F5F7F4FC80168
:103160000E94DB145601F6018081882301F165017C
:10317000F60181912F01882311F08E32B1F44601BE
:103180008A189B081814190474F48D8641E050E0E5
:10319000BE01635F7F4FC8010E94DB14A401B5012B
:1031A000C8010E94DB145201DECF6201E1CF1D860F
:1031B00041E050E0BE01635F7F4FC8010E94DB1415
:1031C000C12CDD24D394DA82C98242E050E0BE01F2
:1031D0006F5F7F4FC8010E94DB14DA82C98242E030
:1031E00050E0BE016F5F7F4FC8010E94DB14C80131
:1031F0000E94030F892B09F441CFF3E0AF2EB12CCD
:10320000230122E0420E511CD4C0F70142815381B8
:1032100064817581808D918DA28DB38D481759077A
:103220006A077B0709F008C1848D958DC59709F061
:1032300003C181A192A15DEFC52EDD24DA940C9724
:103240000CF4ADC04CE050E0BE016F5F7F4FC80191
:103250000E94B0168B819C819827892798279A8B8A
:10326000898BF7014681578129813A81421753079B
:1032700009F0E7C097FFE5C08F7092703BEFC32E57
:10328000DD24DA94892B09F08AC06F807884762453
:10329000672476242AEFC22EDD24DA9461147104A7
:1032A00009F47DC0D12CC12C8D819E81982789275E
:1032B0009827C816D906F8F441E050E0BE01635FD4
:1032C0007F4FC8010E94B0164D85442331F050E075
:1032D00070E060E0C8010E94B0168D858111ECCFCE
:1032E00044E050E070E060E0C8010E94B016FFEFDB
:1032F000CF1ADF0AD9CF912C812C41E050E0BE01DA
:103300006D5E7F4FC8010E94B0164B89842F807C70
:1033100009F06CC0442331F050E070E060E0C80177
:103320000E94B0168B898111E8CF42E050E0BE01C7
:10333000615F7F4FC8010E94B01642E050E0BE01BD
:10334000635F7F4FC8010E94B01644E050E070E018
:1033500060E0C8010E94B01642E050E0BE016F5E1E
:103360007F4FC8010E94B0168F85988949895A8974
:103370008115914009F043C0CD84DE84DC24CD2446
:10338000DC2481E0C816D104D1F54115544009F080
:103390004AC044E050E0B201C8010E94B01621E0EA
:1033A000A21AB10809F46CCEFFEFCF16DF0609F0C0
:1033B00067CE0E9411043B014C01C8010E947017A6
:1033C000181619060CF421CF0E941104661977090A
:1033D00088099909693873418105910548F562E3C7
:1033E00070E080E090E00E94DF03E7CF41E050E032
:1033F00070E060E0C8010E94B0161B8A93CF54278A
:103400004527542770E060E0C8010E94B016FFEF26
:103410008F1A9F0A6814790409F06FCF96EFC92EAE
:10342000DD24DA94BCCFE7EFCE2EDD24DA94B7CFDB
:10343000CC24CA94DC2CB3CF6EEFC62EDD24DA94F4
:10344000AECF4CEFC42EDD24DA94A9CF8EEFC82E78
:10345000DD24DA9430CED12CC12C2DCECF92DF9248
:10346000EF92FF920F931F93CF93DF93CDB7DEB709
:10347000AF970FB6F894DEBF0FBECDBF7C016A01D7
:103480000FEA11E01A8309831C861B8688EE93E0FD
:10349000A0E0B0E08D879E87AF87B88B83E291E094
:1034A0009A878987188F0F8B198E1A8E1B8E1C8E08
:1034B00084E089A31BA70AA71CA61DA61EA61FA6FB
:1034C0008091490690914A06A0914B06B0914C0616
:1034D0008EA39FA3A8A7B9A78B839C83AD83BE832C
:1034E00018861F82AE01465D5F4FCE0101960E9495
:1034F000CE1781309105B1F4D701ED91FC9104888C
:10350000F589E02D1DA30CA38CA59DA5AEA5BFA597
:103510008EA39FA3A8A7B9A7A601BE016C5D7F4F8C
:10352000C7010995AF960FB6F894DEBF0FBECDBFA9
:10353000DF91CF911F910F91FF90EF90DF90CF908F
:103540000895CF92DF92EF92FF920F931F93CF9344
:10355000DF93CDB7DEB7AF970FB6F894DEBF0FBEDF
:10356000CDBF8C016B017A018FEA91E09A83898348
:103570001B821C821D821E821C861B8648EE53E025
:1035800060E070E04D875E876F87788B23E231E0E3
:103590003A872987988F8F8B198E1A8E1B8E1C8ED7
:1035A00024E029A39BA78AA71CA61DA61EA61FA6CA
:1035B000D8011C968C91843060F40E949C0E882364
:1035C00021F0F80184850E94770E84E0D8011C96D2
:1035D0008C938091490690914A06A0914B06B09138
:1035E0004C068EA39FA3A8A7B9A78B839C83AD830A
:1035F000BE8318861F82AE01465D5F4FB601CE01C5
:1036000001960E94CE170097C1F0D801ED91FC9170
:103610000684F785E02D8FEA91E09DA38CA38CA50D
:103620009DA5AEA5BFA58EA39FA3A8A7B9A7A701D7
:10363000BE016C5D7F4FC8010995AF960FB6F89437
:10364000DEBF0FBECDBFDF91CF911F910F91FF90D5
:10365000EF90DF90CF900895EF92FF920F931F931A
:10366000CF93DF9300D000D0CDB7DEB78C017B01C4
:10367000FB0184858430A8F08FEA91E0F801918302
:1036800080831282138214821582C8010F900F90DA
:103690000F900F90DF91CF911F910F91FF90EF90BE
:1036A000089580E591E00E94F90024E030E0AE0149
:1036B0004F5F5F4F6CE070E0F70184850E947F11DF
:1036C0008FEA91E0F8019183808389819A81AB81AF
:1036D000BC8182839383A483B583D7CF1F920F923B
:1036E0000FB60F9211242F933F934F935F936F93D5
:1036F0007F938F939F93AF93BF93EF93FF938091AB
:10370000B900887F803609F44AC0F0F5883209F4A0
:10371000A7C018F5803109F49BC0B8F4882309F4D8
:10372000F9C0883009F494C0FF91EF91BF91AF9137
:103730009F918F917F916F915F914F913F912F91C9
:103740000F900FBE0F901F901895883109F488C014
:10375000803251F78093540514C0803409F49DC021
:1037600040F48033B9F38833F9F68093540585EC3F
:10377000B0C0803509F485C0883509F496C0883416
:1037800099F60E94430AD0CF883909F48CC038F5E5
:10379000883729F050F4883611F0803729F683E015
:1037A0008093560510920C0557C0883809F47BC0E9
:1037B000803919F0803809F0B7CF80910C0580323C
:1037C00008F071C0E0910C0581E08E0F80930C052C
:1037D0008091BB00F0E0E451FB4F80833DC0803B13
:1037E00039F0E0F4803A09F479C0883A09F09CCFC6
:1037F00084E0809356051092E9041092E804E09169
:10380000E604F091E70409958091E80481110FC066
:1038100081E08093E8041092C60409C0803C09F45A
:10382000A6CF883C09F4A3CF883B09F07DCFE09177
:10383000E90481E08E0F8093E904F0E0EA53FB4F46
:1038400080818093BB009091E9048091E80429C0B5
:10385000809131058093BB0085EC8093BC0064CFE0
:103860009091530580915205981758F5E0915305B2
:1038700081E08E0F80935305F0E0EE5CFA4F80817B
:10388000E9CFE091530581E08E0F8093530580913D
:10389000BB00F0E0EE5CFA4F80839091530580917D
:1038A00052059817C8F285E8D8CFE091530581E01A
:1038B0008E0F809353058091BB00F0E0EE5CFA4FD1
:1038C00080838091550581115CCF81E08093300524
:1038D00084EA8093BC001092560526CF85EC809335
:1038E000BC001092560580910C05803230F4E091B6
:1038F0000C05F0E0E451FB4F108260910C0570E084
:10390000E091EA04F091EB048CEE94E009951092BA
:103910000C050ACF1092540534CF1F920F920FB6A8
:103920000F9211242F933F938F939F93AF93BF9345
:1039300080919B0490919C04A0919D04B0919E0461
:1039400030919A0423E0230F2D3758F50196A11DDD
:10395000B11D20939A0480939B0490939C04A093A0
:103960009D04B0939E0480919F049091A004A09127
:10397000A104B091A2040196A11DB11D80939F04E2
:103980009093A004A093A104B093A204BF91AF911F
:103990009F918F913F912F910F900FBE0F901F908D
:1039A000189526E8230F0296A11DB11DD2CF1F92B4
:1039B0000F920FB60F9211242F933F934F935F9363
:1039C0006F937F938F939F93AF93BF93EF93FF93E7
:1039D000E0910201F09103010995FF91EF91BF91F0
:1039E000AF919F918F917F916F915F914F913F9197
:1039F0002F910F900FBE0F901F9018951F920F924E
:103A00000FB60F9211242F933F934F935F936F93B1
:103A10007F938F939F93AF93BF93EF93FF93E09127
:103A20000001F09101010995FF91EF91BF91AF91D4
:103A30009F918F917F916F915F914F913F912F91C6
:103A40000F900FBE0F901F9018951F920F920FB6F8
:103A50000F9211242F933F934F935F936F937F9314
:103A60008F939F93AF93BF93EF93FF9380E895E07D
:103A70000E949D06FF91EF91BF91AF919F918F9111
:103A80007F916F915F914F913F912F910F900FBE5A
:103A90000F901F9018951F920F920FB60F9211243E
:103AA0002F938F939F93EF93FF93E0919005F09165
:103AB00091058081E0919605F091970582FD1BC0EC
:103AC0009081809199058F5F8F7320919A0582175D
:103AD00041F0E0919905F0E0E058FA4F958F80931E
:103AE0009905FF91EF919F918F912F910F900FBEAC
:103AF0000F901F9018958081F4CFCF93DF93A9E5A5
:103B0000B6E013961C921E92129748EE53E060E0C6
:103B100070E014964D935D936D937C9317978DE4AD
:103B200091E011969C938E93E0E8F5E01382128267
:103B300044835583668377838FE591E09183808307
:103B400085EC90E09587848784EC90E09787868762
:103B500080EC90E0918B808B81EC90E0938B828B5A
:103B600082EC90E0958B848B86EC90E0978B868B33
:103B7000118E128E138E148EEDE1F6E08FEA91E035
:103B8000918380831282138214821582E3E2F6E02D
:103B9000918380831282138214821582E9E2F6E017
:103BA000918380831282138214821582EFE2F6E001
:103BB000918380831282138214821582E5E3F6E0FA
:103BC000918380831282138214821582EBE3F6E0E4
:103BD000918380831282138214821582E1E4F6E0DD
:103BE000918380831282138214821582EDE4F6E0C1
:103BF000918380831282138214821582E7E4F6E0B7
:103C0000918380831282138214821582E3E5F6E0A9
:103C1000918380831282138214821582E2EDF6E092
:103C2000918380831282138214821582E9EAF6E07E
:103C300022E130E03287218723E130E03487238797
:103C4000178622E0208B128A118A138A148A158A19
:103C5000168A178A108E118E128E138E148E158E60
:103C6000168E178E10A211A213A212A22AE030E023
:103C700035A324A32BE426A321EE27A310A6B68701
:103C8000A58720E22087E3EAF6E0918380833AE08B
:103C900032832EE623831482A5E0A583EDE9F6E0C6
:103CA0009183808332832383148223E02583EEE88B
:103CB000F6E01382128244835583668377832DE76F
:103CC00031E03183208328E0248728EE33E03687F3
:103CD0002587C5E6D6E01B821A8221E731E03983C9
:103CE00028839C8F8B8F1D8E1E8E1F8E18A28FEFA8
:103CF0009FEF98A78FA3FD83EC831EA21DA280E0F7
:103D000091E00E94FC239F838E8380E091E099875D
:103D100088878FE090E09B878A879D878C87DF91DB
:103D2000CF910895CF93DF93CDB7DEB72B970FB622
:103D3000F894DEBF0FBECDBF789484B5826084BD99
:103D400084B5816084BD85B5826085BD85B581609F
:103D500085BD80916E00816080936E00109281001D
:103D600080918100826080938100809181008160D8
:103D70008093810080918000816080938000809199
:103D8000B10084608093B1008091B0008160809325
:103D9000B00080917A00846080937A0080917A00EC
:103DA000826080937A0080917A00816080937A00AB
:103DB00080917A00806880937A001092C100E0912F
:103DC0009005F091910582E08083E0918C05F0915F
:103DD0008D051082E0918E05F0918F0580E1808342
:103DE00010929805E0919405F091950586E0808306
:103DF000E0919205F0919305808180618083E0914C
:103E00009205F0919305808188608083E09192050E
:103E1000F0919305808180688083E0919205F09114
:103E2000930580818F7D80830FEA11E01A830983D7
:103E30008091A5069091A606A091A706B091A8062C
:103E40008B839C83AD83BE83CE0101960E945D0F60
:103E50006CED75E080E090E00E94DF031A83098337
:103E600080919F069091A006A091A106B091A20614
:103E70008B839C83AD83BE83CE0101960E94E200BA
:103E800089EB9BE090937F0680937E0680E00E9402
:103E9000710981E00E94710982E00E94710983E04A
:103EA0000E94710984E00E94710985E00E947109F5
:103EB00086E00E94710987E00E94710984E0809386
:103EC000D1061092C4041092C30410925D051092A2
:103ED0007F050E94FB0188E291E09093E7048093C4
:103EE000E60489E291E09093EB048093EA048091E8
:103EF000BC062091BE06811102C0222339F18091B7
:103F0000B6069091B7063091B10641E040935C054A
:103F100030937E056091BD06622B6093C206DC0182
:103F2000ED91FC910190F081E02D09959091BD06F5
:103F30008091BF06892B8093C3068093C10690931E
:103F4000C80681E00E9490028093D1068091B80655
:103F50008823D9F062E08091B9060E943A028091EC
:103F6000BA069091BB062091B906223009F4F4C03C
:103F7000233059F4909303018093020180916900EA
:103F8000837F886080936900E99A0E94110460939E
:103F9000C4067093C5068093C6069093C70661E079
:103FA00080E00E94800361E081E00E94800361E084
:103FB00082E00E94800361E083E00E94800361E070
:103FC00084E00E94800361E085E00E94800361E05C
:103FD00086E00E94800361E087E00E948003CC2499
:103FE000C394D12CFCEF2F2E33243A940E94110459
:103FF00000919604109197042091980430919904AF
:10400000601B710B820B930B693C71058105910557
:1040100008F409C20E9411046093960470939704F7
:1040200080939804909399040E94AA008111ABC1D7
:10403000E2EC7E2E0E94AA008111A5C161E174E02C
:1040400080E895E00E94C20A0E94AA00811170C116
:104050008091690690916A06DC01ED91FC910688D9
:10406000F789E02D0995882309F482C0D09274065F
:10407000C092730687E0E8E1F1E0DE01119601905D
:104080000D928A95E1F7DE01119685E090E02D9181
:10409000E0916B06F0916C06E80FF91F2083019602
:1040A0008C309105A1F700916B0610916C06D80138
:1040B0001C967C921C97809170061D968C931D9780
:1040C00080916F061E968C93E0906D06F0906E06C0
:1040D000B70188E394E00E9478234196E816F90638
:1040E00008F07FC08091690690916A06DC01ED912D
:1040F000FC910488F589E02D099567E674E080E875
:1041000095E00E94C20A80908C0690908D06092C42
:10411000000CAA08BB082AE0B501A401B7FE0DC037
:104120006DE280E895E00E94BF0644275527BA015A
:10413000481959096A097B092AE080E895E00E943C
:10414000D10A83E794E00E94670B68E873E180E09E
:1041500090E00E94DF036ECF9093010180930001F5
:10416000809169008C7F826080936900E89A0DCF0E
:1041700060918606709187068091690690916A0623
:10418000DC01ED91FC914091880650918906611502
:10419000710571F00088F189E02D0995019709F406
:1041A00065CFEEEFFFEFF0938D06E0938C06A5CF81
:1041B0000684F785E02D7FEA472E71E0572E5A825C
:1041C00049820091820610918306209184063091E5
:1041D00085060B831C832D833E83BE016F5F7F4F5B
:1041E000DCCF4FE050E0B80188E394E00E94880003
:1041F0008C01E0906D06F0906E06B70187E494E0C4
:104200000E947823800F911F0296E816F90608F4A1
:1042100069CF60916B0670916C06A80187E494E009
:104220000E9488008C01E0906D06F0906E06B70148
:104230008EE494E00E947823800F911F0296E81686
:10424000F90608F44FCF60916B0670916C06A801D7
:104250008EE494E00E948800AC01455051096091C1
:104260006B0670916C0680E10E941D040E9411048F
:104270006093750670937606809377069093780620
:104280006093790670937A0680937B0690937C0600
:104290008091690690916A06DC01ED91FC910084A1
:1042A000F185E02D0995892B11F50E9411040091EB
:1042B000790610917A0620917B0630917C064B019D
:1042C0005C01801A910AA20AB30A2091710630910A
:1042D0007206A8EEB3E00E94E72386169706A806AA
:1042E000B906B0F230928D0620928C06FBCECE013C
:1042F00008960E94CB04643071058105910509F090
:10430000F1CEE0916B06F0916C068381811135C08E
:104310000E9411046093790670937A0680937B065D
:1043200090937C0610927D0610928D0610928C065A
:104330008DE594E00E94670B85ED91E00E94F00905
:1043400088E292E00E94F00981E792E00E94F00981
:1043500086EB92E00E94F0098FEF92E00E94F00954
:1043600082E493E00E94F00985E893E00E94F0095E
:1043700088EC93E00E94F0095DCE90E090938D066A
:1043800080938C06AFCE0E94AA00882309F44BC00C
:104390000E9411044B015C0120916F063091700660
:1043A000A8EEB3E00E94E7230091790610917A0607
:1043B00020917B0630917C0624013501401A510A78
:1043C000620A730A930182016017710782079307DB
:1043D000B0F0009175061091760620917706309125
:1043E000780624013501401A510A620A730A9301C2
:1043F0008201601771078207930708F084C08091DB
:104400007D06882309F450C030928D0620928C06D8
:104410008091690690916A06DC01ED91FC91048817
:10442000F589E02D09958091940490919504892B4C
:1044300021F5D0929504C092940485ED91E00E94FC
:10444000960988E292E00E94960981E792E00E9434
:10445000960986EB92E00E9496098FEF92E00E9407
:10446000960982E493E00E94960985E893E00E9411
:10447000960988EC93E00E9496090E941104611548
:10448000784B8C449A4018F0F0E0E0E0099580E029
:1044900090E0892B09F4AACD0E948906882309F4AB
:1044A000A1CD0E9400009ECDE0916B06F0916C06BC
:1044B00080EC8083E0916B06F0916C061182809114
:1044C000690690916A0660916B0670916C06DC013A
:1044D000ED91FC910280F381E02D42E050E00995DE
:1044E0008092750690927606A0927706B092780632
:1044F0008092790690927A06A0927B06B0927C0612
:1045000081E080937D068091690690916A06DC01C6
:10451000ED91FC910084F185E02D0995892B09F43A
:1045200082CFCE0101960E94CB042B01672B09F4A8
:10453000D6C08092790690927A06A0927B06B092BD
:104540007C06E0916B06F0916C068081807F803361
:1045500009F0A4C080917E0690917F06892B09F412
:1045600062CF498150E0CA0102968E0F9F1FDF0182
:10457000A40FB51F11960C9110E0102F0027DC013D
:104580006C91060F111D4D5F5F4FBF01640F751FCA
:10459000A8010E94E725E98180916B0690916C0645
:1045A000800F911FE80FF92FF11D1282E0916B0629
:1045B000F0916C06298130E0C90102968E0F9F1F91
:1045C000408146704987A0917E06B0917F06BB87E7
:1045D000AA87423009F04FC0B801620F731FDF0194
:1045E000A60FB71F1396EC901397F12CFE2CEE2418
:1045F00014964C91E40EF11C4BEF5FEF421B530BF2
:10460000401B510B440D551D6B5F7F4F6E0F7F1F7D
:10461000EA85FB850995E0916B06F0916C0680E4D4
:104620008083E0916B06F0916C0649844182E091B1
:104630006B06F0916C06F282E0916B06F0916C06CD
:10464000E3828091690690916A0660916B06709191
:104650006C06DC01ED91FC910280F381E02D44E0D9
:1046600050E009958092750690927606A0927706A2
:10467000B0927806D8CE4DEF5FEF421B530B401B34
:10468000510B440D551D2D5F3F4F200F311FBF01B2
:10469000620F731FEA85FB850995C5CE803CC9F47E
:1046A00080ED8083E0916B06F0916C061182809121
:1046B000690690916A0660916B0670916C06DC0148
:1046C000ED91FC910280F381E02D42E050E00995EC
:1046D000AACE803D09F0A7CE10927D06A4CE0E94FE
:1046E000AA00A1CE80916B0690916C060C94982440
:1046F000FC016150704001900110D8F780959095B1
:104700008E0F9F1F08950E94E723A59F900DB49FD1
:10471000900DA49F800D911D112408952F923F921A
:104720004F925F926F927F928F929F92AF92BF92C1
:10473000CF92DF92EF92FF920F931F93CF93DF936D
:10474000CDB7DEB7CA1BDB0B0FB6F894DEBF0FBECA
:10475000CDBF09942A88398848885F846E847D8417
:104760008C849B84AA84B984C884DF80EE80FD8019
:104770000C811B81AA81B981CE0FD11D0FB6F8948F
:10478000DEBF0FBECDBFED010895A1E21A2EAA1B18
:10479000BB1BFD010DC0AA1FBB1FEE1FFF1FA217F1
:1047A000B307E407F50720F0A21BB30BE40BF50BEE
:1047B000661F771F881F991F1A9469F76095709577
:1047C000809590959B01AC01BD01CF010895A29FFA
:1047D000B001B39FC001A39F700D811D1124911DD5
:1047E000B29F700D811D1124911D0895EE0FFF1FC2
:1047F0000590F491E02D09940F931F93CF93DF93CD
:104800008230910510F482E090E0E091DA06F091B8
:10481000DB0630E020E0B0E0A0E0309799F421150D
:10482000310509F44AC0281B390B24303105D8F56D
:104830008A819B816115710589F1FB0193838283D4
:10484000FE0111C04081518102811381481759072F
:10485000E0F04817590799F4109761F012960C93FD
:10486000129713961C933296CF01DF91CF911F912F
:104870000F9108950093DA061093DB06F4CF21150B
:10488000310551F04217530738F0A901DB019A01B5
:10489000BD01DF01F801C1CFEF01F9CF9093DB0635
:1048A0008093DA06CDCFFE01E20FF31F819391933F
:1048B0002250310939832883D7CF2091D8063091EF
:1048C000D906232B41F420910E0130910F01309332
:1048D000D9062093D80620910C0130910D012115A5
:1048E000310541F42DB73EB74091100150911101AF
:1048F000241B350BE091D806F091D906E217F30797
:10490000A0F42E1B3F0B2817390778F0AC014E5F3F
:104910005F4F2417350748F04E0F5F1F5093D9069D
:104920004093D806819391939FCFF0E0E0E09CCF35
:10493000CF93DF930097E9F0FC0132971382128244
:10494000A091DA06B091DB06ED0130E020E010978F
:10495000A1F420813181820F931F2091D8063091DC
:10496000D9062817390709F061C0F093D906E093FA
:10497000D806DF91CF910895EA01CE17DF07E8F559
:104980004A815B819E0141155105B1F7E901FB8325
:10499000EA8349915991C40FD51FEC17FD0761F4C3
:1049A000808191810296840F951FE9019983888304
:1049B000828193819B838A83F0E0E0E012968D915F
:1049C0009C9113970097B9F52D913C911197CD01CA
:1049D0000296820F931F2091D8063091D90628178E
:1049E000390739F6309751F51092DB061092DA0646
:1049F000B093D906A093D806BCCFD383C28340819D
:104A00005181840F951FC817D90761F44E5F5F4F1E
:104A100088819981480F591F518340838A819B81E6
:104A2000938382832115310509F0B0CFF093DB0623
:104A3000E093DA069ECFFD01DC01C0CF1382128223
:104A4000D7CFB0E0A0E0E7E2F5E20C9490238C0130
:104A5000009751F4CB010E94FC238C01C801CDB713
:104A6000DEB7E0E10C94AC23FC01E60FF71F9C01DC
:104A700022503109E217F30708F49DC0D901CD9106
:104A8000DC911197C617D70798F0C530D10530F3E0
:104A9000CE0104978617970708F3C61BD70B2297FA
:104AA000C193D1936D937C93CF010E949824D6CF6C
:104AB0005B01AC1ABD0A4C018C0E9D1EA091DA065A
:104AC000B091DB06512C412CF12CE12C109731F5E3
:104AD0008091D8069091D9068815990509F05CC097
:104AE0004616570608F058C080910C0190910D01B0
:104AF000009741F48DB79EB740911001509111017C
:104B0000841B950BE817F90708F055C0F093D906F8
:104B1000E093D806F90171836083A0CF8D919C91B9
:104B2000119712966C90129713967C901397A81574
:104B3000B90559F56C0142E0C40ED11CCA14DB045E
:104B400020F1AC014A195B09DA011296159780F041
:104B50006282738251834083D9016D937C93E11407
:104B6000F10471F0D7011396FC93EE93129776CF70
:104B700022968C0F9D1FF90191838083F301EFCF63
:104B8000F093DB06E093DA0669CF4816590608F47D
:104B90002C017D01D3019ACFCB010E94FC237C0123
:104BA000009749F0AE01B8010E94DE25C8010E94BD
:104BB0009824870153CF10E000E050CFFB01DC01C7
:104BC00002C001900D9241505040D8F708956817E7
:104BD000790768F4FB01DC01E40FF51FA40FB51F92
:104BE00002C002900E9241505040D8F708950C94A4
:104BF000DE25DC0101C06D9341505040E0F708957F
:104C0000FB01DC018D91019080190110D9F3990B02
:104C10000895FB01DC0101900D920020E1F7089559
:104C200010E0CDE5D0E004C0FE010E94F6232196FD
:0A4C3000CE35D107C9F7F894FFCF85
:104C3A001E061E0600C0DEADBEEF00080000DC0640
:104C4A00800001005E00000000044D51545404002D
:104C5A000000008B08DB1452090001FC00CF165635
:104C6A0011CB1366128F0EC3082E1A030F7017B0DA
:104C7A001612090209FE08FA080000000080015312
:104C8A0001520900014C0139012A0100000000BF4C
:104C9A00061F064C060C077D065B066F0600000021
:104CAA0000390919095209510900000000AC081518
:104CBA0015D214BD14D715F91665114913A11A1383
:104CCA0017CA0EA80E68097009C00A65096309A106
:104CDA0008590946172C1B1C175509000000001D0E
:104CEA000B6F6E6C696E65000D0A004E6163687227
:104CFA006963687420656D7066616E67656E205BB6
:104D0A00005D3A20004D656C64756E67656E2F57BD
:104D1A0061726E6C6575636874653030312F6772C5
:104D2A0075656E006F6E0052656C616973204B3059
:104D3A0020677275656E202D3E20414E006F6666B3
:104D4A000052656C616973204B3020677275656E1D
:104D5A00202D3E20415553004D656C64756E676584
:104D6A006E2F5761726E6C65756368746530303189
:104D7A002F67656C620052656C616973204B312044
:104D8A0067656C62202D3E20414E0052656C616958
:104D9A0073204B312067656C62202D3E20415553AC
:104DAA00004D656C64756E67656E2F5761726E6C27
:104DBA006575636874653030312F726F740052659F
:104DCA006C616973204B3220726F74202D3E204132
:104DDA004E0052656C616973204B3220726F742DDC
:104DEA003E20415553004D656C64756E67656E2FA4
:104DFA005761726E6C6575636874653030312F6205
:104E0A006C61750052656C616973204B3320626C6A
:104E1A006175202D3E20414E0052656C61697320F8
:104E2A004B3320626C6175202D3E20415553004D55
:104E3A00656C64756E67656E2F5761726E6C657509
:104E4A00636874653030312F78310052656C61695E
:104E5A0073204B34207831202D3E20414E0052657C
:104E6A006C616973204B34207831202D3E204155E6
:104E7A0053004D656C64756E67656E2F5761726E6F
:104E8A006C6575636874653030312F78320052650D
:104E9A006C616973204B35207832202D3E20414EBB
:104EAA000052656C616973204B35207832202D3EA3
:104EBA0020415553004D656C64756E67656E2F57BA
:104ECA0061726E6C6575636874653030312F783342
:104EDA000052656C616973204B36207833202D3E71
:104EEA0020414E0052656C616973204B362078333D
:104EFA00202D3E20415553004D656C64756E6765E3
:104F0A006E2F5761726E6C657563687465303031E7
:104F1A002F687570650052656C616973204B372084
:104F2A0068757065202D3E20414E0052656C61699E
:104F3A0073204B372068757065202D3E20415553EC
:104F4A000056657262696E64756E67207A756D20A7
:104F5A004D5154542D53657276657220617566629F
:104F6A006175656E2E2E2E005761726E6C657563C3
:104F7A006874653030310068697465736800524F2F
:104F8A0039555A3777414E43587A6D7900766572AA
:104F9A0062756E64656E004665686C65722C207277
:104FAA00633D002065726E6575742076657273754F
:104FBA006368656E20696E20352053656B756E6473
:044FCA00656E000010
:00000001FF
