:100000000C945E000C94021C0C94DB1B0C94860078
:100010000C9486000C9486000C9486000C94860048
:100020000C9486000C9486000C9486000C94860038
:100030000C9486000C9486000C9486000C94860028
:100040000C94911B0C9486000C944F1C0C94291C4E
:100050000C9486000C9486000C9486000C94860008
:100060000C94721A0C948600000000080002010033
:100070000003040700000000000000000000000072
:10008000250028002B0000000000240027002A0083
:10009000010204081020408001020408102001021F
:1000A00004081020040404040404040402020202EC
:1000B0000202030303030303811C4D2211241FBE0C
:1000C000CFEFD8E0DEBFCDBF13E0A0E0B1E0E0EFBE
:1000D000F9E402C005900D92AA31B107D9F725E0E5
:1000E000AAE1B3E001C01D92A236B207E1F710E029
:1000F000CDE5D0E004C02197FE010E94D122CC358D
:10010000D107C9F70E94961D0C94EB240C940000B3
:10011000CF93DF93EC01FA013296E60FF71FDC0173
:100120009D012C1B3D0BCF01861B970B4D9144234A
:1001300011F04193F5CFAC01421B530B640F751FB7
:10014000FB013297308361507109FB012083DF91FD
:10015000CF9108958091EF049091F004009711F4ED
:1001600080E02FC0DC01ED91FC910688F789E02D3D
:100170000995209112053091130581111FC0232B81
:1001800079F78DEF9FEF909313058093120580917F
:10019000EF049091F004DC01ED91FC910680F78171
:1001A000E02D09958091EF049091F004DC01ED9130
:1001B000FC910488F589E02D0995D2CF81E0232BAD
:1001C00079F60895CF93DF93EBEEF4E0EC018A81AA
:1001D0009B81AC81BD81858F968FA78FB0A38BE566
:1001E00097E094A383A312A211A2CF01DF91CF9134
:1001F00008958CBD9DBD0895FC01818D928D08955B
:10020000089520916E03260F3327331F21323105C5
:10021000ECF42091DC03FC0190E080E0243069F0F4
:1002200082E00895A0916E032191AC01445B5C4F84
:10023000A40FB52FB11D2C930196861798F38091CA
:100240006E03680F60936E0380E0089581E0089567
:1002500008950895E0914A0380914903E81730F426
:10026000F0E0E75DFC4F808190E008958FEF9FEF15
:10027000089590914A03809149032FEF3FEF98171B
:1002800048F4E92FF0E0E75DFC4F208130E09F5F0C
:1002900090934A03C90108958091490390914A03BC
:1002A000891B990B0895CF92DF92EF92FF920F93E3
:1002B0001F93CF93DF937C01CB018A012091E2034E
:1002C000222389F0EB016B01C40ED51ECC15DD0590
:1002D00069F06991D701ED91FC910190F081E02DD9
:1002E000C7010995F3CF642F0E940101C801DF9176
:1002F000CF911F910F91FF90EF90DF90CF900895D5
:10030000CF93DF931F92CDB7DEB769832091E203CD
:100310002223F9F020910504203258F021E030E04A
:10032000FC013383228390E080E00F90DF91CF9136
:1003300008958091E303E82FF0E0EC51FC4F9981A0
:1003400090838F5F8093E3038093050481E090E0C6
:10035000ECCF61E0CE0101960E940101F7CF90E061
:10036000FC01E859FF4F2491FC01E057FF4F349105
:10037000FC01EC55FF4FE491EE23C9F0222339F044
:10038000233001F1A8F4213019F1223029F1F0E0F5
:10039000EE0FFF1FE458FF4FA591B4918FB7F8946B
:1003A000EC91611126C030953E233C938FBF089598
:1003B0002730A9F02830C9F0243049F78091800017
:1003C0008F7D03C0809180008F7780938000DFCF86
:1003D00084B58F7784BDDBCF84B58F7DFBCF8091D3
:1003E000B0008F778093B000D2CF8091B0008F7D26
:1003F000F9CF3E2BDACF1092DC0381E08093DB0350
:100400001092B60361E082E10E94AF0161E083E1F6
:100410000E94AF01E9EBF0E080818E7F80838081D4
:100420008D7F808388E48093B80085E48093BC004E
:100430000895CF93DF9391E090934B038823B9F015
:10044000C091B800D091BA008091BC008A7B8093A3
:10045000BC0060E082E10E94AF0160E083E10E94A5
:10046000AF010E94FB01D093BA00C093B800DF91A6
:10047000CF910895CF93DF9390E0FC01E057FF4FB9
:1004800024918C559F4FFC0184918823D1F090E0FA
:10049000880F991FFC01EA57FF4FA591B491FC0109
:1004A000E458FF4FC591D491623071F49FB7F8942E
:1004B0003C91822F809583238C93E8812E2B288377
:1004C0009FBFDF91CF9108958FB7F894EC912E2BB9
:1004D0002C938FBFF6CF3FB7F8948091250390916E
:1004E0002603A0912703B091280326B5A89B05C039
:1004F0002F3F19F00196A11DB11D3FBFBA2FA92FA3
:10050000982F8827BC01CD01620F711D811D911D9F
:1005100042E0660F771F881F991F4A95D1F708950B
:100520008F929F92AF92BF92CF92DF92EF92FF9203
:100530000F931F93CF93DF93D0910504D13208F02E
:10054000D7C0182FC09104040E946B026B017C017C
:100550008091DC0381116BC082E08093DC031093F7
:10056000DB038FEF8093DA031092D903D093D80383
:10057000A4EEB3E0E8EBF3E080E0D81391C0109272
:10058000B7038091B703CC0FC82BC093B7038091FA
:10059000B603813009F088C01092B6030E946B0246
:1005A0006B017C018091B7038093BB008091DE03D7
:1005B0009091DF03A091E003B091E103892B8A2B96
:1005C0008B2BA1F00E946B020091DE031091DF03E0
:1005D0002091E0033091E1036C197D098E099F0998
:1005E000061717072807390708F442C08091BC0096
:1005F00083FDD8CF85EC8093BC000E946B026B0119
:100600007C018091DC03823009F450C08091DA03D0
:100610008F3F09F46FC08091DA03803209F46CC017
:100620008091DA03803309F469C084E026C08091A8
:10063000DE039091DF03A091E003B091E103892BE9
:100640008A2B8B2B09F484CF0E946B028090DE03EF
:100650009090DF03A090E003B090E1036C197D0956
:100660008E099F0986169706A806B90608F070CF6E
:100670008091DD030E94190285E01092E30310923D
:1006800005041092E203DF91CF911F910F91FF902B
:10069000EF90DF90CF90BF90AF909F908F90089594
:1006A0009D9191938F5F69CF85EEA5CF8091DE03F9
:1006B0009091DF03A091E003B091E103892B8A2B95
:1006C0008B2B09F49ECF0E946B020091DE031091E8
:1006D000DF032091E0033091E1036C197D098E095D
:1006E0009F09061717072807390708F08ACFC0CFD8
:1006F00081E0C3CF80E0C1CF82E0BFCF83E0BDCF38
:10070000EF92FF920F931F93CF93DF93362FC091F9
:100710003C05D0913D059091370521E02093E203FF
:10072000909304041092E3031092050420914E0567
:1007300041E050E060E070E07A018B0104C0EE0C13
:10074000FF1C001F111F8A95D2F7C7013130A1F598
:10075000822B80934E0560914E058091420568235F
:1007600080914805909144058923682B6093470543
:10077000E881F9810190F081E02DCE010995809109
:100780004E05909142058923909149052091440599
:100790009223892B8093470581E00E949002982F35
:1007A0008093570581E0911180E0DF91CF911F91F7
:1007B0000F91FF90EF90089580958223CACF8F927A
:1007C0009F92AF92BF92CF92DF92EF92FF924B0136
:1007D0005C010E946B026B017C010E946B026C1930
:1007E0007D098E099F09683E734081059105A8F334
:1007F00021E0821A9108A108B10888EEC80E83E0B2
:10080000D81EE11CF11C81149104A104B10429F744
:10081000FF90EF90DF90CF90BF90AF909F908F9020
:1008200008952FB7F894609121037091220380916D
:100830002303909124032FBF0895EF92FF920F930B
:100840001F93CF93DF9300D000D0CDB7DEB7FA016E
:1008500020E08E010F5F1F4F9E2F9F77EE0FEF2F2F
:10086000EE1FFF0BF195309709F09068D801A20FA9
:10087000B11D9C932F5F309779F730E0FB01E21BAD
:10088000F30B8483FB01E21BF30B3596D801CD01FA
:10089000801B910B821793071CF48D918193F7CFE6
:1008A0002F5F3F4F8091EF049091F0048901040F76
:1008B000151F621B730B6B5F7F4FDC01ED91FC9189
:1008C0000280F381E02DA80109957C010E941104AA
:1008D0006093FB047093FC048093FD049093FE04EA
:1008E00081E00E151F0509F080E00F900F900F902A
:1008F0000F90DF91CF911F910F91FF90EF9008958E
:100900008F929F92AF92BF92CF92DF92EF92FF921F
:10091000CF93DF93EC010E9411044B015C018091A5
:10092000EF049091F004DC01ED91FC910084F185DD
:10093000E02D0995892BB9F40E9411046B017C010B
:10094000C818D908EA08FB082091F7043091F80488
:10095000A8EEB3E00E94C222C616D706E806F90642
:10096000F0F280E00DC08091EF049091F004DC0182
:10097000ED91FC910284F385E02D0995888381E057
:10098000DF91CF91FF90EF90DF90CF90BF90AF902D
:100990009F908F9008952F923F924F925F926F9207
:1009A0007F928F929F92AF92BF92CF92DF92EF92FF
:1009B000FF920F931F93CF93DF93CDB7DEB72A97A4
:1009C0000FB6F894DEBF0FBECDBF1C018091F104BD
:1009D0009091F2040E94800481111CC060E070E0DC
:1009E000CB012A960FB6F894DEBF0FBECDBFDF91C4
:1009F000CF911F910F91FF90EF90DF90CF90BF901C
:100A0000AF909F908F907F906F905F904F903F90AE
:100A10002F900895E091F104F091F204D0801982B2
:100A2000EE24E394F12C812C912C5401412C512C77
:100A300032014394CE0101960E948004882371F212
:100A400087010F5F1F4F8981E091F104F091F2045B
:100A5000EE0DFF1D8083E981AE2FAF77B0E0A301DB
:100A600092010E945E22860E971EA81EB91E37E0D4
:100A7000440C551C661C771C3A95D1F7E7FD3FC026
:100A8000BD2DB07FBE838FEF800FF1018083B03327
:100A900009F04CC08091F1049091F204800F911FF5
:100AA0000E948004882309F499CF2091F1043091A9
:100AB000F204C7010296820F931F0E9480048823CC
:100AC00009F48CCF0E5F1F4FE091F104F091F20416
:100AD000D1018C91DF01A80FB11D11968C91119756
:100AE00090E0982F882712962C91820F911D2081DB
:100AF00021FD0296F2E0E0E030E020E01DC0780148
:100B00000530110509F096CF8FEF9FEF90931305F5
:100B1000809312058091EF049091F004DC01ED9137
:100B2000FC910488F589E02D099558CFF0E0E0E0CC
:100B300030E020E090E080E070E060E0CF2EDE2E3C
:100B4000E32EF22E28013B014C185D086E087F0849
:100B50004A825B826C827D822C01712C612C4F82D7
:100B6000588669867A864A805B806C807D804C0CD2
:100B70005D1C6E1C7F1CC814D904EA04FB0408F039
:100B800046C0CE0101960E948004882309F426CF36
:100B90008091100590911105009711F12E8120335D
:100BA000F9F4D1012C914EEF5FEF6FEF7FEF421B15
:100BB000510961097109440E551E661E771E2F8169
:100BC000388549855A85241535054605570540F46D
:100BD000DC01ED91FC910190F081E02D6981099596
:100BE0008091F3049091F4040817190750F4898157
:100BF000E091F104F091F204E00FF11F80830F5FA8
:100C00001F4FBFEFCB1ADB0AEB0AFB0AACCF809178
:100C1000100590911105892B69F48091F30490914E
:100C2000F404B0E0A0E084159505A605B70510F41E
:100C300010E000E0B80190E080E0D3CE0895AF92DC
:100C4000BF92CF92DF92EF92FF920F931F93CF93B9
:100C5000DF936C017B018B01040F151FEB015E011B
:100C6000AE18BF08C017D10759F06991D601ED91B0
:100C7000FC910190F081E02DC6010995892B79F74F
:100C8000C501DF91CF911F910F91FF90EF90DF9001
:100C9000CF90BF90AF900895FC01538D448D252FC8
:100CA00030E0842F90E0821B930B541710F0CF9606
:100CB000089501970895FC01918D828D981761F038
:100CC000A28DAE0FBF2FB11D5D968C91928D9F5F4F
:100CD0009F73928F90E008958FEF9FEF0895FC012E
:100CE000918D828D981731F0828DE80FF11D858DE1
:100CF00090E008958FEF9FEF0895FC01918D228D74
:100D0000892F90E0805C9F4F821B91098F739927F8
:100D1000089586E094E00E947D0621E0892B09F485
:100D200020E0822F089580E090E0892B29F00E9436
:100D3000890681110C9400000895FC01A48DA80F70
:100D4000B92FB11DA35ABF4F2C91848D90E001960D
:100D50008F739927848FA689B7892C93A089B1892D
:100D60008C91837080648C93938D848D981306C0CE
:100D70000288F389E02D80818F7D80830895EF9232
:100D8000FF920F931F93CF93DF93EC0181E0888F45
:100D90009B8D8C8D98131AC0E889F989808185FF15
:100DA00015C09FB7F894EE89FF896083E889F989B7
:100DB00080818370806480839FBF81E090E0DF91B9
:100DC000CF911F910F91FF90EF900895F62E0B8D0C
:100DD00010E00F5F1F4F0F731127E02E8C8D8E11C7
:100DE0000CC00FB607FCFACFE889F989808185FF2E
:100DF000F5CFCE010E949D06F1CFEB8DEC0FFD2FBC
:100E0000F11DE35AFF4FF0829FB7F8940B8FEA89E8
:100E1000FB8980818062CFCFCF93DF93EC01888DF7
:100E20008823B9F0AA89BB89E889F9898C9185FD65
:100E300003C0808186FD0DC00FB607FCF7CF8C91F3
:100E400085FFF2CF808185FFEDCFCE010E949D0608
:100E5000E9CFDF91CF910895FC0120812EBD9B0148
:100E60002150310941F051810DB407FEFDCF4EB53F
:100E70005EBD4193F5CF61507109860F971F0DB488
:100E800007FEFDCF2EB5FC0120830895E091B0034D
:100E9000F091B10380819091AF03892B80830895F5
:100EA000E091B003F091B10390818091AF03809500
:100EB0008923808308958EBD00000DB407FEFDCF09
:100EC0008EB50895AF92BF92CF92DF92EF92FF92CC
:100ED0000F931F93CF93DF93CDB7DEB728970FB64D
:100EE000F894DEBF0FBECDBF8C017B016A018091FB
:100EF000B3038333E1F45801A40EB51EA016B10666
:100F000009F46FC00E94500780EF0E945B07812F99
:100F10000E945B07802F0E945B070F5F1F4FF70146
:100F200081917F010E945B070E944607E7CF5B012A
:100F3000A40EB51E8433C1F40E94500719830A839E
:100F40008D2D80688B83CC8264E070E0CE010196A9
:100F50000E942C07AE14BF0409F441C0F70181912F
:100F60007F010E945B07F6CF0E9450070F3F1105DB
:100F700009F028F419820A8384E08B830CC017FDE2
:100F800017C019820A8333E0169507953A95E1F761
:100F9000007E0C600B8386E0C816D104A0F5F70133
:100FA000DE011496EA15FB0599F081918D93FACF35
:100FB000C80126E0969587952A95E1F7807E1983EA
:100FC0000A830115104C10F48461D7CF8C61D5CF02
:100FD000B6016D5F7F4FCE0101960E942C070E94E3
:100FE0004607C60128960FB6F894DEBF0FBECDBFE8
:100FF000DF91CF911F910F91FF90EF90DF90CF90F5
:10100000BF90AF90089563E070E0CE0101960E941A
:101010002C07F70181917F010E945B07AE14BF048A
:10102000C1F7DDCFCF93DF931F92CDB7DEB78983B2
:1010300041E050E0BE016F5F7F4F90E080E00E9492
:1010400062070F90DF91CF91089590E02091B30354
:10105000233339F40C96982F990F990F990F80E04C
:1010600008954896F8CFDA01E091B403F0E0FE2F3E
:10107000EE27E60FF71F90E0982F8827A901BD0102
:101080008E0F9F1F0C946207CF93DF9300D0CDB7D4
:10109000DEB779836A8322E030E0AE014F5F5F4FB5
:1010A00060E170E00E9433080F900F90DF91CF91C4
:1010B0000895CF93DF9300D0CDB7DEB779836A83ED
:1010C00022E030E0AE014F5F5F4F64E070E00E94CD
:1010D00033080F900F90DF91CF910895CF93DF9356
:1010E0001F92CDB7DEB72091B40330E0322F222714
:1010F000260F371F90E0982F8827498341E050E062
:10110000BE016F5F7F4F820F931F0E9462070F9097
:10111000DF91CF910895CF93DF931F92CDB7DEB7C4
:101120006983DC01ED91FC910280F381E02D41E0C7
:1011300050E0BE016F5F7F4F09950F90DF91CF9117
:101140000895FC019485FB018485981303C081E018
:10115000943008F080E00895CF93DF931F92CDB7CD
:10116000DEB76983DC01ED91FC910280F381E02D13
:1011700041E050E0BE016F5F7F4F09950F90DF9116
:10118000CF9108950895FF920F931F93CF93DF930C
:10119000EB01FC01178A168A2A81211109C02B81D3
:1011A000211106C02C81211103C02D81222301F1C0
:1011B00041155105E9F08A01FC01F08C80E591E0D0
:1011C0000E94F900AE014E5F5F4F24E030E06CE01A
:1011D00070E08F2D0E943308B8018F2D0E944408C3
:1011E00081E090E0DF91CF911F910F91FF900895E2
:1011F00080E0F7CFFC01848595850895FC01848902
:10120000958908952FEA31E0FC0131832083FB01A9
:101210004089518962897389FC01428353836483C5
:1012200075830895DC01ED91FC91048CF58DE02D22
:101230000994EF92FF920F931F93CF93DF93EC01EA
:101240008B017A010E941104688B798B8A8B9B8BAE
:101250008C819D81DC01ED91FC910280F381E02D78
:10126000A701B801DF91CF911F910F91FF90EF90EF
:1012700009941F93CF93DF93EC01162F0E94110462
:10128000688B798B8A8B9B8B8C819D81DC01ED91A6
:10129000FC910190F081E02D612FDF91CF911F91A2
:1012A0000994089590E080E00895FC0176876587B1
:1012B0000895DC01ED91FC9102A0F3A1E02D0995C8
:1012C00091E089270895862F089581E08627089563
:1012D00021E0FC018485883008F020E0822F089509
:1012E00008950F931F9341E050E060E070E08A01A1
:1012F0009B0104C0000F111F221F331F8A95D2F7D4
:10130000C801EFE2F5E02389282B238B2489282BC1
:10131000248B809595899823958B97899823978B13
:1013200096898923868B1F910F910895EF92FF92E2
:101330000F931F93CF93DF938C016091F30470910F
:10134000F40481EB91E00E945322EC010E94AA0078
:101350008823F1F1E090F304F090F404B701C801A0
:101360000E9453229E01295F3F4F820F931FE81670
:10137000F90670F16091F1047091F20445E050E0DB
:10138000C8010E948800E1EBF1E08C01015B114093
:10139000A8014E0F5F1F6091F1047091F2049F014C
:1013A000215B31402C173D0730F42191640F751FEC
:1013B000DB012C93EDCF2597AE01480F591F80E339
:1013C000DF91CF911F910F91FF90EF900C941D042E
:1013D00080E0DF91CF911F910F91FF90EF900895E2
:1013E0000F931F93CF93DF93EC010091F3041091BF
:1013F000F404B8010E945322099608171907E8F16E
:101400000E94AA008823C9F18091F9049091FA04FE
:10141000019681F19093FA048093F904E091F1042C
:10142000F091F2048091FA048583E091F104F09147
:10143000F2048091F90486836091F1047091F204C2
:1014400047E050E0CE010E948800E091F104F09165
:10145000F204E80FF91F1082AC0144505109609169
:10146000F1047091F20482E8DF91CF911F910F9106
:101470000C941D0481E090E0CDCF80E0DF91CF910E
:101480001F910F91089585ED8093BC008091DE033C
:101490009091DF03A091E003B091E1030796A11DB5
:1014A000B11D23E0B695A795979587952A95D1F715
:1014B0002091BC0024FD03C01092DC0308954091EC
:1014C000DE035091DF036091E0037091E103452B4F
:1014D000462B472B69F30097A105B10541F02AE29D
:1014E0002A95F1F700C00197A109B109E1CF8091D8
:1014F000DD030C941902FC0124813581232B39F47E
:1015000021E0FB018081882349F020E007C0808131
:1015100091810E94DB2421E0892BB9F7822F089565
:101520000F931F93CF93DF93EC01888199810097EC
:1015300059F02A813B812617370730F081E0DF918F
:10154000CF911F910F9108958B016F5F7F4F0E9484
:10155000FC23009759F0998388831B830A832C818D
:101560003D81232B59F7FC011082E8CF80E0E7CFC3
:10157000FC0180819181009711F00C9473230895F0
:101580000C947323FB0101900020E9F73197AF0120
:10159000461B570BDC01ED91FC910280F381E02D9D
:1015A00009948F929F92AF92BF92EF92FF920F9306
:1015B0001F93CF93DF93CDB7DEB7A1970FB6F89403
:1015C000DEBF0FBECDBF7C01FA01CB0119A22230D4
:1015D00008F42AE08E010F5D1F4F822E912CB12C52
:1015E000A12CBF01A50194010E94A022F901CA010A
:1015F0006A300CF5605DD8016E938D01232B242B8E
:10160000252B79F790E080E0109721F0BD01C7010C
:101610000E94C20AA1960FB6F894DEBF0FBECDBFDE
:10162000DF91CF911F910F91FF90EF90BF90AF90FE
:101630009F908F900895695CDECF8F929F92AF92BA
:10164000BF92CF92DF92EF92FF920F931F93CF93AF
:10165000DF937C01EB016C0182E0C80ED11C4701D5
:10166000E5E08E0E911C10E000E0F60141916F0163
:1016700050E070E060E02AE0CE010E94D10A5C01F7
:10168000E881F9810190F081E02D6EE2CE010995AB
:101690008A0D9B1D080F191FC814D90431F7F701D3
:1016A000458150E070E060E02AE0CE010E94D10A5E
:1016B000800F911FDF91CF911F910F91FF90EF90BD
:1016C000DF90CF90BF90AF909F908F900895CF9371
:1016D000DF93BC0186E094E00E94C20AEC0168EB53
:1016E00071E086E094E00E94C20A8C0F9D1FDF919A
:1016F000CF910895EF92FF920F931F93CF93DF93B3
:10170000EC01198218821B821A821D821C826115CB
:101710007105E1F08B01FB0101900020E9F73197A1
:101720007F01E61AF70AB7010E94900A28813981E1
:10173000811113C02115310519F0C9010E947323CD
:10174000198218821D821C821B821A82DF91CF911E
:101750001F910F91FF90EF900895FD82EC82B801E8
:10176000C901DF91CF911F910F91FF90EF900C94E1
:10177000E424AF92BF92CF92DF92EF92FF920F9349
:101780001F93CF93DF93CDB7DEB72C970FB6F894A6
:10179000DEBF0FBECDBF7C016B015A016BEB71E068
:1017A00086E094E00E94C20AE114F10429F0B70136
:1017B00086E094E00E94C20A61ED71E086E094E068
:1017C0000E94C20A6AEB71E0CE0107960E947A0B72
:1017D0008601AC0CBD1C4B855C85A016B106F1F0F2
:1017E000F80181918F0189831A826A01FFEFCF1A74
:1017F000DF0AB601CE0107960E94900A882359F3AA
:101800002F8138858B859C85BE016F5F7F4F820F4E
:10181000931F0E94E424DC86CB86DDCF6F81788520
:1018200086E094E00E941F0668EB71E086E094E099
:101830000E94C20AB701CE0101960E947A0B65EDA3
:1018400071E0CE0101960E947B0A182FCE0101960D
:101850000E94B80A112389F064EF71E0CE01079667
:101860000E947B0A882309F462C087EF91E00E94FE
:10187000670B60E080E00E948003B701CE01019613
:101880000E947A0B6CE172E0CE0101960E947B0A05
:10189000182FCE0101960E94B80A112389F064EF37
:1018A00071E0CE0107960E947B0A882309F44EC09E
:1018B0008AE392E00E94670B60E081E00E9480036F
:1018C000B701CE0101960E947A0B6AE572E0CE0163
:1018D00001960E947B0A182FCE0101960E94B80A39
:1018E000112381F064EF71E0CE0107960E947B0A1C
:1018F0008823D9F187E792E00E94670B60E082E0DD
:101900000E948003CE0107960E94B80A2C960FB65B
:10191000F894DEBF0FBECDBFDF91CF911F910F9125
:10192000FF90EF90DF90CF90BF90AF90089567E069
:1019300072E0CE0107960E947B0A882309F49DCFAE
:101940008BE092E00E94670B61E094CF67E072E069
:10195000CE0107960E947B0A882309F4B1CF8AE45E
:1019600092E00E94670B61E0A8CF67E072E0CE01D1
:1019700007960E947B0A882329F287E892E00E945A
:10198000670B61E0BCCFAF92BF92CF92DF92EF9234
:10199000FF920F931F93CF93DF9300D000D0CDB76A
:1019A000DEB78C016B017A018091B3038333E9F4D4
:1019B0005B016801C40ED51EC016D106A9F10E94B4
:1019C00050078FE00E945B07812F0E945B07802FEA
:1019D0000E945B070F5F1F4F80E00E945B07F501CD
:1019E00081935F010E944607E7CF843369F50E9427
:1019F000500719830A838F2D8F778B83EC8264E0E5
:101A000070E0CE0101960E942C07A70170E060E013
:101A1000C6010E94D424E114F10421F0B701C601EB
:101A20000E942C070E944607C7010F900F900F904D
:101A30000F90DF91CF911F910F91FF90EF90DF906A
:101A4000CF90BF90AF9008950E9450070F3F1105AF
:101A500009F030F419820A831B8263E070E0D1CF71
:101A600017FD0BC019820A8333E0169507953A9546
:101A7000E1F7007E08600B83F0CFC80126E0969561
:101A800087952A95E1F7807E19830A830115104C0A
:101A900018F480618B83E1CF8861FCCFCF93DF9313
:101AA0001F92CDB7DEB72091B40330E0322F22274A
:101AB000260F371F90E0982F882741E050E0BE01A5
:101AC0006F5F7F4F820F931F0E94C30C89810F901D
:101AD000DF91CF910895CF93C82F462F61E070E03A
:101AE0000E946E0861E070E08C2F0E944E0D811103
:101AF000F9CFCF910895CF93C82F80E591E00E9450
:101B0000F90068E070E08C2FCF910C946B0DCF93AF
:101B1000C82F80E591E00E94F90060E170E08C2F11
:101B2000CF910C946B0DCF93DF93EC01888D8430B3
:101B300020F40E94870D84E0888FDF91CF91089573
:101B4000CF93C82F80E591E00E94F90063E070E038
:101B50008C2FCF910C944E0DCF93DF93EC018C859D
:101B60008430D0F40E94A00D843189F0882379F06C
:101B7000883169F021E08C3159F4E881F9810084E1
:101B8000F185E02DCE01099521E0892B09F420E0B3
:101B9000822FDF91CF91089580E0FBCFCF92DF922B
:101BA000EF92FF92CF93DF93EC018C85843068F441
:101BB0000E947B0D0E9411046B017C018C850E94A8
:101BC000A00D811109C084E08C87DF91CF91FF9037
:101BD000EF90DF90CF90089561E070E080E090E0BA
:101BE0000E94DF030E941104AB01BC014C195D0986
:101BF0006E097F098D859E85B0E0A0E048175907E2
:101C00006A077B07D8F28C850E94870DDCCFCF93C3
:101C1000FC01C08D80E591E00E94F90060E270E077
:101C20008C2F0E946B0D62E070E08C2F0E944E0D95
:101C300084FD16C062E070E08C2F0E944E0D83FF81
:101C40000AC048E162E070E08C2F0E946E0880E0DC
:101C500090E0CF91089580E591E00E94F900E3CFF4
:101C600040E162E070E08C2F0E946E0881E0F0CFCE
:101C7000CF93DF931F92CDB7DEB741E050E0BE01B6
:101C80006F5F7F4F90E080E00E94C30C89810F90CE
:101C9000DF91CF910895CF93DF93C4E1D0E00E940C
:101CA000380E882361F061E070E080E090E00E94EF
:101CB000DF032197A1F780E0DF91CF91089581E0C4
:101CC000FBCFCF92DF92EF92FF920F931F93CF93B0
:101CD000DF93CDB7DEB7C454D1090FB6F894DEBF99
:101CE0000FBECDBFFC0182819381A481B581239673
:101CF0008CAF9DAFAEAFBFAF239721E023962FAF40
:101D0000239723964CAD5DAD6EAD7FAD23974BAB66
:101D10005CAB6DAB7EAB89AF9AAFABAFBCAF8DA701
:101D20009EA7AFA7B8AB28AB4DA55EA56FA578A9B8
:101D30004FA358A769A77AA72EAB4BA95CA96DA999
:101D40007EA949A35AA36BA37CA38B8F9C8FAD8FD5
:101D5000BE8F4FEA51E05C8B4B8B3FEF3D8B3E8B50
:101D60003F8B188E5E874D872AA7CFA0D8A4E9A401
:101D7000FAA4CF86D88AE98AFA8A2CA309A11AA1E3
:101D80002BA13CA109871A872B873C875A8349835B
:101D90008B839C83AD83BE838091B5038111AFC0DB
:101DA00060E372E080E090E00E94DF03DFB6F89429
:101DB0000EEA10E03AE9E32E30E0F32E8091B20310
:101DC000811125C0F8018491F7019491E82FF0E08A
:101DD000EE0FFF1FEA57FF4FA591B4918C91982306
:101DE00021F461E08AE00E94AF0161E08AE00E9494
:101DF0003A028CB580618CBD8CB580648CBD61E08D
:101E00008DE00E943A0261E08BE00E943A028091EC
:101E1000B2038F5F8093B203DFBEF8010491E02F1D
:101E2000F0E0EE0FFF1FE458FF4F859194919093DF
:101E3000B1038093B003F701E490E092AF0361E057
:101E40008AE00E943A020E94460780E591E00E94E3
:101E5000F90084E38093B30380E80E9412080E9493
:101E60004B0E882309F481C088E00E9412080E946A
:101E7000380E883009F079C080E10E9412080E9473
:101E8000380E803109F071C080E00E9412080E9473
:101E9000380E182F811169C041E050E0BE016D5B22
:101EA0007F4F8FE190E00E94C30C24968FAD249762
:101EB000833009F05AC080E48093B40342E06EE1BD
:101EC00070E0812F0E946E0842E06FE170E0812F88
:101ED0000E946E081F5F143089F740E06EE170E0E9
:101EE000812F0E946E0840E06FE170E0812F0E9418
:101EF0006E081F5F183089F781E08093B50380E595
:101F000091E00E94F90046E050E066E071E089E06F
:101F100090E00E94620744E050E0BE016D5F7F4F99
:101F20008FE090E00E94620744E050E0BE01615FF4
:101F30007F4F81E090E00E94620744E050E0BE01E4
:101F40006B5E7F4F85E090E00E94620781E08C87A6
:101F500089859A85AB85BC858093CF049093D00406
:101F6000A093D104B093D2046FC087E38093B303EE
:101F700080E80E9412080E944B0E882339F188E005
:101F80000E9412080E94380E883001F580E10E94FC
:101F900012080E94380E182F8031C1F480E00E9490
:101FA00012080E94380E811111C041E050E0BE01BC
:101FB0006D5B7F4F89E390E00E94C30C24968FAD48
:101FC0002497843019F41093B40396CF83E380935D
:101FD000B30380E80E9412080E944B0E882391F1FF
:101FE00080E10E9412080E94380E803159F582E18A
:101FF0000E9412080E94380E823121F580E00E9472
:1020000012080E94380E81111DC084E08093B40331
:1020100015E525961FAF259741E050E0BE016C5BAA
:102020007F4F8BE190E00E94620724961FAF2497B8
:1020300041E050E0BE016D5B7F4F8AE190E00E947D
:1020400062075ACF1092B303CC5BDF4F0FB6F89400
:10205000DEBF0FBECDBFDF91CF911F910F91FF90DB
:10206000EF90DF90CF9008951F93CF93DF931F924F
:10207000CDB7DEB7182F80E591E00E94F900812FDF
:102080000E94250827E0129FF0011124ED56FC4F15
:1020900022813381377041E050E0BE016F5F7F4F96
:1020A000820F931F0E94C30C89810F90DF91CF9103
:1020B0001F910895FC01808D843040F4218D328D74
:1020C000232B21F00E94341090E008958FEF9FEFB2
:1020D0000895CF93DF93FC012485243028F08FEFFF
:1020E0009FEFDF91CF910895EC010190F081E02DF9
:1020F0000084F185E02D0995892B89F38C850E9458
:10210000341090E0EECFDA01E091B403F0E0FE2F5E
:10211000EE27E60FF71F90E0982F8827A901BD0151
:102120008E0F9F1F0C94C30C8F929F92AF92BF9201
:10213000CF92DF92EF92FF921F93CF93DF93CDB7B1
:10214000DEB72C970FB6F894DEBF0FBECDBF20913F
:10215000B30314E0222339F16B017C0180E591E0A7
:102160000E94F9005E0127E0A20EB11C450110E0BB
:1021700063E070E0812F0E944E0DF40181934F01C6
:10218000882349F11F5F143099F710E0F501819120
:102190005F018D31D9F08831C9F08A518230B0F0B9
:1021A0001F5F143099F7812F2C960FB6F894DEBF7D
:1021B0000FBECDBFDF91CF911F91FF90EF90DF90C9
:1021C000CF90BF90AF909F908F90089560E170E0A6
:1021D000812F0E946B0DA12EB12C83EE93E001970D
:1021E000F1F742E870E060E0812F0E946E084FEF47
:1021F00062E070E0812F0E946E08B601C114D10424
:1022000091F4809104019091050101968115F0EC03
:102210009F0708F45CC090930501809304016091CE
:10222000040170910501812F0E94590886E0E2E1C6
:10223000F1E0DE01119601900D928A95E1F7F70128
:1022400083818F778C8384818D8385818E83A701A1
:102250004E5F5F4F24E030E06CE070E0812F0E9421
:102260003308B601812F0E94440826E030E0AE0119
:102270004F5F5F4F66E070E0812F0E94330861E09E
:1022800070E0812F0E946B0D27E02A9DC0012B9DDD
:10229000900D11249C012D563C4F7901F9011182BA
:1022A000108222E030E0AE01455F5F4F68E270E0EF
:1022B000812F0E9483108B859C85982789279827DA
:1022C000F701938382831682158214826CCF80E09B
:1022D00090ECA1CFCF92DF92EF92FF920F931F93DA
:1022E000CF93DF9300D000D000D0CDB7DEB78C0104
:1022F0006B017A01FC01808D843010F40E94870DFF
:102300008FEA91E09A838983F60182819381A48187
:10231000B5818B839C83AD83BE83B701CE010196CB
:102320000E949410F801808F8430A0F4F586E48632
:10233000128E118E81E026960FB6F894DEBF0FBE86
:10234000CDBFDF91CF911F910F91FF90EF90DF9064
:10235000CF90089580E0EFCFAF92BF92CF92DF92FF
:10236000EF92FF920F931F93CF93DF9300D000D093
:1023700000D0CDB7DEB7082F6B0180E591E00E9459
:10238000F9009E012F5F3F4F7901590110E063E092
:1023900070E0812F0E944E0DF50181935F0188232B
:1023A00041F11F5F143099F710E0F70181917F012F
:1023B0008D31D1F08831C1F08A518230A8F01F5F91
:1023C000143099F7812F26960FB6F894DEBF0FBE12
:1023D000CDBFDF91CF911F910F91FF90EF90DF90D4
:1023E000CF90BF90AF90089560E170E0812F0E9480
:1023F0006B0DE12EF12C83EE93E00197F1F7402F66
:1024000070E060E0812F0E946E084FEF62E070E0A4
:10241000812F0E946E08B601CD2889F480910401B5
:102420009091050101968115F0EC9F0798F190932A
:102430000501809304016091040170910501812FD1
:102440000E94590861E070E0812F0E946B0D27E027
:102450002E9DC0012F9D900D11249C012D563C4FA7
:102460007901F9011182108222E030E0AE014B5F68
:102470005F4F68E270E0812F0E9483108D819E8102
:10248000982789279827F7019383828316821582DC
:10249000148298CF80E090ECCACFCF92DF92EF9277
:1024A000FF921F93CF93DF93EC017B016A018C8530
:1024B000843048F40E94A00D882319F08C850E9476
:1024C0007B0D84E08C87F70182819381A481B581A3
:1024D0000097A105B10551F490E080E0DF91CF9124
:1024E0001F91FF90EF90DF90CF9008958F3F9F4F07
:1024F000AF4FBF4F89F38091B303811103C084E0D4
:102500008C87EACF70E060E081E20E94AC11182F66
:102510008C87843008F780E591E00E94F900A701DC
:102520004E5F5F4F24E030E06CE070E0812F0E944E
:102530003308B601812F0E94440864E070E0812FC7
:102540000E946B0D0E9411046B017C018C850E941E
:10255000A00D873109F18C31F9F0882309F4BCCF43
:102560000E941104AB01BC014C195D096E097F0981
:102570008D859E85B0E0A0E084179507A607B70774
:1025800038F061E070E080E090E00E94DF03DECF91
:102590008C850E94870DB3CF81E090E09FCF0F9391
:1025A0001F93CF93DF93EC018B01888D843010F45F
:1025B0000E94870D8091B303811107C094E0988F2A
:1025C000DF91CF911F910F910895B80182E00E9491
:1025D000AC11888F843030F41D870C871A8E198EC9
:1025E00081E0EECF80E0ECCF7F928F929F92AF920E
:1025F000BF92CF92DF92EF92FF920F931F93CF93F0
:10260000DF9300D0CDB7DEB7782E8B014A01590198
:1026100022E030E0AE014F5F5F4F64E270E00E9465
:102620008310E980FA80FE24EF24FE24E00EF11EE0
:10263000970137704091B303072D10E0433309F041
:1026400042C0085F1F4F102F0027110F110F110FED
:10265000C901800F911F4733C9F1A9014A0D5B1DC4
:102660004130584098F160E078E06B01C21AD30A1B
:10267000A601B4010E946207A5014C195D09B401CD
:102680006C0D7D1DC8010E946207EA0CFB1CF982DB
:10269000EA8222E030E0AE014F5F5F4F64E270E01B
:1026A000872D0E9433080F900F90DF91CF911F91DB
:1026B0000F91FF90EF90DF90CF90BF90AF909F90E1
:1026C0008F907F900895005F1F4FBDCFA501B4018B
:1026D000DACFEF92FF921F93CF93DF9300D0CDB765
:1026E000DEB7182F22E030E0AE014F5F5F4F60E2AF
:1026F00070E00E948310E980FA80FE24EF24FE241B
:1027000022E030E0AE014F5F5F4F60E270E0812F6A
:102710000E94831089819A81982789279827E81633
:10272000F90689F487E0189FF0011124ED56FC4F5B
:10273000F582E482C7010F900F90DF91CF911F9136
:10274000FF90EF9008957C01DBCF1F93CF93DF9331
:10275000182F80E591E00E94F900812F0E946913F3
:10276000EC0163E070E0812F0E944E0D873121F073
:102770008C3111F0D0E0C0E0CE01DF91CF911F91FC
:102780000895CF93DF93EC018C85843060F40E9430
:10279000A00D873111F08C3131F48C850E94A51386
:1027A0008115984088F3DF91CF910895FC018485CD
:1027B000843010F40C94A51390E080E008959F926B
:1027C000AF92BF92CF92DF92EF92FF920F931F933F
:1027D000CF93DF938C015B01942EE52EFC01C6881C
:1027E000D788F08C80E591E00E94F9008F2D0E943F
:1027F0006913C92DDE2D8C179D0708F4EC019E018D
:10280000A501B6018F2D0E94F412F80186899789DF
:102810008C0F9D1F978B868BCE01DF91CF911F91DF
:102820000F91FF90EF90DF90CF90BF90AF909F906F
:1028300008958F929F92AF92BF92CF92DF92EF92C4
:10284000FF920F931F93CF936C015B018A01FC01F0
:10285000C485C430F0F57A014130584018F0E12CBD
:1028600088E0F82E80E591E00E94F9008C2F0E940C
:1028700069134C0163E070E08C2F0E944E0D87318C
:1028800011F08C3149F58E149F0460F380E591E0DE
:102890000E94F9009701A50170E060E08C2F0E9472
:1028A000F41260E270E08C2F0E946B0D62E070E029
:1028B0008C2F0E944E0D84FD17C063E070E08C2FBA
:1028C0000E944E0D81110BC081E090E0F6019383D0
:1028D000828310E000E010C0F12CE12CD7CF80E51E
:1028E00091E00E94F900E2CF40E162E070E08C2FBD
:1028F0000E946E08EF2841F3C801CF911F910F91FC
:10290000FF90EF90DF90CF90BF90AF909F908F900F
:102910000895FF920F931F93CF93DF9300D0CDB70D
:10292000DEB7F82E22E030E0AE014F5F5F4F66E287
:1029300070E00E94831009811A8110270127102757
:1029400022E030E0AE014F5F5F4F66E270E08F2D16
:102950000E94831089819A819827892798270817D0
:10296000190749F4C8010F900F90DF91CF911F9183
:102970000F91FF9008958C01E3CF1F93CF93DF93C6
:10298000182F87E0189FE0011124CD56DC4F888175
:102990009981009761F480E591E00E94F900812F10
:1029A0000E9489142E81821B910999838883DF916B
:1029B000CF911F910895FC018485843010F40C940C
:1029C000BD1490E080E008954F925F927F928F92C5
:1029D0009F92AF92BF92CF92DF92EF92FF920F93AE
:1029E0001F93CF93DF9300D0CDB7DEB7782E6B0166
:1029F0004A01A82EB12C27E0829FC0011124FC01BE
:102A0000ED56FC4F7F010081118180E591E00E942D
:102A1000F9000815190554F4872D0E948914F7014F
:102A200026818C01021B11091183008301151105F8
:102A300029F563E070E0872D0E944E0D843159F036
:102A4000882349F001E010E08C3111F410E000E03F
:102A5000119501951109C8010F900F90DF91CF9149
:102A60001F910F91FF90EF90DF90CF90BF90AF90AC
:102A70009F908F907F905F904F9008958016910661
:102A80000CF4840187E08A9DF0018B9DF00D1124E8
:102A9000ED56FC4FE280F380C114D10451F12701BF
:102AA000F7E05F22872D0E942508840D951D209157
:102AB000B303273309F453C09801240D351D213089
:102AC000384008F44CC020E038E0490184189508EB
:102AD000A401B6010E94C30C2601480C591C6801D0
:102AE000C818D908872D0E942508A601B2010E94A6
:102AF000C30CE00EF11E87E08A9DF0018B9DF00D66
:102B00001124ED56FC4FF382E28220813181201B9B
:102B1000310B318320838681800F912F911D8A3F55
:102B2000910510F4232BF1F487E08A9DF0018B9D31
:102B3000F00D1124ED56FC4F1682F982EA8222E054
:102B400030E0AE014F5F5F4F68E270E0872D0E947A
:102B5000330860E470E0872D0E946B0D7CCFA801E4
:102B6000B601C5CF868377CFCF93DF93FC01218D4C
:102B7000328D2115310529F48FEF9FEFDF91CF9131
:102B80000895EC01808D4217530708F0A9010E94B7
:102B9000E4141816190684F7298D3A8D281B390B71
:102BA0003A8F298FEBCF0F931F93CF93DF931F9211
:102BB000CDB7DEB7FC01218D328D232B41F48FEF91
:102BC0009FEF0F90DF91CF911F910F9108958C018E
:102BD00041E050E0BE016F5F7F4FFC01808D0E949D
:102BE000E414181619065CF7F801818D928D01978F
:102BF000928F818F898190E0E4CFCF93DF931F92F2
:102C0000CDB7DEB741E050E0BE016F5F7F4FFC0102
:102C100084850E94E4141816190634F4898190E022
:102C20000F90DF91CF9108958FEF9FEFF9CFFC01C7
:102C30008485843010F40C94E41490E080E00895CE
:102C40000F931F93CF93DF9300D0CDB7DEB7FC0176
:102C500024852430E0F48C0180E591E00E94F900A5
:102C600022E030E0AE014F5F5F4F60E170E0F801BD
:102C700084850E94831089819A81982789279827C3
:102C80000F900F90DF91CF911F910F91089590E0D9
:102C900080E0F6CF0F931F93CF93DF9300D0CDB793
:102CA000DEB7FC0124852430E0F48C0180E591E05E
:102CB0000E94F90022E030E0AE014F5F5F4F64E018
:102CC00070E0F80184850E94831089819A81982799
:102CD000892798270F900F90DF91CF911F910F9127
:102CE000089590E080E0F6CF0F931F93CF93DF938A
:102CF000CDB7DEB728970FB6F894DEBF0FBECDBFB5
:102D00008C01D80159964D915C915A974115510506
:102D100051F0ED91FC91048CF58DE02D70E060E0B8
:102D2000C8010995EECFF801808D0E94BD14892B52
:102D3000B1F148E050E0BE016F5F7F4FD801589677
:102D40008C910E94E41418161906F4F4D8015096D8
:102D500084E0FE01319601900D928A95E1F78D8114
:102D600090E0982F88272E81820F911DF801958B76
:102D7000848B8F81282F30E0322F22278885820F85
:102D8000932F911D928F818F28960FB6F894DEBFF6
:102D90000FBECDBFDF91CF911F910F91089590E0AD
:102DA00080E0F2CF4F925F926F927F928F929F92CC
:102DB000AF92BF92CF92DF92EF92FF920F931F9349
:102DC000CF93DF93CDB7DEB763970FB6F894DEBF2E
:102DD0000FBECDBF7C016B013A01FB0120E090E00A
:102DE00080E06AE03191332309F461C040ED430F84
:102DF0004A3008F04DC0689FA001699F500D112412
:102E0000CA01C097830F911D37FD9A958F3F910599
:102E100049F340F3F70142815381648175818091C8
:102E2000AB049091AC04A091AD04B091AE044817EE
:102E300059076A077B0709F40DC28701085F1F4F16
:102E40000E9411046F7077277C5FC8010E94CF1227
:102E5000813009F004C28FEA91E09A838983F701F7
:102E600082819381A481B5818B839C83AD83BE8352
:102E700045E350E0BE016F5F7F4FC8010E94C30869
:102E8000892BA9F5D12CC12CC8010E94930D17C024
:102E90003E3209F0BFCF233009F4BCCFD301A20FDB
:102EA000B11D12968C932F5F90E080E09BCF233072
:102EB00009F0B0CFF3018583CC24C394D12CC60193
:102EC00063960FB6F894DEBF0FBECDBFDF91CF91F2
:102ED0001F910F91FF90EF90DF90CF90BF90AF9038
:102EE0009F908F907F906F905F904F9008950E9479
:102EF0001104F7017783668342E050E0B7016A5F0F
:102F00007F4FC8010E94DF1381E090E09A8389839C
:102F100042E050E0BE016F5F7F4FC8010E94DF13A7
:102F200080E091E09A83898342E050E0BE016F5FC8
:102F30007F4FC8010E94DF131A82198242E050E0DD
:102F4000BE016F5F7F4FC8010E94DF1342E050E077
:102F5000BE016F5F7F4FC8010E94DF1342E050E067
:102F6000BE016F5F7F4FC8010E94DF135601F6015B
:102F70008081882301F16501F60181912F01882369
:102F800011F08E32B1F446018A189B081814190406
:102F900074F48D8641E050E0BE01635F7F4FC8014D
:102FA0000E94DF13A401B501C8010E94DF13520182
:102FB000DECF6201E1CF1D8641E050E0BE01635FDC
:102FC0007F4FC8010E94DF13C12CDD24D394DA8225
:102FD000C98242E050E0BE016F5F7F4FC8010E948E
:102FE000DF13DA82C98242E050E0BE016F5F7F4F9B
:102FF000C8010E94DF13C8010E94070E892B09F443
:1030000041CFF3E0AF2EB12C230122E0420E511C40
:10301000D4C0F7014281538164817581808D918D87
:10302000A28DB38D481759076A077B0709F008C1BD
:10303000848D958DC59709F003C181A192A15DEFA3
:10304000C52EDD24DA940C970CF4ADC04CE050E0B2
:10305000BE016F5F7F4FC8010E94B4158B819C81B8
:103060009827892798279A8B898BF7014681578162
:1030700029813A814217530709F0E7C097FFE5C05D
:103080008F7092703BEFC32EDD24DA94892B09F008
:103090008AC06F8078847624672476242AEFC22E33
:1030A000DD24DA946114710409F47DC0D12CC12CA3
:1030B0008D819E81982789279827C816D906F8F40C
:1030C00041E050E0BE01635F7F4FC8010E94B4152C
:1030D0004D85442331F050E070E060E0C8010E946B
:1030E000B4158D858111ECCF44E050E070E060E0D4
:1030F000C8010E94B415FFEFCF1ADF0AD9CF912C77
:10310000812C41E050E0BE016D5E7F4FC8010E94FE
:10311000B4154B89842F807C09F06CC0442331F0B6
:1031200050E070E060E0C8010E94B4158B89811105
:10313000E8CF42E050E0BE01615F7F4FC8010E94CE
:10314000B41542E050E0BE01635F7F4FC8010E94AA
:10315000B41544E050E070E060E0C8010E94B4158E
:1031600042E050E0BE016F5E7F4FC8010E94B4157F
:103170008F85988949895A898115914009F043C002
:10318000CD84DE84DC24CD24DC2481E0C816D10487
:10319000D1F54115544009F04AC044E050E0B20175
:1031A000C8010E94B41521E0A21AB10809F46CCE3E
:1031B000FFEFCF16DF0609F067CE0E9411043B0136
:1031C0004C01C8010E947416181619060CF421CF80
:1031D0000E941104661977098809990969387341B1
:1031E0008105910548F562E370E080E090E00E947F
:1031F000DF03E7CF41E050E070E060E0C8010E94EB
:10320000B4151B8A93CF54274527542770E060E0FC
:10321000C8010E94B415FFEF8F1A9F0A6814790441
:1032200009F06FCF96EFC92EDD24DA94BCCFE7EF1B
:10323000CE2EDD24DA94B7CFCC24CA94DC2CB3CFC5
:103240006EEFC62EDD24DA94AECF4CEFC42EDD2413
:10325000DA94A9CF8EEFC82EDD24DA9430CED12CAB
:10326000C12C2DCECF92DF92EF92FF920F931F933E
:10327000CF93DF93CDB7DEB7AF970FB6F894DEBF2D
:103280000FBECDBF7C016A010FEA11E01A830983EA
:103290001C861B8688EE93E0A0E0B0E08D879E87B9
:1032A000AF87B88B83E291E09A878987188F0F8B5D
:1032B000198E1A8E1B8E1C8E84E089A31BA70AA769
:1032C0001CA61DA61EA61FA68091CF049091D00417
:1032D000A091D104B091D2048EA39FA3A8A7B9A7AF
:1032E0008B839C83AD83BE8318861F82AE01465DAF
:1032F0005F4FCE0101960E94D21681309105B1F444
:10330000D701ED91FC910488F589E02D1DA30CA354
:103310008CA59DA5AEA5BFA58EA39FA3A8A7B9A761
:10332000A601BE016C5D7F4FC7010995AF960FB630
:10333000F894DEBF0FBECDBFDF91CF911F910F91EB
:10334000FF90EF90DF90CF900895CF92DF92EF92B1
:10335000FF920F931F93CF93DF93CDB7DEB7AF9755
:103360000FB6F894DEBF0FBECDBF8C016B017A01A2
:103370008FEA91E09A8389831B821C821D821E82C0
:103380001C861B8648EE53E060E070E04D875E8748
:103390006F87788B23E231E03A872987988F8F8B6C
:1033A000198E1A8E1B8E1C8E24E029A39BA78AA738
:1033B0001CA61DA61EA61FA6D8011C968C918430A3
:1033C00060F40E94A00D882321F0F80184850E94FA
:1033D0007B0D84E0D8011C968C938091CF04909152
:1033E000D004A091D104B091D2048EA39FA3A8A72A
:1033F000B9A78B839C83AD83BE8318861F82AE01E1
:10340000465D5F4FB601CE0101960E94D21600972D
:10341000C1F0D801ED91FC910684F785E02D8FEA8B
:1034200091E09DA38CA38CA59DA5AEA5BFA58EA361
:103430009FA3A8A7B9A7A701BE016C5D7F4FC801D4
:103440000995AF960FB6F894DEBF0FBECDBFDF91E2
:10345000CF911F910F91FF90EF90DF90CF90089543
:10346000EF92FF920F931F93CF93DF9300D000D082
:10347000CDB7DEB78C017B01FB0184858430A8F0D9
:103480008FEA91E0F8019183808312821382148283
:103490001582C8010F900F900F900F90DF91CF9180
:1034A0001F910F91FF90EF90089580E591E00E94A9
:1034B000F90024E030E0AE014F5F5F4F6CE070E058
:1034C000F70184850E9483108FEA91E0F8019183CF
:1034D000808389819A81AB81BC8182839383A48319
:1034E000B583D7CF1F920F920FB60F9211242F934F
:1034F0003F934F935F936F937F938F939F93AF937C
:10350000BF93EF93FF938091B900887F803609F4D1
:103510004AC0F0F5883209F4A7C018F5803109F4E3
:103520009BC0B8F4882309F4F9C0883009F494C02A
:10353000FF91EF91BF91AF919F918F917F916F918B
:103540005F914F913F912F910F900FBE0F901F9061
:103550001895883109F488C0803251F78093DA03D6
:1035600014C0803409F49DC040F48033B9F388332B
:10357000F9F68093DA0385ECB0C0803509F485C094
:10358000883509F496C0883499F60E94430AD0CF52
:10359000883909F48CC038F5883729F050F488361A
:1035A00011F0803729F683E08093DC0310929203B8
:1035B00057C0883809F47BC0803919F0803809F089
:1035C000B7CF80919203803208F071C0E0919203EE
:1035D00081E08E0F809392038091BB00F0E0EE5863
:1035E000FC4F80833DC0803B39F0E0F4803A09F421
:1035F00079C0883A09F09CCF84E08093DC03109274
:103600006F0310926E03E0916C03F0916D030995C6
:1036100080916E0381110FC081E080936E03109240
:103620004C0309C0803C09F4A6CF883C09F4A3CF21
:10363000883B09F07DCFE0916F0381E08E0F80938E
:103640006F03F0E0E45BFC4F80818093BB009091BE
:103650006F0380916E0329C08091B7038093BB00F4
:1036600085EC8093BC0064CF9091D9038091D803FE
:10367000981758F5E091D90381E08E0F8093D90314
:10368000F0E0E854FC4F8081E9CFE091D90381E07C
:103690008E0F8093D9038091BB00F0E0E854FC4F7B
:1036A00080839091D9038091D8039817C8F285E858
:1036B000D8CFE091D90381E08E0F8093D903809118
:1036C000BB00F0E0E854FC4F80838091DB03811164
:1036D0005CCF81E08093B60384EA8093BC001092B3
:1036E000DC0326CF85EC8093BC001092DC03809134
:1036F0009203803230F4E0919203F0E0EE58FC4FF8
:1037000010826091920370E0E0917003F091710378
:1037100082E793E00995109292030ACF1092DA03A0
:1037200034CF1F920F920FB60F9211242F933F9315
:103730008F939F93AF93BF93809121039091220326
:10374000A0912303B09124033091200323E0230FA1
:103750002D3758F50196A11DB11D209320038093AC
:10376000210390932203A0932303B0932403809119
:10377000250390912603A0912703B0912803019679
:10378000A11DB11D8093250390932603A0932703C9
:10379000B0932803BF91AF919F918F913F912F914B
:1037A0000F900FBE0F901F90189526E8230F0296DA
:1037B000A11DB11DD2CF1F920F920FB60F921124EF
:1037C0002F933F934F935F936F937F938F939F9329
:1037D000AF93BF93EF93FF93E0910201F091030148
:1037E0000995FF91EF91BF91AF919F918F917F913B
:1037F0006F915F914F913F912F910F900FBE0F905E
:103800001F9018951F920F920FB60F9211242F93AD
:103810003F934F935F936F937F938F939F93AF9358
:10382000BF93EF93FF93E0910001F091010109959F
:10383000FF91EF91BF91AF919F918F917F916F9188
:103840005F914F913F912F910F900FBE0F901F905E
:1038500018951F920F920FB60F9211242F933F933A
:103860004F935F936F937F938F939F93AF93BF9388
:10387000EF93FF9386E094E00E949D06FF91EF9105
:10388000BF91AF919F918F917F916F915F914F9178
:103890003F912F910F900FBE0F901F9018951F9280
:1038A0000F920FB60F9211242F938F939F93EF9344
:1038B000FF93E0911604F09117048081E0911C04BD
:1038C000F0911D0482FD1BC0908180911F048F5FC9
:1038D0008F7320912004821741F0E0911F04F0E0E3
:1038E000EA5FFB4F958F80931F04FF91EF919F91AB
:1038F0008F912F910F900FBE0F901F901895808180
:10390000F4CFCF93DF93AFEDB4E013961C921E92E9
:10391000129748EE53E060E070E014964D935D938B
:103920006D937C9317978DE491E011969C938E9301
:10393000E6E0F4E013821282448355836683778342
:103940008FE591E09183808385EC90E09587848773
:1039500084EC90E09787868780EC90E0918B808B59
:1039600081EC90E0938B828B82EC90E0958B848B42
:1039700086EC90E0978B868B118E128E138E148EB0
:10398000E3EAF4E08FEA91E091838083128213826C
:1039900014821582E9EAF4E0918380831282138213
:1039A00014821582EFEAF4E09183808312821382FD
:1039B00014821582E5EBF4E09183808312821382F6
:1039C00014821582EBEBF4E09183808312821382E0
:1039D00014821582E1ECF4E09183808312821382D9
:1039E00014821582E7ECF4E09183808312821382C3
:1039F00014821582E3EDF4E09183808312821382B6
:103A000014821582EDECF4E091838083128213829C
:103A100014821582E9EDF4E091838083128213828F
:103A200014821582E8E5F5E0918380831282138287
:103A300014821582EFE2F5E022E130E0328721873F
:103A400023E130E034872387178622E0208B128A17
:103A5000118A138A148A158A168A178A108E118E73
:103A6000128E138E148E158E168E178E10A211A222
:103A700013A212A22AE030E035A324A32BE426A34C
:103A800021EE27A310A6B687A58720E22087E9E2CA
:103A9000F5E0918380833AE032832EE6238314821B
:103AA000A5E0A583E3E2F5E091838083328323835D
:103AB000148223E02583E4E1F5E01382128244833B
:103AC0005583668377832DE731E03183208328E0B7
:103AD000248728EE33E036872587CBEED4E01B829F
:103AE0001A8221E731E0398328839C8F8B8F1D8ECA
:103AF0001E8E1F8E18A28FEF9FEF98A78FA3FD83B6
:103B0000EC831EA21DA280E091E00E94D7229F8339
:103B10008E8380E091E0998788878FE090E09B8793
:103B20008A879D878C87DF91CF910895CF93DF930C
:103B3000CDB7DEB72B970FB6F894DEBF0FBECDBF63
:103B4000789484B5826084BD84B5816084BD85B578
:103B5000826085BD85B5816085BD80916E00816084
:103B600080936E001092810080918100826080932A
:103B7000810080918100816080938100809180002C
:103B80008160809380008091B10084608093B10057
:103B90008091B00081608093B00080917A00846051
:103BA00080937A0080917A00826080937A0080917D
:103BB0007A00816080937A0080917A008068809397
:103BC0007A001092C100E0911604F091170482E08F
:103BD0008083E0911204F09113041082E0911404A8
:103BE000F091150480E1808310921E04E0911A0484
:103BF000F0911B0486E08083E0911804F091190491
:103C0000808180618083E0911804F09119048081A3
:103C100088608083E0911804F091190480818068A5
:103C20008083E0911804F091190480818F7D808356
:103C30000FEA11E01A83098380912B0590912C05DE
:103C4000A0912D05B0912E058B839C83AD83BE83FF
:103C5000CE0101960E94610E6CED75E080E090E06F
:103C60000E94DF031A830983809125059091260520
:103C7000A0912705B09128058B839C83AD83BE83DB
:103C8000CE0101960E94E20089EB9BE0909305052E
:103C90008093040580E00E94710981E00E9471090F
:103CA00082E00E94710983E00E94710984E00E9411
:103CB000710985E00E94710986E00E94710987E020
:103CC0000E94710984E08093570510924A03109274
:103CD00049031092E303109205040E94FB0188E25D
:103CE00091E090936D0380936C0389E291E090934F
:103CF00071038093700380914205209144058111E6
:103D000002C0222339F180913C0590913D0530910C
:103D1000370541E04093E20330930404609143058A
:103D2000622B60934805DC01ED91FC910190F081DC
:103D3000E02D09959091430580914505892B80934D
:103D400049058093470590934E0581E00E949002BB
:103D50008093570580913E058823D9F062E08091D9
:103D60003F050E943A0280914005909141052091C3
:103D70003F05223009F4F4C0233059F49093030135
:103D80008093020180916900837F8860809369003D
:103D9000E99A0E94110460934A0570934B05809341
:103DA0004C0590934D0561E080E00E94800361E046
:103DB00081E00E94800361E082E00E94800361E074
:103DC00083E00E94800361E084E00E94800361E060
:103DD00085E00E94800361E086E00E94800361E04C
:103DE00087E00E948003CC24C394D12CFCEF2F2EBB
:103DF00033243A940E94110400911C0310911D0376
:103E000020911E0330911F03601B710B820B930BDB
:103E1000693C71058105910508F4F4C10E94110403
:103E200060931C0370931D0380931E0390931F03E4
:103E30000E94AA00811197C1E2EC7E2E0E94AA0086
:103E4000811191C167E972E086E094E00E94C20AA4
:103E50000E94AA00811170C18091EF049091F0043A
:103E6000DC01ED91FC910688F789E02D0995882306
:103E700009F482C0D092FA04C092F90487E0E8E124
:103E8000F1E0DE01119601900D928A95E1F7DE01D5
:103E9000119685E090E02D91E091F104F091F2040B
:103EA000E80FF91F208301968C309105A1F700914E
:103EB000F1041091F204D8011C967C921C97809119
:103EC000F6041D968C931D978091F5041E968C9395
:103ED000E090F304F090F404B7018EEB92E00E94BE
:103EE00053224196E816F90608F07FC08091EF044E
:103EF0009091F004DC01ED91FC910488F589E02DAE
:103F000009956DEE72E086E094E00E94C20A80900E
:103F1000120590901305092C000CAA08BB082AE092
:103F2000B501A401B7FE0DC06DE286E094E00E94E9
:103F3000BF0644275527BA01481959096A097B0960
:103F40002AE086E094E00E94D10A89EF92E00E9484
:103F5000670B68E873E180E090E00E94DF036ECFBA
:103F60009093010180930001809169008C7F8260B1
:103F700080936900E89A0DCF60910C0570910D0552
:103F80008091EF049091F004DC01ED91FC9140915F
:103F90000E0550910F056115710571F00088F189CA
:103FA000E02D0995019709F465CFEEEFFFEFF0934F
:103FB0001305E0931205A5CF0684F785E02D7FEA6F
:103FC000472E71E0572E5A824982009108051091C0
:103FD000090520910A0530910B050B831C832D8365
:103FE0003E83BE016F5F7F4FDCCF4FE050E0B801F2
:103FF0008EEB92E00E9488008C01E090F304F09038
:10400000F404B7018DEC92E00E945322800F911FBF
:104010000296E816F90608F469CF6091F1047091F0
:10402000F204A8018DEC92E00E9488008C01E090DF
:10403000F304F090F404B70184ED92E00E9453225F
:10404000800F911F0296E816F90608F44FCF609191
:10405000F1047091F204A80184ED92E00E948800BE
:10406000AC01455051096091F1047091F20480E176
:104070000E941D040E9411046093FB047093FC04D1
:104080008093FD049093FE046093FF0470930005F9
:1040900080930105909302058091EF049091F004C4
:1040A000DC01ED91FC910084F185E02D0995892BCF
:1040B00011F50E9411040091FF0410910005209158
:1040C0000105309102054B015C01801A910AA20A98
:1040D000B30A2091F7043091F804A8EEB3E00E94EF
:1040E000C22286169706A806B906B0F230921305CA
:1040F00020921205FBCECE0108960E94CB046430BC
:1041000071058105910509F0F1CEE091F104F0917E
:10411000F2048381811121C00E9411046093FF0485
:10412000709300058093010590930205109203059A
:10413000109213051092120583EE92E00E94670B15
:1041400085ED91E00E94F0098CE192E00E94F00977
:104150008AE592E00E94F00971CE90E090931305F9
:1041600080931205C3CE0E94AA00882309F44AC096
:104170000E9411044B015C012091F5043091F6047A
:10418000A8EEB3E00E94C2220091FF041091000546
:10419000209101053091020524013501401A510A90
:1041A000620A730A930182016017710782079307FD
:1041B000B0F00091FB041091FC042091FD043091BB
:1041C000FE0424013501401A510A620A730A930160
:1041D0008201601771078207930708F06FC0809112
:1041E00003058823E1F13092130520921205809196
:1041F000EF049091F004DC01ED91FC910488F589C5
:10420000E02D099580911A0390911B03892B81F46D
:10421000D0921B03C0921A0385ED91E00E9496098B
:104220008CE192E00E9496098AE592E00E9496094C
:104230000E9411046115784B8C449A4018F0F0E00C
:10424000E0E0099580E090E0892B09F4D3CD0E944D
:104250008906882309F4CACD0E940000C7CDE091E9
:10426000F104F091F20480EC8083E091F104F0918C
:10427000F20411828091EF049091F0046091F104B6
:104280007091F204DC01ED91FC910280F381E02D4C
:1042900042E050E009958092FB049092FC04A092C9
:1042A000FD04B092FE048092FF0490920005A0925B
:1042B0000105B092020581E0809303058091EF042F
:1042C0009091F004DC01ED91FC910084F185E02DEA
:1042D0000995892B09F496CFCE0101960E94CB0453
:1042E0002B01672B09F4D6C08092FF049092000541
:1042F000A0920105B0920205E091F104F091F20460
:104300008081807F803309F0A4C080910405909162
:104310000505892B09F476CF498150E0CA01029640
:104320008E0F9F1FDF01A40FB51F11960C9110E097
:10433000102F0027DC016C91060F111D4D5F5F4FA0
:10434000BF01640F751FA8010E94C224E9818091FA
:10435000F1049091F204800F911FE80FF92FF11DE5
:104360001282E091F104F091F204298130E0C90158
:1043700002968E0F9F1F408146704987A0910405C9
:10438000B0910505BB87AA87423009F04FC0B8013C
:10439000620F731FDF01A60FB71F1396EC901397E0
:1043A000F12CFE2CEE2414964C91E40EF11C4BEFF4
:1043B0005FEF421B530B401B510B440D551D6B5FB0
:1043C0007F4F6E0F7F1FEA85FB850995E091F10411
:1043D000F091F20480E48083E091F104F091F20422
:1043E00049844182E091F104F091F204F282E0917B
:1043F000F104F091F204E3828091EF049091F004D3
:104400006091F1047091F204DC01ED91FC91028065
:10441000F381E02D44E050E009958092FB049092F6
:10442000FC04A092FD04B092FE04ECCE4DEF5FEFD1
:10443000421B530B401B510B440D551D2D5F3F4F2D
:10444000200F311FBF01620F731FEA85FB8509959D
:10445000D9CE803CC9F480ED8083E091F104F091E5
:10446000F20411828091EF049091F0046091F104C4
:104470007091F204DC01ED91FC910280F381E02D5A
:1044800042E050E00995BECE803D09F0BBCE1092CF
:104490000305B8CE0E94AA00B5CE8091F104909198
:1044A000F2040C947323FC016150704001900110E0
:1044B000D8F7809590958E0F9F1F08950E94C22275
:1044C000A59F900DB49F900DA49F800D911D112468
:1044D00008952F923F924F925F926F927F928F92A8
:1044E0009F92AF92BF92CF92DF92EF92FF920F9383
:1044F0001F93CF93DF93CDB7DEB7CA1BDB0B0FB68D
:10450000F894DEBF0FBECDBF09942A883988488849
:104510005F846E847D848C849B84AA84B984C884DF
:10452000DF80EE80FD800C811B81AA81B981CE0FD6
:10453000D11D0FB6F894DEBF0FBECDBFED010895BB
:10454000A1E21A2EAA1BBB1BFD010DC0AA1FBB1F97
:10455000EE1FFF1FA217B307E407F50720F0A21B09
:10456000B30BE40BF50B661F771F881F991F1A9476
:1045700069F760957095809590959B01AC01BD01A0
:10458000CF010895A29FB001B39FC001A39F700DFA
:10459000811D1124911DB29F700D811D1124911D4B
:1045A0000895EE0FFF1F0590F491E02D09940F93ED
:1045B0001F93CF93DF938230910510F482E090E057
:1045C000E0916005F091610530E020E0B0E0A0E00E
:1045D000309799F42115310509F44AC0281B390B8D
:1045E00024303105D8F58A819B816115710589F1E7
:1045F000FB0193838283FE0111C0408151810281BE
:10460000138148175907E0F04817590799F4109794
:1046100061F012960C93129713961C933296CF0169
:10462000DF91CF911F910F91089500936005109332
:104630006105F4CF2115310551F04217530738F0C9
:10464000A901DB019A01BD01DF01F801C1CFEF0132
:10465000F9CF9093610580936005CDCFFE01E20F05
:10466000F31F819391932250310939832883D7CF47
:1046700020915E0530915F05232B41F420910E01BE
:1046800030910F0130935F0520935E0520910C015E
:1046900030910D012115310541F42DB73EB7409100
:1046A000100150911101241B350BE0915E05F09132
:1046B0005F05E217F307A0F42E1B3F0B28173907FD
:1046C00078F0AC014E5F5F4F2417350748F04E0F6E
:1046D0005F1F50935F0540935E05819391939FCF39
:1046E000F0E0E0E09CCFCF93DF930097E9F0FC018E
:1046F000329713821282A0916005B0916105ED019D
:1047000030E020E01097A1F420813181820F931FC7
:1047100020915E0530915F052817390709F061C0C7
:10472000F0935F05E0935E05DF91CF910895EA0174
:10473000CE17DF07E8F54A815B819E0141155105DF
:10474000B1F7E901FB83EA8349915991C40FD51F61
:10475000EC17FD0761F4808191810296840F951F0B
:10476000E90199838883828193819B838A83F0E026
:10477000E0E012968D919C9113970097B9F52D91D9
:104780003C911197CD010296820F931F20915E05F7
:1047900030915F052817390739F6309751F5109297
:1047A000610510926005B0935F05A0935E05BCCFD4
:1047B000D383C28340815181840F951FC817D907C5
:1047C00061F44E5F5F4F88819981480F591F518373
:1047D00040838A819B81938382832115310509F06F
:1047E000B0CFF0936105E09360059ECFFD01DC0141
:1047F000C0CF13821282D7CFB0E0A0E0E2E0F4E2B3
:104800000C946B228C01009751F4CB010E94D722AB
:104810008C01C801CDB7DEB7E0E10C948722FC0122
:10482000E60FF71F9C0122503109E217F30708F445
:104830009DC0D901CD91DC911197C617D70798F08B
:10484000C530D10530F3CE0104978617970708F3DA
:10485000C61BD70B2297C193D1936D937C93CF0145
:104860000E947323D6CF5B01AC1ABD0A4C018C0E9B
:104870009D1EA0916005B0916105512C412CF12C39
:10488000E12C109731F580915E0590915F058815B8
:10489000990509F05CC04616570608F058C080918B
:1048A0000C0190910D01009741F48DB79EB7409196
:1048B000100150911101841B950BE817F90708F0BE
:1048C00055C0F0935F05E0935E05F9017183608345
:1048D000A0CF8D919C91119712966C901297139680
:1048E0007C901397A815B90559F56C0142E0C40EE8
:1048F000D11CCA14DB0420F1AC014A195B09DA01AE
:104900001296159780F06282738251834083D90199
:104910006D937C93E114F10471F0D7011396FC932D
:10492000EE93129776CF22968C0F9D1FF9019183FB
:104930008083F301EFCFF0936105E093600569CFC9
:104940004816590608F42C017D01D3019ACFCB01FA
:104950000E94D7227C01009749F0AE01B8010E9465
:10496000B924C8010E947323870153CF10E000E0EF
:1049700050CFFB01DC0102C001900D92415050402C
:10498000D8F708956817790768F4FB01DC01E40F94
:10499000F51FA40FB51F02C002900E924150504067
:1049A000D8F708950C94B924DC0101C06D934150EF
:1049B0005040E0F70895FB01DC018D9101908019D2
:1049C0000110D9F3990B0895FB01DC0101900D92C0
:1049D0000020E1F7089510E0CDE5D0E004C0FE012D
:1049E0000E94D1222196CE35D107C9F7F894FFCF86
:1049F0001E061E0600C0DEADBEEF00080000620508
:104A0000800001005E00000000044D515454040079
:104A10000000008B08DF1352090001FC00D3155A77
:104A200010CF126A11930DC3083219070E7416B411
:104A30001512090209FE08FA08000000008001535F
:104A400001520900014C0139012A0100000000BF98
:104A5000061F064C060C077D065B066F060000006D
:104A600000390919095209510900000000AC081960
:104A700014D613C113DB14FD1569104D12A51917B7
:104A800016CE0DAC0D68097009C00A65096309A14D
:104A90000859094A16301A20165509000000001D51
:104AA0000B6F6E6C696E65000D0A004E6163687273
:104AB0006963687420656D7066616E67656E205B02
:104AC000005D3A20004D656C64756E67656E2F570A
:104AD00061726E6C6575636874653030312F677212
:104AE00075656E006F6E0052656C616973204B30A6
:104AF000202D3E20414E006F66660052656C616954
:104B000073204B30202D3E20415553004D656C6481
:104B1000756E67656E2F5761726E6C65756368742C
:104B2000653030312F67656C620052656C61697366
:104B3000204B31202D3E20414E0052656C6169733F
:104B4000204B312D3E20415553004D656C64756EF0
:104B500067656E2F5761726E6C657563687465303A
:104B600030312F726F740052656C616973204B3263
:104B7000202D3E20414E0052656C616973204B32FE
:104B80002D3E204155530056657262696E64756E04
:104B900067207A756D204D5154542D53657276659A
:104BA0007220617566626175656E2E2E2E005761EA
:104BB000726E6C6575636874653030310068697455
:104BC00065736800524F39555A3777414E43587ACA
:104BD0006D790076657262756E64656E0046656813
:104BE0006C65722C2072633D002065726E65757471
:104BF0002076657273756368656E20696E20352056
:0A4C000053656B756E64656E00006D
:00000001FF
